:020000040800F2
:1000000078180024E1020008E9660008415C000855
:10001000E1660008210400080177000800000000E4
:100020000000000000000000000000003969000826
:100030002904000800000000F1660008416900087A
:10004000FB020008FB020008FB020008FB0200089C
:10005000FB020008FB020008FB020008FB0200088C
:10006000FB020008FB020008FB020008FB0200087C
:10007000FB020008FB020008FB020008FB0200086C
:10008000FB020008FB020008FB0200083910000810
:10009000B9100008FB020008FB020008FB02000880
:1000A000FB020008FB020008FB020008FB0200083C
:1000B000C16A0008FB020008FB020008FB020008FE
:1000C000FB020008FB020008FB020008FB0200081C
:1000D000FB020008FB020008FB020008FB0200080C
:1000E000FB020008FB02000800000000FB02000801
:1000F000FB020008FB020008FB020008FB020008EC
:10010000FB020008FB020008FB020008FB020008DB
:10011000FB020008FB020008FB020008FB020008CB
:10012000FB020008FB020008FB020008FB020008BB
:10013000FB020008FB020008FB020008FB020008AB
:1001400000000000000000000000000000000000AF
:10015000FB020008FB020008FB020008FB0200088B
:10016000FB020008FB020008FB020008FB0200087B
:10017000FB020008FB020008FB0200080000000070
:10018000FB020008FB020008FB020008FB0200085B
:10019000FB020008FB020008FB020008FB0200084B
:1001A000FB020008FB020008FB0200080000000040
:1001B000FB020008FB020008FB020008FB0200082B
:1001C000FB020008FB020008000000000000000025
:1001D0000000000000000000FB020008000000001A
:1001E000000000000000000000000000000000000F
:1001F0000000000000000000FB020008FB020008F5
:10020000FB020008FB02000800000000FB020008DF
:10021000FB020008FB020008FB020008FB020008CA
:10022000FB02000800000000FB02000800000000C4
:10023000FB020008FB02000800000000FB020008AF
:10024000FB020008FB020008FB020008FB0200089A
:10025000FB020008FB020008FB020008FB0200088A
:10026000FB020008FB020008FB020008FB0200087A
:10027000FB020008FB020008FB020008000000006F
:10028000FB020008FB020008FB020008FB0200085A
:1002900000000000FB020008FB0200080000000054
:1002A00000000000FB020008FB020008FB0200083F
:1002B000FB020008FB020008FB020008FB0200082A
:1002C000FB020008FB020008FB020008DFF80CD06C
:1002D00000F08CF800480047C9780008781800241E
:1002E0000648804706480047FEE7FEE7FEE7FEE7D0
:1002F000FEE7FEE7FEE7FEE7FEE7FEE7116A00081D
:10030000CD0200082DE9F05F0546002092469B468D
:1003100088460646814640241BE02846414647461B
:10032000224600F053F853465A46C01A914110D362
:1003300011461846224600F03AF82D1A67EB0108DC
:100340004F4622460120002100F031F817EB00094A
:100350004E41201EA4F10104DFDC484631462A4606
:100360004346BDE8F09F40EA01039B0703D009E044
:1003700008C9121F08C0042AFAD203E011F8013B91
:1003800000F8013B521EF9D27047D2B201E000F8EA
:10039000012B491EFBD270470022F6E710B5134629
:1003A0000A4604461946FFF7F0FF204610BD202AF2
:1003B00004DB203A00FA02F1002070479140C2F1BC
:1003C000200320FA03F3194390407047202A04DBEE
:1003D000203A21FA02F00021704721FA02F3D040BE
:1003E000C2F1200291400843194670471CB50948E4
:1003F0000090094801900546009C06E0E06840F046
:10040000010394E8070098471034AC42F6D3FFF795
:1004100061FF00005C8100087C8100080000000092
:10042000FEE7000000000000704700000000000030
:10043000EFF3108072B600BFFEE70000000000007E
:100440002DE9F04741F24047C2F200473B78002BCC
:1004500040D0894641F2C0310646C2F20041C0F3A5
:10046000C620085CC6F30221C840C00732D09046BF
:10047000BC6904E0BFF32F8F00220C466ABB00F07A
:1004800083FDA04218D2EFF31082EFF3108172B611
:10049000B969A14204D05AB1A1420DD11DE000BFFB
:1004A0003B69B86101333B61BFF35F8F002AF3D131
:1004B00062B6A14211D000BF57E8061FA142D9D1B0
:1004C000BFF35F8F47E80602002AD5D1BFF35F8FE5
:1004D0000122D2E70120BDE8F087B1B24FF000560B
:1004E00006EA99064FF080454FF0805305EA58051B
:1004F000314403EAD003294440F6C07C01EB030EEB
:100500000723C2F2004CEFF30582002A18BF0EF554
:10051000002E00BF57E8011F4A1C47E80124002CA9
:10052000F8D101F03F0201F470740CEB021A52464C
:100530004EEA843552F80C1F06E000BFBFF32F8F40
:1005400000210029214613D14C0110D452E8004F5C
:1005500001F000462E448C4246F07066EED142E82F
:1005600000610029ECD1BFF35F8F0121E9E700268C
:10057000710105D4013BCDD107F10C01002021E030
:1005800086F0004120F0004001F0004329F00046D1
:100590001844CAF8000028F000401E44CAF804605D
:1005A0001844CAF8080021F08060BFF35F8F07F19C
:1005B000080100BF52E8003F42E80003002BF9D1D8
:1005C000012000BF51E8002F013241E80023002B39
:1005D000F8D1BDE8F08700002DE9F04F89B08846DA
:1005E000002901464FF0000000F0B382802A00F29B
:1005F000B08241F24046C2F20046307800283FD037
:10060000C1F3C620174641F2C032C2F20042105C6C
:10061000C1F30222D040C00732D00C46B56904E0D5
:10062000BFF32F8F00220D4672BB00F0ADFCA84235
:1006300018D2EFF31082EFF3108172B6B169A942BC
:1006400004D05AB1A9420DD11EE000BF3369B06198
:1006500001333361BFF35F8F002AF3D162B6A94241
:1006600012D000BF56E8061FA942D9D1BFF35F8F51
:1006700046E80602002AD5D1BFF35F8F0122D2E7F8
:10068000012009B0BDE8F08F2246C0F20804EFF364
:100690000581002908BF94B24FF08051002F5AD035
:1006A000092F01EAD00B80F0988000210546CDE9A2
:1006B000061106A93A4608464146FFF754FEDDE911
:1006C00006AE4FF000504FF0804100EA9A00AC4671
:1006D00001EA5E0167F31240072700EB010900BF42
:1006E00056E8010F411C46E80112002AF8D100F03B
:1006F0003F0140F6C072C2F2004200F4707002EB9B
:100700000118414649EA803351F80C2F06E000BF3A
:10071000BFF32F8F0022002A024616D1500113D4B6
:1007200002F00040184440EA0B0551E8000F254351
:10073000904245F07065EBD141E80052002AE9D1C2
:10074000BFF35F8F0122E6E70025680100F1B58065
:10075000013FC5D13DE001EAD00C4FF0070E00BFCC
:1007600056E8011F4A1C46E80123002BF8D101F08E
:100770003F0240F6C073C2F2004303EB021801F4DB
:10078000707341464CEA833551F80C2F06E000BFE8
:10079000BFF32F8F0022002A3A4615D1530112D4FD
:1007A00051E8007F02F000432B44974243EA0403E0
:1007B00043F04063ECD141E80032002AEAD1BFF3B4
:1007C0005F8F0122E7E700235A016CD4BEF1010ECE
:1007D000C6D106F10C020020B4E1711C039700BFE2
:1007E000D1E84F2F531CC1E8473F002FF8D14FF4F9
:1007F000E021D8F8007001EA0249D8F804304FF03F
:1008000000514FF0804201EA97014FF0070A02EAD7
:100810005302CDF81480079311440697CDE9017374
:10082000049100BF56E8011F4A1C46E80123002B33
:10083000F8D101F03F0240F6C073C2F2004301F468
:10084000707103EB021E049F724647EA813552F82D
:100850000C3F05E0BFF32F8F0023002B0B4619D16F
:10086000590115D403F000412944214341EA0B0703
:1008700052E8001F47EA0907994247F05068E9D15A
:1008800042E80083002BE7D1BFF35F8F0123E4E749
:100890004FF000085FEA481C1ED4BAF1010AC1D12A
:1008A00006F10C033AE083F0004420F0004004F02D
:1008B00000421044C8E9000233E185F000442CF006
:1008C000004204F000402AF0004302440344C8E917
:1008D00000232EF0004223E188F0004120F0004484
:1008E00001F00043019D1C44CEF80040029C25F01D
:1008F000004524F000441D44CEF804502344CEF8B3
:10090000083021F08061BFF35F8F06F1080300BF5C
:1009100052E8007F42E80017002FF9D1059900BF87
:1009200053E8002F571C43E80072002AF8D1BCF1AD
:10093000000F03D4002009B0BDE8F08F4FF601721C
:10094000039D49EA020420F000400490083D08316C
:10095000092DC0F08380D1F800800591D1F804E022
:100960004FF000504FF0804100EA980001EA5E012C
:10097000072200EB01090395CDF81CE0CDF81880A3
:1009800056E8010F411C46E80113002BF8D100F096
:100990003F0140F6C073C2F2004300F4707003EBF5
:1009A000011A554649EA803055F80C1F06E000BF91
:1009B000BFF32F8F00210029394617D14B0114D4E2
:1009C00055E8007F01F0004303448F4243EA0403EB
:1009D00043EA0B0343F04063EAD145E800310029C4
:1009E000E8D1BFF35F8F0121E5E700235FEA431CF5
:1009F00004D4013AC4D106F10C001DE083F000409C
:100A0000049A00F0004128F000430A44CAF800208C
:100A10002EF000420B44CAF804301144CAF8081002
:100A200020F08060BFF35F8F55E8001F45E80001AC
:100A30000029F9D106F10800039D059950E8002F1F
:100A4000531C40E80032002AF8D1BCF1000F04F139
:100A500001044FF000003FF579AF7AE000202A460C
:100A6000CDE9060006A8FFF77EFCFF204FF00051FD
:100A7000C7F2FF104FF0804220400724DDE906EC6A
:100A800040EA052001EA9E0102EA5C02084340EACE
:100A9000020500BF56E8010F411C46E80112002A7A
:100AA000F8D100F03F0140F6C072C2F2004200F4FB
:100AB000707002EB0118414645EA803051F80C7F16
:100AC00006E000BFBFF32F8F0027002F174615D178
:100AD0007A0112D407F00042831851E8002F43EA4C
:100AE0000B03BA4243F06063ECD141E80037002FBA
:100AF000EAD1BFF35F8F0127E7E70023580102D453
:100B0000013CC7D165E683F000442EF0004204F0BA
:100B10000040049B03440244C8E900322CF0004228
:100B20000244C8F8082024F08060BFF35F8F06F10C
:100B3000080200BF51E8003F41E80003002BF9D153
:100B4000012000BF52E8001F013142E80013002BD2
:100B5000F8D109B0BDE8F08F2DE9F04F83B041F234
:100B6000404A41F2C036C2F2004AC2F2004689460B
:100B7000804600208AF8000080213046FFF70CFCF8
:100B800048F20C111822C0F600014FF6FF7741F22F
:100B9000210300BF0D7887EA05276FF0070500BF26
:100BA0003CB238467F00002C48BF83EA400701353D
:100BB000F6D3013A01F10101ECD142F26B71DAF89E
:100BC0002000CEF2A511884208D1B9B2BAF80200CD
:100BD000884205D1DAF81C00451C04E0CAF8201050
:100BE000AAF80270012540F6C077012DC2F2004735
:100BF0004FF00000CAF81C5042D18AF801004FF4AF
:100C00008061CAE90100CAF80C0040F6C070C2F267
:100C10000040FFF7C1FB00F0BFF9012D04460BD1E6
:100C20002046002C1CBF44F24020C0F20F000021DF
:100C3000CAF81810CAE90410002C00F0F98000204E
:100C400001210022029403E00130203204281FD049
:100C500028FA00F3DB07F7D0002300BF02EBD3072D
:100C600003F00705013301FA05F5F45DFF2B45EAB2
:100C70000405F555F2D1E7E71030B0F5806FCAD022
:100C80003918CA685301F7D522F04062CA60F3E709
:100C9000002000BF3118203080284A7F42F08002B7
:100CA0004A77F7D1002002E02030802807D0402882
:100CB000FAD13118CA7F42F04002CA77F4E7CDF882
:100CC0000490DAF8185004E0BFF32F8F00220D468D
:100CD00062BB00F059F9A8421AD2EFF31082EFF389
:100CE000108172B6DAF81810A94203D06AB1A9428D
:100CF0000ED11BE0DAF81030CAF818000133CAF838
:100D00001030BFF35F8F002AF1D162B6A9420DD037
:100D10005AE8061FA942D7D1BFF35F8F4AE80602FF
:100D2000002AD3D1BFF35F8F0122D0E7DAF81CE0AD
:100D30004FF080514FF00052DAF8144001EAD00130
:100D40004FF0804302EA9E02072603EA540311444F
:100D500001EB030B4FF60071C0F60071009400BF69
:100D60005AE8012F531C4AE80137002FF8D102F04E
:100D70003F0340F6C077C2F2004702F4707207EBFF
:100D8000031C67464BEA823557F80C8F05E000BF1D
:100D9000BFF32F8F0022C846A2B95FEA481210D4D1
:100DA00057E8009F08F000422A44C14542EA010387
:100DB000EED147E80032002AECD1BFF35F8F012269
:100DC000E9E700235A0105D4013EC9D10AF10C001C
:100DD000019C21E083F0004120F0004001F000423E
:100DE0002EF000431044CCF800000098134420F08B
:100DF0000040CCF804301044CCF80800BFF35F8FFB
:100E000021F080610AF10800019C00BF57E8002F23
:100E100047E80012002AF9D150E8001F013140E8EC
:100E20000012002AF8D1002C029C01D000F004F836
:100E3000204603B0BDE8F08F2DE9F04381B041F2C8
:100E40004044C2F200442078002840F098800120FD
:100E50002070A56905E000BFBFF32F8F00220D466B
:100E600052BB00F091F8A84218D2EFF31082EFF3D2
:100E7000108172B6A169A94204D05AB1A9420DD11C
:100E80001AE000BF2369A06101332361BFF35F8FC4
:100E9000002AF3D162B6A9420ED000BF54E8061F63
:100EA000A942D9D1BFF35F8F44E80602002AD5D109
:100EB000BFF35F8F0122D2E74FF0805140F6C07C34
:100EC0004FF6017301EAD00E4FF00709C2F2004C51
:100ED000C0F6007354E8011F4A1C44E80125002DA8
:100EE000F8D101F03F020CEB021801F47072414698
:100EF0004EEA823651F80C5F06E000BFBFF32F8F39
:100F00000025002D154613D16A0110D451E8002F99
:100F100005F000473744AA4247EA0307EED141E80B
:100F20000075002DECD1BFF35F8F0125E9E70027A5
:100F30007A0105D4B9F10109CCD104F10C0017E014
:100F400087F0004220F0004002F00043C8F808306B
:100F5000184422F08062C8E90003BFF35F8F04F1F8
:100F6000080000BF51E8003F41E80023002BF9D101
:100F700050E8001F013140E80012002AF8D101209A
:100F800001B0BDE8F083000041F20400CEF20000A1
:100F900000687047000000004EF6FC50CEF20000E2
:100FA000016841F08071016041F200010120CEF240
:100FB00000010A6842F001020A6070470000000068
:100FC00010B58AB0022004900120059011200690EF
:100FD0001720079040F2582002A9C2F200400024D6
:100FE000CDE9024400F024FA08B1FFF721FA40F2FB
:100FF00058200221C2F2004002220023009400F097
:101000005BFA08B1FFF714FA40F258200121C2F24E
:101010000040002200F094F908B1FFF709FA40F20D
:101020005820C2F2004001F03FF808B1FFF700FA83
:101030000AB010BD0000000040F25820C2F200408B
:1010400000F032BB0000000010B58AB00120039010
:10105000022002A9CDE9040040F2F8200024C2F2E7
:1010600000400294CDE9064400F0E2F908B1FFF730
:10107000DFF940F2F8200221C2F2004002220023F0
:10108000009400F019FA08B1FFF7D2F940F2F82005
:101090001021C2F20040002200F052F908B1FFF71F
:1010A000C7F940F2F820C2F2004000F0FDFF08B19D
:1010B000FFF7BEF90AB010BD40F2F820C2F20040BE
:1010C00000F0F2BA00000000F0B5D1E900C4D1F898
:1010D00008E00D692CB14EEA0C04254345F0804C24
:1010E00003E045EA8C4444EA0E0C856ED0F8847027
:1010F000D1E907466B438D6944EA0660D1F814E0F4
:101100000543CC6807EB830045EA0E0647F823C089
:1011100046EA04034360CB68B3F5803F38BFF0BDB7
:1011200048F23C1C083001320023C0F6000C00BF1E
:10113000D71857F8017CC750CF8904331CF80770C3
:10114000BB42F5D3F0BD000000284CD0B0B590F8FC
:10115000351019B9044600F04BF82046022180F8FA
:101160003510D0F818C04FF20705BCF1000FCFF6CC
:10117000E0751CBF0021416290E80A40C268102B54
:101180000C6804EA05040C60D0E9045442EA040245
:10119000046A42EA0502456A42EA0E0242EA040291
:1011A000846A42EA0502C56A42EA0402046B42EA22
:1011B00005020D6842EA040242EA050242EA0C0214
:1011C00042EA03020A6001D1C2698A61CA6842F038
:1011D0001E02CA600021C164012280F83520BDE8EA
:1011E000B040084670470120704700000000000032
:1011F0002DE9F04387B040F200080068C4F6020809
:10120000002640450696CDE904660396029602D074
:1012100007B0BDE8F08344F2E04040F20049C5F673
:101220000200C5F6020902AD022750F8041C0D2485
:1012300041F0010140F8041C50F8041C01F00101C8
:1012400001910199016841F010010160016801F00C
:10125000100101910199016841F0010101600168EB
:1012600001F0010101910199016841F0040101605F
:10127000016801F0040101910199016841F0080140
:101280000160016801F0080101910199016841F0D4
:10129000020101600068294600F0020001900198F7
:1012A0007020029009F54060CDE90376059606941A
:1012B00000F03EFF50202946CDE9020708F180509A
:1012C0000694CDE9046600F033FF4FF470702946B0
:1012D000CDE9020709F580600694CDE9046600F0C7
:1012E00027FF08202946CDE9020709F5006006948A
:1012F000CDE9046600F01CFF80202946CDE90207F5
:1013000048460694CDE9046600F012FF07B0BDE838
:10131000F083000000000000B0B5044600F0E4FFD8
:1013200040F20C010546C2F20041621C097818BF68
:101330000C4400BF00F0D8FF401BA042FAD3B0BD60
:1013400090F89830013B012B0BD80068836D0B425D
:101350000CD0836D0B408B420CD1C36D43F0020364
:1013600009E000F19C010120022221E0C36D43F05D
:10137000010300E00323C3658B0504D5D0F8E030FA
:101380001343C0F8E0304B0504D5D0F8E4301A43DD
:10139000C0F8E4204FF6FF72436DC3F6CF720A40E7
:1013A0001A4342658A0F4AF614010020C4F2000174
:1013B0000B681A430A60704790F89830022B1BD1D3
:1013C000B0B50368D3F8C05015F07C5F1CD0D3F8DB
:1013D000C450AD021DD4D3F8C4300546C3F3044451
:1013E0002346FFF771FE28680121A140C0F8D01004
:1013F0000020C5F89410B0BDD0F89C1041F0080151
:10140000C0F89C1001207047D0F89C1041F02001DA
:1014100003E0D0F89C1041F40071C0F89C1001204A
:10142000B0BD000000000000704700000000000098
:1014300090F89820013A012A0BD880B50A68002A52
:10144000CA680ED00B69072A43EA427E16D18B691F
:1014500019E0D0F89C1041F00201C0F89C10012066
:101460007047072A18D10A69D1E906C3120442EA73
:10147000032242EA0C0242F0605217E0D1F808C0A1
:101480004B6943EA8C73006F496800EBC10240F876
:1014900031E05360002080BD8B68D1E904CE9B070A
:1014A00043EAC26242EA0C4242EA0E024968C06E56
:1014B00040F82120002080BD90F898C0BCF1010FB9
:1014C0000DD19200006842EA0111DDF800C041EA46
:1014D000430141EA0C01C0F8801000207047D0F8A9
:1014E0009C1041F00401C0F89C10012070470000DE
:1014F000704700000000000070470000000000007E
:1015000070B590F89850022D1CD140291FD1056864
:10151000D5F8A04014F4FE0F00F08F80D5F8A44059
:10152000640600F09680D5F8A440E40148BFD5F8E1
:10153000A040D5F8A45000F17404C5F3052E456C05
:10154000F44629E0D0F89C1041F0080185E04129DB
:1015500018D10568D5F8B04014F4FE0F6DD0D5F859
:10156000B440640675D0D5F8B440E40148BFD5F85E
:10157000B040D5F8B45000F17804C5F3052EC56C21
:10158000F44609E0056DA94257D200F17C04D0F879
:1015900054E04FF0000C0D4605FB0EF6246854F89D
:1015A000265015F08045556054F826E02EF0604531
:1015B00008BFCEF38A4504EB860E156054F826501A
:1015C00005F00055956054F8264004F0004414617D
:1015D000BEF80440D461DEF8044004F47024D46002
:1015E000DEF80450B4F5803F05F480155561DEF84F
:1015F000045005F4001595619EF8075005F07F052D
:101600001562DEF804504FEAD57454620ED30EF121
:10161000080548F23C1E0024C0F6000E2E5D1E5543
:101620000134D6891EF80660B442F7D3402909D1A7
:101630000068C0F8A8C0002070BDD0F89C1041F030
:1016400020010AE041290CD10068C0F8B8C0002090
:1016500070BDD0F89C1041F48071C0F89C1001203E
:1016600070BD1F2907D80068012202FA01F1C0F8F5
:101670009810002070BD006801F01F01012202FADD
:1016800001F1C0F89C10002070BD000000000000B7
:101690000068D0F8C40000F03F0070470000000070
:1016A00070470000000000002DE9F04F87B00446AD
:1016B0004AF61000C4F2000001684AF61400C4F2B1
:1016C0000000026820680A40D0F850B0D0F854906A
:1016D000056D466D036D0293436D0193036D069393
:1016E000436D0593036D0493436D0393D0F854A0A9
:1016F000D0F850805FEACA5310D518F480710DD02D
:101700004FF4807101654AF610010020C4F2000117
:10171000174608602046FFF7C3FF3A460BEA090B5D
:101720004AF610095FEA4A50C4F200094FEA82778C
:101730001AD518F4806017D020689146D0F8DC10D4
:10174000D0F8E42011404FF4806202654AF610029E
:10175000C4F2000200201060204600F0D9FC4A4686
:101760004AF61009C4F2000905EA06050BF47046B2
:1017700057B120680021016502F00300C9F800009C
:1017800020463946FFF750FEDDE9011000EA010767
:1017900005F00F0546B12068314606650020C9F8FE
:1017A0000000204600F0BCFC07F0F00645B12068C0
:1017B000294605650020C9F80000204600F0E4FB3A
:1017C00046B12068314606650020C9F80000204671
:1017D00000F02EFC5FEA0A500CD518F4006009D026
:1017E00020684FF4006101650020C9F80000204620
:1017F00000F09AFC5FEA8A5011D518F400700ED000
:101800002068D0F8D810D0F8E02011404FF40072D2
:1018100002650020C9F80000204600F07DFC5FEA68
:101820000A300CD518F4002009D020684FF40021AC
:1018300001650020C9F80000204600F0A1FB5FEA26
:10184000CA300CD518F4803009D020684FF48031AC
:1018500001650020C9F80000204600F055FC5FEA51
:101860004A30DDE9031000EA01050CD518F48020A8
:1018700009D020684FF4802101650020C9F80000DC
:10188000204600F03DFC5FEA8A30DDE9051000EA01
:10189000010005F060710FD518F400320CD02268F9
:1018A0004FF4003313650022C9F80020D4F89C20BF
:1018B00042F08002C4F89C2000F0715539B12068D4
:1018C00001650020C9F800002046FFF715FE4DB164
:1018D000206805650020C9F80000D4F89C00284362
:1018E000C4F89C002068A9F50161884209D0D4F8A9
:1018F0009C00002868D0204607B0BDE8F04FFFF7F5
:10190000F7BD606881688907F1D0016A426A036A9D
:10191000476A114003EA070202F03005D0F8208040
:10192000D0F82490D0F820B0466A026A069211F0EE
:101930000F01426A0592D0F824A0026A049203D0F3
:101940000162204600F0D0FB08EA09072DB160686B
:1019500029460562204600F0CFFB5FEA4A6006EAAE
:101960000B0607F4C0750ED5049810F040000AD09D
:1019700060684023C16BC26B090C02F03F02036236
:10198000204600F0B5FBDDE9051000EA010706F48A
:10199000FC462DB1606829460562204600F0A0FB98
:1019A00007F4F02036B161680E62D4F89C10314320
:1019B000C4F89C1000289AD061680862D4F89C1082
:1019C0000843C4F89C0092E707B0BDE8F08F000020
:1019D00040B32DE9F04F83B04AF200080446C4F248
:1019E00000080068404502D108F58070606094F8F6
:1019F000980028B9002084F89900204600F0CCF91E
:101A00002068816921F01001816100F06DFC0546BC
:101A100020688169090707D500F066FC401B0B2888
:101A2000F6D312E001207047816941F00101816124
:101A300000F05AFC054600BF20688169C90711D132
:101A400000F052FC401B0B28F6D30120D4F89C1068
:101A50000843C4F89C00032084F89800012003B0D8
:101A6000BDE8F08F816941F002018161217C8269CA
:101A700022F04002012918BF40328261617C8269F4
:101A800022F48042012908BF02F580428261A17CD4
:101A9000826922F48052012918BF02F580528261C6
:101AA000816921F44073D4E902120B438361836995
:101AB00023F0A4038361036923F0100303619AB147
:101AC000012A0DD0022A09D08369032A43F080033A
:101AD0008361036943F01002026105D1202200E016
:101AE000042283691A438261D4E90572E369561EB0
:101AF0006FF0FF02256A02EB0323B1F5407F43EA52
:101B00004663A5F1010646EA030640F20003CFF65C
:101B1000FF7303EB074746EA0701C16110D1D4E91F
:101B20000B65D4E90917013F02EB06226FF00F069F
:101B30003A4306EB05173A4303EB01411143C160F9
:101B4000236E2BB1616ED0F8C0201143C0F8C010D5
:101B5000E16DCDE90113D94248F2A401C0F60001BC
:101B600009D0D0F8C820A36E22F0070251F8233024
:101B70001A43C0F8C820D4F840C0BCF1000F09D007
:101B8000D0F8BC20636C22F0070251F823301A43CE
:101B9000C0F8BC20D4F848B0BBF1000F0AD0D0F890
:101BA000BC20E36C22F0700251F8233042EA0312A9
:101BB000C0F8BC20D4F850A0BAF1000F0AD0D0F879
:101BC000BC20636D22F4E06251F8231042EA012147
:101BD000C0F8BC10404504D161688A6822F0030255
:101BE0008A600021C4F89410C4F89C10012184F884
:101BF000981004F13409D0F884104FF6FC72914328
:101C0000656C99E80C02009541EA8201C0F88410E5
:101C1000D0F8841021F47F0141EA0341C0F8841018
:101C20009918D0F888306FF38F0343EA8103C0F826
:101C30008830D0F8883023F4FE0343EA0943C0F823
:101C4000883001EB4903D0F8A0606FF38F0646EAB5
:101C50008306C0F8A060D0F8A06026F4FE0646EA2D
:101C60000C46C0F8A06005FB0C36D0F8B0306FF31E
:101C70008F0343EA8603C0F8B030D0F8B03023F4C5
:101C8000FE0343EA0B43C0F8B030E36CD0F8AC502D
:101C90006FF38F0503FB0B6645EA8605C0F8AC5071
:101CA000D4F8548008FB0A65D0F8F0606FF38F0613
:101CB00046EA8506C0F8F060D0F8F0E0A66D2EF494
:101CC0007C1747EA0647C0F8F070F70007EB850776
:101CD000D0F8C0506FF38F052F43C0F8C070D0F814
:101CE000C070009DDDF804E027F47C1705FB0CFCB8
:101CF0004AF2000547EA0E47C0F8C070C4F200057A
:101D000003FB0BC305F54067D0F8C05007EB820218
:101D100007EB810125F07C57029D47EA0567C0F873
:101D2000C07001EBC90008FB0A372167A16E00EB08
:101D30008C0C606700EB8303E266C4E91EC30EFBF4
:101D400001F300EB87006943C4F8800000EBC60094
:101D5000C4F8840000EB8300C4F8880000EB810025
:101D60004DF2FC31C4F20001C4F89000884201D960
:101D700020206BE6824208D2002000BF42F8040B0C
:101D8000D4F890108A42F9D369E6002003B0BDE888
:101D9000F08F000000000000B0B5B6B0044602A805
:101DA000B8210025CDE93455CDE932553195FEF7FE
:101DB000F3FA4DF200412068C4F20001884200F0BD
:101DC0009C804AF20041C4F2000188424BD04AF2A2
:101DD0000001C4F20001884240F0CD800020039051
:101DE0004FF4004002904FF080501D9002A801F087
:101DF00053FA08B1FEF71CFB40F2400144F2E04008
:101E0000C2F20041C5F602000A68002A02F101028E
:101E10000A6008D1C16841F48071C160C16801F4F1
:101E2000807101910199016841F008010160006829
:101E300031A900F0080001900198032031900220A0
:101E400032900020CDE933000920359040F6004063
:101E5000C5F6020000F06CF913200021002200F00A
:101E6000CBFB132045E0002003904FF4004002908C
:101E70004FF080501D9002A801F00EFA08B1FEF755
:101E8000D7FA40F2400144F2E040C2F20041C5F608
:101E900002000A68002A02F101020A6008D1C16842
:101EA00041F48071C160C16801F4807101910199B0
:101EB000016841F002010160006840F6004100F055
:101EC00002000190C5F602010198602031900220C5
:101ED00032900020CDE9330009203590A1F5006053
:101EE00031A900F025F914200021002200F084FB24
:101EF000142000F06DFB36B0B0BD4FF400400290EE
:101F00004FF080501D9002A8039501F0C5F908B16B
:101F1000FEF78EFA40F2400144F2E040C2F2004186
:101F2000C5F602000A68002A02F101020A6008D11F
:101F3000C16841F48071C160C16801F48071019190
:101F40000199016841F008010160006831A900F0C1
:101F50000800019001984FF44050319002203290D7
:101F60000020CDE933000520359040F60040C5F64D
:101F7000020000F0DDF836B0B0BD00000000000047
:101F8000704700000000000070B5C90700D170BDA7
:101F90004AF200020168C4F20002914218BF70BD0B
:101FA00040F288154021C2F2004506462846FEF759
:101FB000F3F940F244044021C2F200443046224684
:101FC0002B46FFF79DFA22682878A2F11101002A1A
:101FD00008BF00F00F01052910D801EB810040F285
:101FE0009401C2F20041E26801EBC00040F28811A6
:101FF000C2F20041BDE8704005F0D6BB02A0BDE8CA
:10200000704005F0CFBE00BF496E76616C696420F8
:102010006D6F746F722049443A2025642028434133
:102020004E2049443A2030782558290A0D000000F6
:1020300070B5C9061CD54AF200420168C4F200021C
:10204000914218BF70BD40F2C8154021C2F2004550
:1020500006462846FEF7A0F940F26C044121C2F280
:102060000044304622462B46FFF74AFA206800B16A
:1020700070BD40F2881040F29401C2F20040C2F2FA
:102080000041E268007800F00F0000EB800001EBF7
:10209000C00040F2C811C2F20041BDE8704005F036
:1020A00083BB00000000000090F8981001290CD1BB
:1020B000022180F8981001688A6922F001028A6181
:1020C0000021C0F89C1000207047D0F89C1041F00F
:1020D0000401C0F89C1001207047000000000000BF
:1020E0007047000000000000704700000000000082
:1020F0007047000000000000704700000000000072
:102100007047000000000000704700000000000061
:102110007047000000000000704700000000000051
:102120007047000000000000704700000000000041
:102130002DE9F04F83B00E68002E00F0C78000F14B
:10214000264742F2004507F1FF77C5F602050A224D
:10215000A8424FEAB72500F1200308BF09220093E7
:10216000082D38BF4FEAB722002400274FF0000A9D
:1021700001920AE00AF1010A0E6836FA0AF207F142
:10218000020704F1040400F0A180012202FA0AFB14
:1021900016EA0B08EED0D1F80490032209F0030EE2
:1021A000AEF10106012E02FA07F610D8D0F808C0E9
:1021B000CD682CEA0602BD402A438260C9F30015AF
:1021C000426822EA0B0205FA0AF52A434260BEF190
:1021D000030F1FD0C2688D68B243BD40BEF1020F2D
:1021E00042EA0502C26015D16FF00302009D02EAC7
:1021F0005A0B04F01C030F2255F80BC002FA03FE21
:10220000D1F810902CEA0E0C09FA03F343EA0C0300
:1022100045F80B3002684B68B24303F00306BE403A
:1022200013F4403F42EA06020260A3D044F2F443B2
:1022300040F2084CC5F60203C5F6000C0F251A68DB
:1022400042F002021A601A6802F0020202922AF0B8
:102250000302029B04F00C0352F80C609D40AE4355
:10226000019D05FA03F3334342F80C304FF0B04CB4
:10227000DCF800204B6842EA0806DD0258BF22EA7B
:1022800008069D02CCF8006040F2040CC5F6000C74
:10229000DCF8002042EA080658BF22EA08069D033F
:1022A000CCF80060DCF8802042EA080658BF22EA39
:1022B0000806DB03CCF88060DCF87C2042EA0806E4
:1022C00058BF22EA0806CCF87C6053E703B0BDE8AB
:1022D000F08F000000000000002A08BF090481619F
:1022E000704700000000000041F27040C2F2004060
:1022F000006870470000000090F84120202A03D1B8
:1023000090F84020012A01D102207047242280F851
:1023100041200268136823F001031360136823F45B
:1023200080531360136819431160116841F0010173
:102330001160202180F84110002180F84010002019
:10234000704700000000000090F84120202A03D1CF
:1023500090F84020012A01D102207047242280F801
:1023600041200268136823F001031360136823F40B
:10237000706343EA01211160116841F001011160AD
:10238000202180F84110002180F840100020704783
:1023900000284DD010B590F8411031B9002180F8D7
:1023A0004010044600F048F82046242180F84110EF
:1023B00090E80610C46822F070620B68012C23F0CC
:1023C00001030B600A614FF404438A6808BF4FF4AD
:1023D0000043022C22F400428A604CEA03028A6025
:1023E00002D14FF400624A604A6800F1100C42F0DA
:1023F000007242F400424A60CA6822F40042CA6095
:102400009CE81C101A4342EA0422CA60026A42EAAB
:102410000C020A600A6842F001020A60002141646D
:10242000202280F84120016380F84210002010BD76
:102430000120704700000000B0B5B6B0044602A805
:10244000B8210025CDE93455CDE932553195FDF758
:10245000A3FF45F200412068C4F20001884201D088
:1024600036B0B0BD0820029002A80395229500F076
:1024700013FF08B1FDF7DCFF44F2E04431A9C5F6D3
:102480000204206840F002002060206800F0020092
:10249000019001984FF44070319012203290012049
:1024A0003390002034900420359040F20040C5F66F
:1024B0000200FFF73DFEA06840F40010A060A06895
:1024C00000F400100190019836B0B0BD000000008B
:1024D00040F20C0041F27041C2F20040C2F20041F1
:1024E00000780A681044086070470000000000008F
:1024F00080B5032000F0B0F801F032FD44F218413D
:1025000048F2FC03C5F60201C0F600030A68C2F3F4
:1025100003229A5C096801F00F0102F01F02595C66
:10252000D04040F20802C2F2004201F01F0120FA3E
:1025300001F1116040F20401C2F200410860002084
:1025400000F00AF800281CBF012080BD00F030F820
:10255000002080BD0000000040F20C01C2F20041EA
:10256000097819B310B5044640F20400C2F20040E5
:102570004FF47A72B2FBF1F10068B0FBF1F002F0B7
:10258000AFFA0F2C01464FF001000ED8002918BFFA
:1025900010BD4FF0FF300022214600F02DF840F230
:1025A00010010020C2F200410C6010BD01207047F4
:1025B00081B044F2F440C5F60200016841F0020126
:1025C0000160006800F002000090009801B07047C0
:1025D000002848BF704700F01F01012202FA01F1F4
:1025E0004EF20012C0F34A10CEF2000242F8201060
:1025F000704700000000000070B54EF60C5C4FF014
:10260000FF36CEF2000C00F1604505F56445DCF8BC
:102610000030C3F3022E8EF00703042B28BF0423DF
:10262000BEF1030406FA03F321EA030100F00F03ED
:1026300038BF0024043B0028634406FA04F048BF76
:1026400003F10C05A14022EA0000084300012870B4
:1026500070BD0000000000004EF60C514FF6FF0365
:10266000CEF200010A681A4060F30A2242F080604C
:1026700040F0FD70086070472DE9F0478CB04BF2D8
:10268000044A0123C5F2002AC0F20013D0F80080EA
:102690004FF0000CE946002503E000BF002D754611
:1026A00056D105EB450705F1010EBEF1020F4FF0C3
:1026B000000409EBC70049F837C0C0F804C0C0E9FE
:1026C00002CCC0F810C009D15AF8044CE4074FF40A
:1026D000007404BF40F22224C0F20444002602E049
:1026E0000136012EDAD15AF82670FA0705D087EAAA
:1026F0000402920701D4721C0260FA0605D587EA2B
:102700000402920601D4721C4260FA0505D587EADC
:102710000402920501D4721C8260FA030AD587EA8A
:102720000402520306D4BA031A4658BF4FF00112EE
:102730003244C260FA01D3D587EA04025201CFD4F1
:10274000BA011A4658BF4FF0011232440261C7E77E
:1027500045F20003C5F200231868C00702D14FF00C
:10276000000C05E018684FF0010C20F00100186023
:102770004AF2000EC5F2002EDEF80000C00707D0B6
:10278000DEF800000CF1020C20F00100CEF8000091
:1027900009F1200609F108053046984508BF28468A
:1027A00000680AEB800050F8042C22F4807240F894
:1027B000042C5AF8040CC0073CD14846984518BF71
:1027C00018300068002866D00AEB80001C2298456B
:1027D00008BF042250F8044C24F0010440F8044CD3
:1027E00059F8020038B10AEB800050F8042C22F0AE
:1027F000100240F8042C2420984508BF0C2059F8FA
:10280000000040B1012222EA00005AF8202022F400
:1028100080324AF820202820984508BF102059F817
:102820000000C0B3012222EA00005AF8202022F062
:1028300080722EE05AF8040C984520F001004AF806
:10284000040C28D106980AEB8002079852F8044C31
:1028500044F0020442F8044C38B10AEB800050F80E
:10286000042C42F0200240F8042C099840B10122C7
:1028700022EA00005AF8202042F480224AF8202060
:102880000A9840B1012222EA00005AF8202042F0C2
:1028900080624AF820204846984508BF18300C68E6
:1028A0000068844224D00422984508BF1C224F6847
:1028B00059F80220974219D02A46984508BF324657
:1028C0008F681268974211D00C22984508BF2422C5
:1028D000CF6859F80220974208D01022984508BFC7
:1028E00028220F6959F80220974267D1844221D1EA
:1028F0000422984508BF1C224C6859F802209442D3
:1029000018D10C22984508BF2422CC6859F802201F
:1029100094420FD11022984508BF28220C6959F81B
:102920000220944206D15AF8040C40F001004AF803
:10293000040C43E00AEB80000422984508BF1C22E7
:1029400050F8044C24F0010440F8044C59F80200FB
:1029500038B10AEB800050F8042C22F0100240F845
:10296000042C98454FF00C0208BF3546984528685E
:1029700008BF24220AEB800050F8044C24F4807431
:1029800040F8044C59F8020040B1012222EA00004C
:102990005AF8202022F480324AF82020102098454E
:1029A00008BF282059F8000040B1012222EA0000A7
:1029B0005AF8202022F080724AF8202088684FF4CC
:1029C000407298450AEB800050F8044C08BF4FF461
:1029D000807224F44074224440F8042C48695AF868
:1029E000042C441EC2F3074294420BD900245AF827
:1029F000042CCFF6FF7422F47F0204EB0040104356
:102A00004AF8040C5AF8042C08680138D2075AF81E
:102A1000204024F0030427D10322984508BF012257
:102A200022434AF82020486860B10AEB8000302237
:102A3000984550F8044C08BF102224F0200422438B
:102A400040F8042CC868C20326D4A8B301229845D4
:102A500022EA00004FF0A0625AF8204024F0E0641F
:102A600008BF4FF0807224E044F001024AF82020B1
:102A7000486840B10AEB8000012450F8042C64F34C
:102A8000051240F8042CC868C20328D4A0B34FF044
:102A900080746FF0E06526E00122984522EA00008C
:102AA0004FF4A0225AF8204008BF4FF4803224F49B
:102AB000E02422444AF820200869C10329D40028D0
:102AC00040D00121984521EA00004FF0E0615AF81A
:102AD000202022F0E06208BF4FF0407126E04FF462
:102AE00080346FF4E025012222EA00005AF8202009
:102AF0002A4022434AF820200869C10318D408B3A9
:102B00000121032221EA00005AF8201062F31A6121
:102B100016E00121984521EA00004FF4E0215AF81F
:102B2000202008BF4FF4403122F4E022114407E096
:102B30000121032221EA00005AF8201062F3124119
:102B40004AF820105FEACC7003D0186840F001000A
:102B500018605FEA8C7005D5DEF8000040F00100D7
:102B6000CEF8000000200CB0BDE8F08700000000A7
:102B700070B50446FFF7B8FB2CB105460020606530
:102B8000216D11B170BD012070BD204600F084F8A8
:102B900041F28830A065206804F10C034FF6F40C74
:102BA00040F2000E0ECB8668CFF6E00CCFF6FF7E2B
:102BB00006EA0C060EEB024231436FF0FF0C666B27
:102BC00011430CEB03223143E36911431943816044
:102BD000C168226A21F4E0211143C160216BA26B1C
:102BE00042EA01410161E16B41610168626821F4DF
:102BF000F8510CEB022211430160006A80060AD5ED
:102C000041F28936FFF770FB401BB04206D22068C4
:102C1000006A8006F6D40020012108E04FF400701D
:102C20002065606D002140F00100606501200029F1
:102C300008BF70BD2168666AA268013EA369CD68BD
:102C400025F0FF05022B46EA0506CE600E6826F049
:102C5000400642EA06020A60D1F8082122F0A042AA
:102C6000D4E90A6542EA060242EA0502C1F80821EF
:102C70000A6842F001020A6003D18A6842F0020247
:102C80008A60E1680222B1F1806F08BF01222265EB
:102C900070BD0000000000002DE9F04FB5B0044603
:102CA00002A8B8210025CDE93355CDE9315530953D
:102CB000FDF772FB45F200012068C5F20021884251
:102CC00002D035B0BDE8F08F4FF00070029002A83E
:102CD0000395159500F0E0FA08B1FDF7A9FB44F261
:102CE000E04040F20008C5F60200C5F6020830AC2C
:102CF000022750F80C1C4FF0000941F4001140F875
:102D00000C1C50F80C1C4FF0030B01F40011019146
:102D1000019950F80C1C41F4804140F80C1C50F80B
:102D20000C1C4FF0090A01F48041019101990168DE
:102D300041F001010160016801F001010191019977
:102D4000016841F002010160016801F00201019196
:102D50000199016841F010010160016801F0100162
:102D600001910199016841F0080101600068214664
:102D700000F00800019001984046CDE93077CDF889
:102D8000C890CDF8CCB0CDF8D0A0FFF7D1F930A9DC
:102D9000082081E8810A0620349040462146FFF74A
:102DA000C7F930A9012008F58066042581E8810A69
:102DB000304621463495FFF7BBF930A82146CDF8BF
:102DC000D0A080E8A00A3046FFF7B2F930A84FF44F
:102DD0000065214680E8A00A0B20349008F5805059
:102DE000FFF7A6F930A82146CDF8D0A080E8A00AC8
:102DF00008F54060FFF79CF935B0BDE8F08F0000A2
:102E000001680122C0F80025002280F8F4248869B6
:102E100040F000608861486D40F08052002042F030
:102E200003024A6570470000002800F08B802DE9FE
:102E3000F04F8BB00446056890F8BD0428B9002017
:102E400084F8BC04204600F093F8032084F8BD0405
:102E5000E86BC00501D40020E060206804F014FC99
:102E600020680A9004F1040E04F11C0AD4E90C5005
:102E70009EE80E589AE8C007CDE9085003A88DE8EF
:102E8000005880E8C0070A9804F06EFA002852D172
:102E900020680021002504F0FFFB616869B304F19C
:102EA0003C004FF0010C0022002300BF02EBC202E5
:102EB00000EB820700F82230DAB201337A83DAB20B
:102EC00087F801C091423D71BD60FD603D61EDD864
:102ED00004F51F7000220025002300BF05EBC50785
:102EE00000F827300133DDB200EB8706A94272708B
:102EF0003271B260F2603261F0D804F1140E04F164
:102F0000240A2268A0680A90D4E903379EE8405852
:102F10009AE80007D4E90C50CDE9085002A8CDE9A1
:102F2000007680E8005805A880E8000710460A9A55
:102F300004F0B6FA40B1022084F8BD0401200BB0C1
:102F4000BDE8F08F01207047002084F83800012090
:102F500084F8BD04606A012802D12046FFF750FFC3
:102F6000206804F08DFA00200BB0BDE8F08F00005F
:102F700010B5B0B0044602A8B821FDF70DFA002143
:102F80002068C4F20401884201D030B010BD002096
:102F900003904FF4802002904FF44010239002A839
:102FA00000F07AF908B1FDF743FA00F035F844F281
:102FB000D840C5F60200016841F000710160006868
:102FC00000F000700190019830B010BD00000000CA
:102FD000B0B544F60C05C5F602052968490729680D
:102FE00005D401F00701081A18BF0120B0BD21F077
:102FF000070108432860FFF777F9044655F8080CE5
:10300000800407D4FFF770F9001BB0F57A7FF5D97B
:103010000120B0BD0020B0BD44F60C00C5F6020092
:10302000016841F0807101607047000000000000FD
:1030300080B500F00DFF44F2204148F2FC02C5F6D5
:103040000201C0F600020968C1F30211515C01F0EF
:103050001F01C84080BD000080B544F2384EC5F65F
:10306000020E5EF8103C5EF8101C5EF80C2CC1F3EA
:10307000053CDEF80410BCF1000F18D0C9089FED24
:103080003A1AD20601EAE27103F003026FF35F31EC
:1030900000EE101AB8EE400ADFE802F0021F0E1F21
:1030A0005EF8381C89060AD49FED311A15E000211C
:1030B0008160C0E9001180BD9FED2C1A0DE05EF823
:1030C000381C49F20002C0F2D032C1F3C10122FA29
:1030D00001F101EE101AB8EE411ADEF800109FED72
:1030E000253A6FF35F2102EE101ADEF80010C1F3EB
:1030F0004621B8EE422A013100EE032A00EE10CA42
:10310000B7EE003AB8EE400A81EE000A32EE031A3A
:1031100020EE010A01EE101AB8EE411A80EE011AF3
:10312000BCEEC11A80ED001ADEF80010C1F30641B2
:10313000013101EE101AB8EE411A80EE011ABCEE10
:10314000C11A80ED011ADEF80010C1F306610131E9
:1031500001EE101AB8EE411A80EE010ABCEEC00A68
:1031600010EE101A816080BD0024744A001BB74B1A
:103170000024744C0000003980B544F2404EC5F67E
:10318000020E5EF8183C5EF8181C5EF8142CC1F3B1
:10319000055CDEF80410BCF1000F18D0C9089FEDE3
:1031A0003A1AD20501EAE27103F003026FF35F31CC
:1031B00000EE101AB8EE400ADFE802F0021F0E1F00
:1031C0005EF8401C89060AD49FED311A15E00021F3
:1031D0008160C0E9001180BD9FED2C1A0DE05EF802
:1031E000401C49F20002C0F2D032C1F3C10122FA00
:1031F00001F101EE101AB8EE411ADEF800109FED51
:10320000253A6FF35F2102EE101ADEF80010C1F3C9
:103210004621B8EE422A013100EE032A00EE10CA20
:10322000B7EE003AB8EE400A81EE000A32EE031A19
:1032300020EE010A01EE101AB8EE411A80EE011AD2
:10324000BCEEC11A80ED001ADEF80010C1F3064191
:10325000013101EE101AB8EE411A80EE011ABCEEEF
:10326000C11A80ED011ADEF80010C1F306610131C8
:1032700001EE101AB8EE411A80EE010ABCEEC00A47
:1032800010EE101A816080BD0024744A001BB74BF9
:103290000024744C000000392DE9F04381B004464D
:1032A000C07844F22C490007C5F6020901D4002574
:1032B00020E0606E4FEA3050032835D80025DFE863
:1032C00000F0020A1C22D9F8000040F40030C9F8CE
:1032D0000000D5B906E004F10800022103F00CFA61
:1032E000054695B9D9F82400616E20F440100843D2
:1032F000C9F824004FF0000808E004F1280002217A
:1033000003F08AFA0546002DECD0A8466078C00785
:103310001ED0A06D04283ED8DFE800F02B340A034D
:1033200003006DB1A84613E00125002DEDD1D9E7CA
:1033300004F12800002103F06FFA0546002DF1D1B9
:10334000D9F82400A16D20F007000843C9F8240033
:103350006078400747D5D4F8A4004FEA705005289C
:103360002CD8DFE800F01C2F2503030395B3A846F3
:1033700039E0D9F8000040F40030C9F80000002D11
:10338000D0D1DDE704F10800002103F0B5F90546CE
:10339000002DC7D1D4E70125002DC3D1D0E7D9F83E
:1033A000000040F40030C9F80000002DDFD111E02A
:1033B00004F12800002103F02FFA08E00125002D78
:1033C000D5D107E004F10800002103F095F9054686
:1033D000002DCCD1D9F82C00D4F8A41020F4600032
:1033E0000843C9F82C006078000731D5D4F8A8004C
:1033F0004FEA3060052816D8DFE800F006190F0301
:103400000303E5B1A84623E0D9F8000040F40030FA
:10341000C9F80000002DF5D111E004F128000021C9
:1034200003F0FAF908E00125002DEBD107E004F1E3
:103430000800002103F060F90546002DE2D1D9F81B
:103440002C00D4F8A81020F0E0600843C9F82C0044
:10345000E07880071BD5E06C4FEA301003282FD8A6
:10346000DFE800F0020525024DB1A8460FE0D9F8CB
:10347000000040F40030C9F80000002DF5D1D9F863
:103480002000E16C20F030000843C9F8200060788B
:10349000C00629D5E06D4FEA3030042849D8DFE86E
:1034A00000F0363F13030300B5B1A8461CE004F159
:1034B0000800022103F020F90546002DD5D1DEE7F2
:1034C0000125002DD1D1DAE704F12800002103F015
:1034D000A3F90546002DE8D1D9F82400E16D20F4C8
:1034E000E0400843C9F824006078800639D5206E92
:1034F0004FEA3040052829D8DFE800F025031F25D2
:10350000252504F10800012103F0F6F81AE0D9F8A6
:10351000000040F40030C9F80000002DC5D1DBE701
:1035200004F10800002103F0E7F80546002DBCD1A6
:10353000D2E70125002DB8D1CEE704F12800012102
:1035400003F06AF9054625B1A8460AE00125002DD9
:10355000FAD1D9F82400216E20F4E0200843C9F8FC
:1035600024006078400625D5D4F8AC004FEA3070CE
:10357000052813D8DFE800F00F03090F0F0F04F13F
:103580000800012103F0B8F804E004F1280001214B
:1035900003F042F9054625B1A8460BE00125002DB0
:1035A000FAD1D9F82C00D4F8AC1020F0E040084350
:1035B000C9F82C006078000620D5E06ED8B1B0F1D3
:1035C000005F12D0B0F1805F26D1D9F8000040F43E
:1035D0000030C9F8000085B9D9F82400E16E20F068
:1035E00040500843C9F8240008E004F10800012114
:1035F00003F082F80546002DEED0A846E078C0071B
:103600001ED0A06C032800F28080DFE800F00209E1
:1036100074026DB1A84613E00125002DEDD1DBE762
:10362000D9F8000040F40030C9F80000002DF1D1B5
:10363000D9F82000A16C20F003000843C9F820004D
:10364000A078400644D5D9F8D40340F48070C9F876
:10365000D403FEF749FE0646D9F8D403C00505D4C5
:10366000FEF742FE801B6528F6D303257DBBD9F803
:103670004410D4F8B000414011F4407F11D0D9F883
:103680004410D9F8442042F48032C9F84420D9F8D3
:10369000442021F4407122F48032C9F84420C9F852
:1036A0004410B0F5807F0FD1FEF71EFE064641F2B2
:1036B000893700BFD9F84400800705D4FEF714FE0F
:1036C000801BB842F6D30325002D00F07A82A8466D
:1036D0002078C00732D0A06F4FEAF000052822D82A
:1036E000DFE800F01E03181E1E1E04F10800012171
:1036F00003F002F813E004F10800022102F0FCFFDD
:103700000546002D7FF486AF92E70125002D7FF45A
:1037100081AF8DE704F12800012103F07DF8054613
:1037200025B1A8460AE00125002DFAD1D9F82800D4
:10373000A16F20F038000843C9F8280020788007DE
:1037400021D5606F052813D8DFE800F00F03090FBB
:103750000F0F04F10800012102F0CEFF04E004F194
:103760002800012103F058F8054625B1A8460AE0D3
:103770000125002DFAD1D9F82800616F20F007004B
:103780000843C9F828002078400723D5D4F89000D2
:10379000052813D8DFE800F00F03090F0F0F04F11D
:1037A0000800012102F0A8FF04E004F12800012133
:1037B00003F032F8054625B1A8460BE00125002D9F
:1037C000FAD1D9F82C00D4F8901020F00700084363
:1037D000C9F82C002078800625D5D4F88C004FEA53
:1037E0003070052813D8DFE800F00F03090F0F0F22
:1037F00004F10800002102F07FFF04E004F128003A
:10380000022103F009F8054625B1A8460BE0012581
:10381000002DFAD1D9F82800D4F88C1020F0E0401F
:103820000843C9F828002078400625D5D4F8980028
:103830004FEAB020052813D8DFE800F00F03090F86
:103840000F0F04F10800002102F056FF04E004F11C
:103850002800022102F0E0FF054625B1A8460BE052
:103860000125002DFAD1D9F82C00D4F8981020F4B5
:10387000E0500843C9F82C002078000625D5D4F87C
:103880009C004FEA7030052813D8DFE800F00F03E2
:10389000090F0F0F04F10800002102F02DFF04E0D2
:1038A00004F12800022102F0B7FF054625B1A84621
:1038B0000BE00125002DFAD1D9F82C00D4F89C108A
:1038C00020F460400843C9F82C002078000716D582
:1038D000D4F88000B0F5805F08D104F128000221FF
:1038E00002F09AFF002818BF4FF00108D9F828000D
:1038F000D4F8801020F440500843C9F828002078FC
:10390000C00616D5D4F89400B0F5807F08D104F134
:103910002800022102F080FF002818BF4FF00108A4
:10392000D9F82C00D4F8941020F440700843C9F85A
:103930002C00A078000724D5D4F8A000B0F5003FF3
:103940001CD0B0F5803F13D0002840F0E58004F192
:103950000800002102F0D0FE05468DB9D9F82C00F0
:10396000D4F8A01020F440300843C9F82C0008E037
:1039700004F12800022102F04FFF0546002DEDD092
:10398000A846A078400725D5D4F88400B0F5401F9C
:103990001DD0B0F5001F14D0B0F5801F40F0C180DD
:1039A000D9F8000040F40030C9F800008DB9D9F80A
:1039B0002800D4F8841020F440100843C9F82800E7
:1039C00008E004F12800012102F026FF0546002D41
:1039D000EDD0A846A078C0071FD0206DB0F5803F7D
:1039E0000BD0002840F09380D9F8000040F400305C
:1039F000C9F800004DB1A8460FE004F1080002210B
:103A000002F07AFE0546002DF5D1D9F82000216D8F
:103A100020F480300843C9F82000E078800608D5FB
:103A200004F12800022102F0F7FE002818BF4FF031
:103A30000108D4E900108A0340F18280E26F6FF040
:103A4000010303EB3223022B0AD34FEA32233BB1AB
:103A5000012B6BD1D9F8003043F40033C9F80030A2
:103A6000002D66D0CA026ED48A0277D44A0000F1D3
:103A70008080CA0F40F08D80090200F19580C00758
:103A800007D004F10800002102F036FE002818BF1C
:103A900005462079800707D504F10800012102F0CE
:103AA0002BFE002818BF05462079400707D504F1F2
:103AB0000800022102F020FE002818BF05462079E8
:103AC000000707D504F12800002102F0A5FE002818
:103AD00018BF05462079C00607D504F1280001214A
:103AE00002F09AFE002818BF05462079800607D507
:103AF00004F12800022102F08FFE002818BF0125E2
:103B0000002D18BF0125284601B0BDE8F08301252E
:103B1000002D7FF470AF78E70125002D7FF430AFE2
:103B20001CE70125002D7FF454AF40E70125002D4F
:103B300098D1D9F8283023F440731A43C9F82820C3
:103B40004546CA0290D5D9F82420236F22F00042BE
:103B50001A43C9F824208A027FF588AFD9F82420B7
:103B6000A36E22F080721A43C9F824204A007FF520
:103B700080AF59F81C2C22F4004249F81C2CD4F8D0
:103B8000B42059F81C3C1A4349F81C2CCA0F3FF4C6
:103B900073AFD9F82020636D22F040521A43C9F860
:103BA000202009027FF56BAFD9F82810D4F88820BF
:103BB00021F440011143C9F82810C0077FF461AF18
:103BC00067E74FF6CF73D4F8B00059F81C2CC0F259
:103BD000FF0300F4407122F47C5203EA1013B1F5A4
:103BE000407F08BF1A436FF31F3049F81C2CD9F8E7
:103BF00044100843C9F844006AE5000000000000D2
:103C00002DE9F04381B0002800F0F88042F200086E
:103C10000446C5F200288946D8F8000000F00F00DD
:103C200081420ED9D8F8000020F00F0040EA0900C8
:103C3000C8F80000D8F8000000F00F00484540F038
:103C4000DD80206844F218474107C5F602070AD50F
:103C500021693A6802F07002914204D93A6822F070
:103C600070021143396001070AD561697A6802F070
:103C70007002914204D97A6822F07002114379608F
:103C8000C1060AD5A1697A6802F4E062914204D9BA
:103C90007A6822F4E0621143796081060AD5E1690D
:103CA000BA6802F07002914204D9BA6822F0700238
:103CB0001143B96081070AD5E1683A6802F00F0242
:103CC000914204D93A6822F00F0211433960C007CB
:103CD00040F08080206881070AD5E1683A6802F0E8
:103CE0000F02914204D23A6822F00F021143396068
:103CF000D8F8001001F00F0189450DD2D8F8001056
:103D000021F00F0141EA0901C8F80010D8F80010AD
:103D100001F00F01494571D141070AD521693A687F
:103D200002F07002914204D23A6822F0700211430C
:103D3000396001070AD561697A6802F07002914220
:103D400004D27A6822F0700211437960C1060AD564
:103D5000A1697A6802F4E062914204D27A6822F49E
:103D6000E0621143796080060AD5E069B96801F024
:103D70007001884204D2B96821F070010843B8602C
:103D800000F0EEF8396848F2FC02C0F60002C1F318
:103D90000321515C3B6803F00F0301F01F01D25C6B
:103DA00020FA01F102F01F0040F20802C2F20042C4
:103DB00021FA00F0106040F2100040F20402C2F25A
:103DC0000040C2F200420068116001B0BDE8F0435B
:103DD000FEF7C2BB386820F47061D4E901021143D8
:103DE0003960012857F8181C0CD0032804D0022889
:103DF00028D1890302D507E0890105D4012001B04B
:103E0000BDE8F083C905F9D557F8081C21F0070172
:103E1000084347F8080CFEF767FA064641F2883572
:103E200057F8080C616800F03800B0EBC10F3FF4A0
:103E300051AFFEF759FA801BA842F1D9032001B017
:103E4000BDE8F0834907D9D5DEE700000000000097
:103E500080B500F085F844F2184148F2FC03C5F63D
:103E60000201C0F600030A68C2F303229A5C0968E3
:103E700001F00F0102F01F02595C20FA02F201F07A
:103E80001F0040F20801C2F2004122FA00F008606F
:103E900040F20401C2F200410A6080BD000000004F
:103EA00080B500F05DF844F2184C48F2FC03C5F60A
:103EB000020CC0F60003DCF80020C2F303229A5C77
:103EC000DCF8001001F00F0102F01F02595CD04035
:103ED00040F20802C2F2004201F01F0120FA01F193
:103EE000116040F20402C2F200421060DCF80400EB
:103EF000C0F30210185C00F01F0021FA00F080BD32
:103F000080B500F02DF844F2184C48F2FC03C5F6D9
:103F1000020CC0F60003DCF80020C2F303229A5C16
:103F2000DCF8001001F00F0102F01F02595CD040D4
:103F300040F20802C2F2004201F01F0120FA01F132
:103F4000116040F20402C2F200421060DCF804008A
:103F5000C0F30220185C00F01F0021FA00F080BDC1
:103F600044F20041C5F602010869C0F3C20003280B
:103F700014D002280DD088BB0868800649F20000E2
:103F8000C0F2D03058BF70470968C1F3C101C840C2
:103F9000704743F20060C0F26E1070478B6A886A07
:103FA000D1F82CC04A6BC0F30510E0B1C2F3CC02CB
:103FB00003F0030300EE102A9FED291AB8EE400A21
:103FC00020EE010A9FED271ADFE803F0021F0F1F02
:103FD0000A6892060CD49FED251A16E040F60010F0
:103FE000C0F23D007047002070479FED1F1A0CE0A3
:103FF0000A6849F20003C0F2D033C2F3C10223FAC7
:1040000002F201EE102AB8EE411A0A6B9FED183A3F
:104010006FF35F2202EE102A5FEACC7203FE000A01
:1040200003EE100A086BB8EE422AC0F34620B8EE41
:10403000433A013030EE020AB7EE002A81EE031A4D
:1040400030EE020A21EE000A01EE100AB8EE411A23
:1040500080EE010ABCEEC00A10EE100A704700BFE5
:10406000000000390024744A001BB74B0024744C34
:10407000000000000000000070B586B0002844F287
:10408000E04640F2000014460D46C5F60206C5F6AD
:1040900002001FD0316800F5006041F0040131607A
:1040A000316801F00401019101994FF4007101910F
:1040B000022102910321049100210391059101A99C
:1040C000FEF736F856F8D00C20F07E4040EAC410D7
:1040D00028431BE0316841F001013160316801F093
:1040E0000101019101994FF4807101910221029126
:1040F0000321049100210391059101A9FEF718F80D
:1041000056F8D00C20F0FE702843204346F8D00C1F
:1041100006B070BD000000002DE9F04381B000281A
:1041200000F097818046007844F20049C007C5F648
:10413000020954D0D9F8100000F03801D9F828004D
:10414000102905D018290CD100F00300022808D14D
:10415000D9F8000080033ED5D8F80400D8BB012769
:104160002CE0D8F80450D9F800002DB1B5F5A02FF7
:104170000BD0B5F5803F0ED020F48030C9F8000098
:10418000D9F8000020F4802007E040F48020C9F82E
:104190000000D9F8000040F48030C9F80000FEF7B4
:1041A000A3F8002D054612D0D9F80000800312D4E0
:1041B000FEF79AF8401B6428F6D90327002070B94F
:1041C0008CE100BFFEF790F8401B6428F5D8D9F8C1
:1041D00000008003F6D40120002800F07F8198F8C9
:1041E000000080076AD5D9F8100010F03801D9F81E
:1041F00028001DD0182908BF5FEA807018D0D8F8B1
:104200000C00D9F80010002840D021F01901084313
:10421000C9F80000FEF768F8054600BFD9F80000AD
:10422000400727D4FEF760F8401B0228F6D91EE0AD
:10423000D9F80000400704D5D8F80C00002800F099
:10424000AC81D9F80000D8F80C1020F01900084310
:10425000C9F80000FEF748F8054600BFD9F800008D
:10426000400707D4FEF740F8401B0228F6D9032781
:10427000002420E0D9F80400D8F8101020F0FE4007
:10428000012440EA0160C9F8040014E021F00100B3
:10429000C9F80000FEF728F805460126D9F8000005
:1042A00010F0040086EA900405D0FEF71DF8401BCC
:1042B0000228F3D90327002C00F0108198F80000A1
:1042C000C00656D5D9F8100000F03801D9F82800FA
:1042D000082905D0182917D100F00300012813D1AF
:1042E000D9F80000C00503D5D8F81C0080283BD1C0
:1042F000D9F80C00D8F8201020F07C50012440EAB6
:104300000160C9F80C0031E0D8F81C000028D9F889
:10431000000012D040F08000C9F80000FDF7E4FF73
:10432000054600BFD9F80000C005E1D4FDF7DCFF69
:10433000401B0228F6D9032717E020F08000C9F8B7
:104340000000FDF7D1FF0546012600BFD9F80000A7
:1043500010F4807086EA102408D0FDF7C5FF401BDA
:104360000228F3D9032701E001270024002C00F0E4
:10437000B58098F8000000076DD498F8000080061A
:1043800000F1818098F80000400700F19480D8F88F
:104390002440002C5BD0D9F8100000F03800182819
:1043A00040F0D980012CD9F82810D9F8300050D02D
:1043B00001F00302D8F828309A424AD1C1F305111E
:1043C000D8F82C20914244D10146D8F830206FF320
:1043D0005F21013A91423CD1C0F34622D8F8341013
:1043E00001398A4235D1C0F30642D8F83810013974
:1043F0008A422ED1C0F30660D8F83C1001398842B9
:1044000027D1D9F83400D8F84810C0F3CC00814245
:104410001DD0D9F82C0020F00100C9F82C00FDF7C0
:1044200063FF0546FDF760FFA842FBD0D9F83400D2
:104430004FF6F871D8F84820884340EAC200C9F81E
:104440003400D9F82C0040F00100C9F82C000027F6
:1044500044E0012742E0D8F814000028D9F874009D
:1044600040D040F00100C9F87400FDF73DFF05465B
:10447000D9F8740080073FF580AFFDF735FF401B8A
:104480000228F5D929E0D8F818000028D9F800004A
:104490004DD040F48050C9F80000FDF725FF0546D7
:1044A000D9F8000080043FF56DAFFDF71DFF401BFC
:1044B0000228F5D911E0D9F8000440F48070C9F859
:1044C0000004FDF711FF0546D9F80004C0051CD40F
:1044D000FDF70AFF401B6428F6D90327F8B201B0A4
:1044E000BDE8F08320F00100C9F87400FDF7FCFE80
:1044F00005460327D9F8740080077FF53EAFFDF726
:10450000F3FE401B0228F5D9E8E7D8F80850D9F89F
:1045100070001DB1052D42D0012D46D020F00100C4
:10452000C9F87000D9F8700020F004003FE020F4D2
:104530008050C9F80000FDF7D7FE0546032700BFED
:10454000D9F8000080047FF51DAFFDF7CDFE401BBC
:104550000228F5D9C2E7D9F8000020F08070C9F828
:104560000000FDF7C1FE022C05464FF0030709D1FC
:10457000D9F8000080013CD5FDF7B6FE401B0228AB
:10458000F6D9ABE7D9F8000080017FF560AFFDF701
:10459000ABFE401B0228F5D9A0E7012768E640F0F2
:1045A0000400C9F87000D9F8700040F00100C9F8A3
:1045B0007000FDF799FE002D054641F288344FF05A
:1045C000030711D0D9F8700080073FF5E0AEFDF782
:1045D0008BFE401BA042F5D980E700BFFDF784FEAB
:1045E000401BA0423FF67AAFD9F870008007F5D49F
:1045F000CDE608F12807D9F8280040F2F3318843C6
:104600008ECF0843591E40EA02104FF47E426FF3EA
:104610005F21C9F8280002EB47204FF4FE0280B268
:10462000D8F83C300844D8F8381002EB01414FF07C
:10463000FE4201F4FE0102EB0362084402F0FE4177
:104640000844C9F83000D9F82C004FF6F87120F072
:104650000100C9F82C00D9F83400D8F84820884364
:1046600040EAC200C9F83400D9F82C00D8F840104C
:1046700020F00C000843C9F82C00D9F82C00D8F819
:10468000441020F002000843C9F82C00D9F82C008F
:1046900040F48030C9F82C00D9F82C0040F40030E8
:1046A000C9F82C00D9F82C0040F48020C9F82C005F
:1046B000D9F82C0040F00100C9F82C00D9F800000E
:1046C00040F08070C9F80000FDF70EFE0446032795
:1046D000D9F8000080013FF5BAAEFDF705FE001BDA
:1046E0000228F5D9FAE60000F0B581B0C8B1044659
:1046F000D0F888001E4615460F4628B9002084F8D9
:104700008400204601F024F92420C4F888002068A1
:10471000016821F001010160204602F055FB0128EB
:1047200002D1012001B0F0BDA06A10B1204602F014
:104730007BFA2068816841F480418160816821F4BE
:104740000041394381603104026841EA45516FF309
:10475000194211430160016841F0010101602046E6
:1047600001B0BDE8F04002F0CFBA00000000000048
:10477000002863D02DE9F04743F600040168C4F235
:10478000000443F2000E43F6004CA142C4F2010EB5
:10479000C4F2000C4FF00002826204D0614518BFE1
:1047A000714540F0B480C26B0125C368A14203F19A
:1047B000080305EB52124FEAD30303FB02F218BFC2
:1047C000714540F09280102A00F2A58090F8811087
:1047D00031B9002180F88010044600F0A1F820468D
:1047E000022180F881100168D0F818E00A68BEF153
:1047F000806F22F001020A608B680FD144682CB1EF
:10480000B4F5800F0AD1826B22B13CB9826BB2F150
:10481000805F03D10A6842F480520A60D0F80490A5
:1048200003F4F8135FEA492C0AD5C268072A07D3B4
:104830000A68056D22F480722A4304E00120704763
:104840000A6822F480720A60B9F1000FC269856AB1
:1048500042EA0302C36B42EA050242EA0302D0E9DC
:104860000285D0E9046A42EA05028A60426B876BDE
:10487000456A42EA0502056A42EA070242EA06027E
:1048800042EA0A02D0E9124342EA050242EA03027E
:10489000836D42EA080242EA040242EA030242EA63
:1048A0000E0242EA0902CA6009D18A68012363F351
:1048B000CC228A608A68022363F34A228A600A6DE6
:1048C000BCF1000F22F001020A6505D5CA68436DEC
:1048D00022F000421A43CA600021C0F8841001216E
:1048E00080F881100020BDE8F087614518BF082AD4
:1048F00011D8A14218BF71453FF465AF61457FF4FF
:1049000065AF102A84BF0120BDE8F0875EE7C2686A
:104910000F2A7FF648AF0120BDE8F08700000000B5
:10492000F0B5B5B0044602A8B8210025CDE933554D
:10493000CDE931553095FBF72FFD43F60001206896
:10494000C4F20001884200F0828043F60041C4F2C4
:104950000001884249D043F20001C4F201018842BB
:1049600040F0BB804FF48050029002A800250395D0
:104970001995FEF791FC08B1FBF75AFD44F2E040AF
:1049800040F20044C5F60200C5F6020402260527DF
:10499000016941F480510161016901F48051019183
:1049A0000199016841F008010160016801F0080106
:1049B00001910199016841F002010160006830A98C
:1049C00000F00200019001988020309004F5006012
:1049D000CDE9316533953497FDF7AAFB182034975C
:1049E000CDE93006CDE9325573E04FF480500290A6
:1049F00002A8002403941994FEF74EFC08B1FBF7BB
:104A000017FD44F2E040C5F60200816841F4004120
:104A10008160816801F4004101910199016841F0D0
:104A200004010160006840F2004100F004000190C0
:104A3000C5F6020101984FF4E05030900220339403
:104A4000CDE9310401F580640620349041E04FF453
:104A50008050029002A803951995FEF71DFC08B13D
:104A6000FBF7E6FC44F2E04040F20044C5F60200E9
:104A7000C5F60204022500268168052741F480411D
:104A80008160816801F4804101910199016841F0E0
:104A900004010160016801F00401019101990168BC
:104AA00041F002010160006830A900F002000190AD
:104AB00001980620309004F580603195CDE932668A
:104AC0003497FDF735FB30A94FF40050CDE933673B
:104AD00061C130A92046FDF72BFB35B0F0BD0000C9
:104AE000411E0020B0EB116F01D0012070474EF243
:104AF0001002F023CEF2000251604EF62351CEF2A6
:104B000000010B70072190601160704700000000E9
:104B10007047000000000000704700000000000027
:104B2000704700000000000090F83C20012A01D1ED
:104B300002207047F0B5CB6848F2FF7ED1E901C290
:104B400023F47C5322F47052CFF6F07E42EA030441
:104B50000CEA0E030A68234322F477220C691A43F5
:104B600024F476238C691A434B691A430B6B22F4A5
:104B7000742223F470231A43D0F800E040F2004C72
:104B80004EF48063C4F2010C012580F83C5042EAE7
:104B90000442634502BF22F08052CC692243634540
:104BA00014D100268D6ACFF6F04622F07C720C6A92
:104BB00006EA05552A4324F000744F6A22433A431B
:104BC000634502BF22F00052C96A0A43CEF844206E
:104BD000002180F83C100020F0BD00000000000023
:104BE00090F83C20012A4FF0020269D0B0B50123B1
:104BF00080F83C3080F83D2040F2004C0268C4F25E
:104C0000010C42F4806363455368D2F808E002BFA8
:104C100023F470034C6823434DF6FF740D68C4F20F
:104C2000000423F07003A24243EA0503536014DC3E
:104C300040F2FF73C4F200039A4222DD40F6000303
:104C4000C4F200039A422ED040F60043C4F200039F
:104C50009A4228D041F6000321E04FF6FF73C4F2D8
:104C600000039A4213DD0023C4F201039A421AD0D2
:104C700044F20003C4F201039A4214D0624512D0F8
:104C800016E0B2F1804F0ED040F2004307E04EF242
:104C90000003C4F200039A4205D04EF20043C4F26E
:104CA00000039A4204D12EF0800389681943916071
:104CB0000022012180F83D1080F83C20BDE8B04082
:104CC000104670470000000060B310B5044690F82D
:104CD0003D0028B9002084F83C00204600F024F86C
:104CE000022084F83D002068211D01F0F1FE012022
:104CF00084F8480084F83E0084F83F0084F84000BF
:104D000084F8410084F8420084F8430084F84400A9
:104D100084F8450084F8460084F8470084F83D0094
:104D2000002010BD0120704780B586B000680021CA
:104D3000B0F1804F0591CDE903110291019101D0AD
:104D400006B080BD44F2E040C5F60200826842F041
:104D500001028260826802F001020092009A0268F9
:104D600042F001020260006800F00100009000982B
:104D7000052001900220CDE90201012005900020CC
:104D80000491C5F6020001A9FDF7D2F91C2000210B
:104D90000022FDF731FC1C20FDF71AFC06B080BD97
:104DA00090F83D1001291ED1022180F83D100168C4
:104DB0004DF6FF70C4F20000814216DC40F2FF7035
:104DC000C4F20000814228DD40F60000C4F2000079
:104DD000814234D040F60040C4F2000081422ED01F
:104DE00041F6000027E0012070474FF6FF70C4F243
:104DF0000000814217DD0020C4F2010081421ED074
:104E000044F20000C4F20100814218D040F2004098
:104E1000C4F20100814212D01DE0B1F1804F0ED0EA
:104E200040F2004007E04EF20000C4F20000814270
:104E300005D04EF20040C4F2000081420BD107229F
:104E40008868C0F2010202400020062A18BFB2F5AD
:104E5000803F00D17047086840F0010008600020E2
:104E6000704700000000000090F83C20012A4FF03D
:104E7000020200F0A78080B5012380F83C3080F862
:104E80003D208822D0F800C0CFF6CE72DCF8083082
:104E90001A40CCF808200B686F2B0CDDB3F1101F03
:104EA00034DAB3F5005F69DA702B00F0AF80B3F548
:104EB000805F7ED0D0E02F2B32DD4F2B37DC302BC4
:104EC0006BD0402B40F0C880D1F804E0C968DCF812
:104ED0002030DCF8202022F00102CCF82020DCF881
:104EE000182022F0F00242EA011123F00A02CCF865
:104EF000181042EA0E01CCF820104FF68872DCF848
:104F00000810CFF6CF721140473150E02F21C0F288
:104F100010018B4237DCB3F1101F3ED0202138E066
:104F2000002B18BF102B38D0202B36D094E0502BFC
:104F30004AD0602B40F09080D1F804E0C968DCF8DA
:104F4000203023F01003CCF82030DCF81830DCF8E7
:104F5000202023F4704322F0A00243EA0131CCF870
:104F6000181042EA0E11CCF820104FF68872DCF8C7
:104F70000810CFF6CF721140673118E059D0B3F561
:104F8000801F0AD068E03021C0F210018B4204D0AB
:104F90004021C0F210018B425ED14FF68872DCF8DE
:104FA0000810CFF6CF721140194341F00701CCF839
:104FB00008100022012180F83D10002180F83C10EB
:104FC000BDE8804010467047D1F804E0C968DCF8BD
:104FD0002030DCF8202022F00102CCF82020DCF880
:104FE000182022F0F00242EA011123F00A02CCF864
:104FF000181042EA0E01CCF820104FF68872DCF847
:105000000810CFF6CF7211405731D0E701F1040EEE
:105010009EE80C40DCF808101A4321F47F4142EA74
:105020000E221143CCF80810DCF8081041F077018B
:10503000BDE701F1040E9EE80C40DCF808101A43AD
:1050400021F47F4142EA0E221143CCF80810DCF82B
:10505000081041F48041AAE70122ABE700000000FC
:10506000704700000000000010B5044600680169A8
:10507000890744BFC1685FEA817147D4206801692C
:10508000490744BFC1685FEA41714BD42068016998
:10509000090744BFC1685FEA017150D42068016903
:1050A000C90644BFC1685FEAC16154D42068016980
:1050B000C9071CBFC1685FEAC17159D12068016985
:1050C000090644BFC1685FEA016158D420680169DC
:1050D000C90544BFC1685FEA016157D4206801690E
:1050E000490644BFC1685FEA416156D4206801693E
:1050F000890646BFC1685FEA816110BD6FF020017B
:1051000001612046BDE81040FFF70ABD6FF00201C3
:105110000161012121778069800745D02046FFF792
:105120009FFF47E06FF00401016102212177806950
:1051300010F4407F41D02046FFF792FF43E06FF02C
:105140000801016104212177C06980073ED0204613
:10515000FFF786FF40E06FF0100101610821217721
:10516000C06910F4407F3AD02046FFF779FF3CE059
:105170006FF001010161204600F0FAFA9EE76FF03E
:10518000800101612046FFF7C7FC9FE76FF4807143
:1051900001612046FFF7BCFCA0E76FF04001016110
:1051A000204600F0E9FAA1E7204600F021F8204669
:1051B00000F0DAFA0020207760E7204600F018F8C7
:1051C000204600F0D1FA002020775FE7204600F06B
:1051D0000FF8204600F0C8FA002020775EE720464E
:1051E00000F006F8204600F0BFFA002020775DE7C7
:1051F000704700000000000090F83C30012B01D106
:10520000022070474FEAB2030122052B80F83C20B0
:1052100000F23C822DE9F041DFE803F003B753913F
:105220002DF5036843F6FF76C4F201061A6AB3420D
:1052300022F001021A621A461C6AD3F804C024F054
:10524000020452F818EF8D6844EA0504D1F8008092
:1052500040F3798144F20007C4F20107BB4200F039
:105260007D8144F60007C4F20107BB4200F076815D
:1052700044F200476EE1036843F6FF77C4F201078A
:105280001A6ABB4222F480321A621A46D3F820C04E
:105290005C6852F8546F0D68D1F808E040F3D9808B
:1052A00044F20007C4F20107BB4200F0DD8044F67F
:1052B0000007C4F20107BB4200F0D68044F2004769
:1052C000CEE0036840F2004E43F48067C4F2010E62
:1052D0001A6A774522F480721A621A461C6A5D685F
:1052E00024F4007452F81CCF8E6844EA062407D1D7
:1052F000CE6840F2FF47360224F44064BE43344394
:1053000043F6FF76D1F80080C4F20106B34240F3C1
:10531000CB8044F20007C4F20107BB4200F0CB800F
:1053200044F60007C4F20107BB4200F0C48044F217
:105330000047C4F20107BB4200F0BD80C2E0036831
:1053400043F6FF77C4F201071A6ABB4222F4805287
:105350001A621A46D3F820C05C6852F81C6F0D68B8
:10536000D1F808E040F3C58044F20007C4F2010719
:10537000BB4200F0C98044F60007C4F20107BB42FB
:1053800000F0C28044F20047BAE0036840F2004EE9
:1053900043F48067C4F2010E1A6A774522F01002C6
:1053A0001A621A461C6A5D6824F0200452F818CF6D
:1053B0008E6844EA061407D1CE686FF0400724F0E7
:1053C000C00407EA0616344343F6FF76D1F800809E
:1053D000C4F20106B34240F3D88044F20007C4F29D
:1053E0000107BB4200F0D88044F60007C4F2010771
:1053F000BB4200F0D18044F20047C4F20107BB4237
:1054000000F0CA80CFE0036843F6FF77C4F20107DB
:105410001A6ABB4222F480121A621A46D3F820C0DC
:105420005C6852F8546F0D68D1F808E040F3FC80D6
:1054300044F20007C4F20107BB4200F0008144F6C9
:105440000007C4F20107BB4200F0F98044F20047B4
:10545000F1E00027C4F20107BB4205D040F200474B
:10546000C4F20107BB4204D14F6924F4803444EAFA
:1054700007244FF68C775C60CFF6FE7703373E400B
:105480002CF4003746EA05045C654E6809699E65A0
:1054900047EA0E471F625F6D47F008075F655F6D63
:1054A00027F004075F65EBE00027C4F20107BB4269
:1054B00001D0734506D1D1E90576374325F440562E
:1054C00046EA07154FF68C775D60CFF6FE7707EA60
:1054D0000C0747EA0807DF614F680969DF631C6250
:1054E000DF6947F00807DF61DF6927F00407DF6144
:1054F000C6E00027C4F20107BB4205D040F20047D6
:10550000C4F20107BB4204D14F6924F4804444EA49
:10551000871448F6FF475C60CFF6FF673E402CF4E7
:10552000005746EA0524DC614E6809691E6447EAB3
:105530000E371F62DF6947F40067DF61DF6927F418
:105540008067DF619BE00027C4F20107BB4205D002
:1055500040F20047C4F20107BB4205D1CF6824F0F6
:105560000C0427F004073C43B34233DD44F2000649
:10557000C4F20106B34238D044F60006C4F2010674
:10558000B34232D044F200462BE00027C4F20107B8
:10559000BB4201D0734506D1D1E90576374325F4E6
:1055A000406646EA870548F6FF475D60CFF6FF672D
:1055B00007EA0C0747EA08279F614F6809699F635C
:1055C0001C629F6947F400679F619F6927F48067A9
:1055D0009F6154E00026C4F20106B34205D040F2B8
:1055E0000046C4F20106B34206D12CF44077D1E95B
:1055F0000565374347EA050C4FF68C75C3F804C0C0
:10560000CFF6FE750EEA050747EA08079F614F6867
:1056100009695F631C629F6947F008079F619F6982
:1056200027F004079F612BE00027C4F20107BB426B
:1056300005D040F20047C4F20107BB4204D14F69D4
:1056400024F4802444EA872448F6FF475C60CFF6C0
:10565000FF6707F540773E402CF4001746EA052423
:105660005C654E680969DE6547EA0E571F625F6D2B
:1056700047F400675F655F6D27F480675F65090227
:105680001368194311600022BDE8F041002180F841
:105690003C1010467047000060B310B5044690F807
:1056A0003D0028B9002084F83C00204600F024F892
:1056B000022084F83D002068211D01F009FA012034
:1056C00084F8480084F83E0084F83F0084F84000E5
:1056D00084F8410084F8420084F8430084F84400D0
:1056E00084F8450084F8460084F8470084F83D00BB
:1056F000002010BD0120704780B586B000220068F0
:10570000C4F20102002190420591CDE903110291FA
:10571000019101D006B080BD44F2E040C5F6020020
:10572000026942F001020261026902F00102009284
:10573000009A026842F010020260006800F0100057
:10574000009000984FF4005001900220CDE9020132
:105750000120059041F200000491C5F6020001A964
:10576000FCF7E6FC06B080BD7047000000000000BA
:1057700070470000000000007047000000000000BB
:1057800090F88410012901D1022070472421C0F82B
:10579000881001680A680B6822F0005223F00103A8
:1057A0000B60002343660A602021C0F8881080F84F
:1057B000843000207047000090F88420012A01D135
:1057C00002207047B0B5012380F884302422C0F84D
:1057D00088200268D0F864E0BEF1000FD2F800C063
:1057E000146824F001041460946824F0606441EAB1
:1057F000040191601BD0916848F24C1E9368C0F67A
:10580000000E5B0F48F25415C1F34261C0F600056B
:105810001EF80340EB5C2401B4FBF3F3A0F86A30FC
:105820001EF80130695C1B01B3FBF1F301E0A0F845
:105830006A30A0F868302021C2F800C0C0F8881093
:10584000002180F884100020B0BD0000000000009E
:1058500090F88420012A01D102207047B0B50123BD
:1058600080F884302422C0F888200268D0F864E0F0
:10587000BEF1000FD2F800C0146824F001041460D7
:10588000946824F0604441EA040191601BD091685F
:1058900048F24C1E9368C0F6000E5B0F48F2541598
:1058A000C1F34261C0F600051EF80340EB5C240121
:1058B000B4FBF3F3A0F86A301EF80130695C1B01F9
:1058C000B3FBF1F301E0A0F86A30A0F868302021C2
:1058D000C2F800C0C0F88810002180F884100020B1
:1058E000B0BD00000000000010B5A8B10446D0F81B
:1058F000880028B9002084F88400204600F028F8A9
:105900002420C4F888002068016821F001010160AA
:10591000204601F059FA08B1012010BDA06A10B16B
:10592000204601F081F92068416821F490414160EE
:10593000816821F02A018160016841F00101016064
:105940002046BDE8104001F0DFB900000000000073
:10595000F0B5B5B000210446CDE93311CDE93111E0
:10596000309102A8B821FAF717FD40F6FF712068C0
:10597000C4F20101884244DC44F20041C4F2000157
:10598000884200F08D8044F60001C4F20001884294
:1059900000F0DF8047F60001C4F20001884240F0C9
:1059A0004D8102A800240394022502951F94FDF75F
:1059B00073FC08B1FAF73CFD44F2E040C5F6020082
:1059C000816841F080418160816801F080410191EE
:1059D0000199016841F010010160006840F6004142
:1059E00000F010000190C5F6020101984FF4C0705C
:1059F000CDE93005CDE932440720349001F58060CF
:105A000019E141F20001C4F20101884270D041F66F
:105A10000001C4F20101884200F0DF8041F600413C
:105A2000C4F20101884240F009810120029002A8DD
:105A3000002503952095FDF72FFC08B1FAF7F8FC37
:105A400044F2E0400226C5F60200016941F08001FF
:105A50000161016901F0800101910199016841F042
:105A600010010160006830A900F010000190019859
:105A700004203090349040F60040C5F60200339583
:105A800000F580642046CDE93165FCF751FB2046E6
:105A90000821CDE93016CDE932550B213491CAE009
:105AA00002A800240394022502951F94FDF7F4FB3D
:105AB00008B1FAF7BDFC44F2E040C5F60200816887
:105AC00041F400318160816801F400310191019954
:105AD000016841F008010160006800F008000190D1
