:020000040800F2
:10000000F8260024E1020008718C000869810008CC
:10001000698C000899080008B99D000800000000DC
:10002000000000000000000000000000C18E000879
:10003000D10C000800000000798C0008C98E00086F
:10004000FB020008FB020008FB020008FB0200089C
:10005000FB020008FB020008FB020008FB0200088C
:10006000FB020008FB020008FB020008A1080008D0
:10007000B1080008FB020008FB020008FB020008B0
:10008000FB020008FB020008FB02000899140008AC
:1000900031150008FB020008FB020008FB02000803
:1000A000FB020008FB020008FB020008FB0200083C
:1000B00049900008FB020008FB020008FB02000850
:1000C000FB020008FB020008FB020008FB0200081C
:1000D000FB020008119A0008FB020008FB0200085E
:1000E000FB020008FB02000800000000FB02000801
:1000F000FB020008FB020008FB020008FB020008EC
:10010000FB020008FB020008FB020008FB020008DB
:10011000FB020008FB020008FB020008FB020008CB
:10012000FB020008FB020008FB020008FB020008BB
:10013000FB020008FB020008FB020008FB020008AB
:1001400000000000000000000000000000000000AF
:10015000FB020008FB020008FB020008FB0200088B
:10016000FB020008FB020008FB020008FB0200087B
:10017000FB020008FB020008FB0200080000000070
:10018000FB020008FB020008FB020008FB0200085B
:10019000FB020008FB020008FB020008FB0200084B
:1001A000FB020008FB020008FB0200080000000040
:1001B000FB020008FB020008FB020008FB0200082B
:1001C000FB020008FB020008000000000000000025
:1001D0000000000000000000FB020008000000001A
:1001E000000000000000000000000000000000000F
:1001F0000000000000000000FB020008FB020008F5
:10020000FB020008FB02000800000000FB020008DF
:10021000FB020008FB020008FB020008FB020008CA
:10022000FB02000800000000FB02000800000000C4
:10023000FB020008FB02000800000000FB020008AF
:10024000FB020008FB020008FB020008FB0200089A
:10025000FB020008FB020008FB020008FB0200088A
:10026000FB020008FB020008FB020008FB0200087A
:10027000FB020008FB020008FB020008000000006F
:10028000FB020008FB020008FB020008FB0200085A
:1002900000000000FB020008FB0200080000000054
:1002A00000000000FB020008FB020008FB0200083F
:1002B000FB020008FB020008FB020008FB0200082A
:1002C000FB020008FB020008FB020008DFF80CD06C
:1002D00000F05AFA00480047F19E0008F826002472
:1002E0000648804706480047FEE7FEE7FEE7FEE7D0
:1002F000FEE7FEE7FEE7FEE7FEE7FEE7998F000870
:10030000CD0200082DE9F05F0546002092469B468D
:1003100088460646814640241BE02846414647461B
:10032000224600F069F853465A46C01A914110D34C
:1003300011461846224600F050F82D1A67EB0108C6
:100340004F4622460120002100F047F817EB000934
:100350004E41201EA4F10104DFDC484631462A4606
:100360004346BDE8F09F40EA01039B0703D009E044
:1003700008C9121F08C0042AFAD203E011F8013B91
:1003800000F8013B521EF9D27047D2B201E000F8EA
:10039000012B491EFBD270470022F6E710B5134629
:1003A0000A4604461946FFF7F0FF204610BD30B557
:1003B0000B46014600202022012409E021FA02F523
:1003C0009D4205D303FA02F5491B04FA02F52844BD
:1003D000151EA2F10102F1DC30BD202A04DB203A17
:1003E00000FA02F1002070479140C2F1200320FA88
:1003F00003F3194390407047202A04DB203A21FA86
:1004000002F00021704721FA02F3D040C2F120022D
:1004100091400843194670472DE9FE4F804681EA16
:100420000300C00F0C46009021F0004123F000456E
:10043000B8EB0200A94105D24046214690461C4631
:100440000B46024623F00040104347D0270DC7F368
:100450000A00C3F30A510290401A019040286BDA57
:10046000C3F3130040F4801B0098924620B1002390
:10047000D2EB030A63EB0B0B01985946C0F1400223
:100480005046FFF7AAFF06460D4650465946019AC8
:1004900000F092F910EB08006141002487EA115244
:1004A00084EAE7731A4340D0009A62B3019A012AA2
:1004B0004FEA075215DC001B61EB02014FF00042CE
:1004C00002EA0752CDE90042001C41F58011324694
:1004D0002B4600F092F903B0BDE8F08F404621466C
:1004E000F9E7001B61EB0201001C41F580130018C5
:1004F0005B412018A2F5001747EB030140EAD570D5
:10050000B6196D4111E06D084FEA360645EAC0752F
:100510004FEA0752001B61EB0201001C41F58011FC
:1005200049084FEA30000019514132462B4603B0CA
:10053000BDE8F04F00F052B90098012240000023BE
:10054000D0EB020263EBE073009821464FEAE074BF
:10055000B8EB000061EB0401E9E783F000435BE7DF
:1005600081F0004158E72DE9FE4F81EA030404F0D1
:10057000004421F0004100944FF0000B23F00043B1
:1005800050EA01045ED052EA03045BD0C3F30A547C
:10059000C1F30A552C44A4F2F3340194A0FB025495
:1005A000C1F3130141F48011C3F3130343F4801327
:1005B00001FB024400FB034E840A970A44EA81547B
:1005C00047EA8357A4FB076802958D0A05FB078558
:1005D0004FEA932C04FB0C542705029D4FEA065862
:1005E00047EA1637B5EB08056EEB070C870E920E3F
:1005F00047EA811742EA8312A7FB0201B6EB0B011F
:1006000064EB00042B0D43EA0C335E1844EB1C50E2
:10061000DA465146E7FB0201C5F313044FEA0B33F8
:1006200043EA14534FEA0432019C43EA0603A4F15F
:100630000C040294009CCDE900B400F0DEF803B095
:10064000BDE8F08F00200146F9E72DE9F04D81EA81
:10065000030404F0004B21F0004514464FF0000A5B
:1006600023F0004150EA050220D054EA01021DD0D7
:10067000C5F30A570246C5F31303C1F31300C1F3D0
:100680000A5640F4801543F48013A7EB0608101BAC
:10069000D64608F2FD3873EB050002D308F10108D5
:1006A00001E092185B41B8F1000F03DA0020014627
:1006B000BDE8F08D00204FF48011064684460EE020
:1006C000171B73EB050705D3121B63EB05030643EA
:1006D0004CEA010C49084FEA300092185B4150EA9D
:1006E0000107EDD152EA030012D082EA040083EA46
:1006F0000501084305D0101BAB4106D2012200239F
:1007000006E000224FF0004302E06FF001025310B8
:100710001AEB06004CEB085110EB0A0041EB0B0101
:10072000BDE8F04D00F05AB8C1F30A52C1F313010D
:1007300040F2FF3341F480119A4202DA0020014670
:10074000704740F233439A42A2F2334202DC5242F3
:10075000FFF752BEFFF741BE30B5041E71F1000431
:1007600004DB4FF00044404264EB0101141E73F1BE
:10077000000405DB1C464FF00043524263EB0403C8
:10078000994208BF904230BD1CB509480090094805
:1007900001900546009C06E0E06840F0010394E803
:1007A000070098471034AC42F6D3FFF793FD0000E2
:1007B00090B10008B0B10008202A06DBCB17203A20
:1007C00041FA02F043EAE07306E041FA02F3D04056
:1007D000C2F12002914008431946704710B5141E1B
:1007E00073F1000408DA401C41F1000192185B41EA
:1007F0001A4301D120F0010010BD2DE9F04D9246C1
:100800009B4611B1B1FA81F202E0B0FA80F22032D7
:100810009046FFF7E2FD04460F4640EA0A0041EA2F
:100820000B0153465A46084313D0114653EA0100C0
:1008300019D0C8F140025046FFF7DEFD05460E46CE
:10084000504659464246FFF7C8FD084305D00120EF
:1008500004E020463946BDE8F08D0020054346EA15
:10086000E0762C4337430A986305E40AA0EB0800BE
:100870000022FD0A44EA47540A3002D5002001460E
:10088000E9E7010510196941DDE9084500196941E9
:10089000BDE8F04DA2E70000FEE700000000000008
:1008A00040F6B870C2F2004001F0EEBA000000005D
:1008B00041F23000C2F2004001F0E6BA0000000050
:1008C00040F20F42D0F800C0C4F20202944510DC9E
:1008D0006F22C4F20202944520DC3F22C4F20202DD
:1008E000944536DC1022C4F20202944554D02822EA
:1008F0004EE040F26F42C4F2020294451ADC40F22C
:100900003F42C4F2020294452ADC40F21042C4F293
:100910000202944540D040F2284239E09F22C4F2BE
:100920000202944525DC7022C4F20202944533D0C1
:1009300088222DE040F29F42C4F2020294451FDC5F
:1009400040F27042C4F20202944525D040F288423F
:100950001EE04022C4F2020294451DD0582217E046
:1009600040F24042C4F20202944515D040F258428F
:100970000EE0A022C4F2020294450DD0B82207E096
:1009800040F2B842C4F20202944505D040F2A042BF
:10099000C4F20202944517D10CF0F8024AF6AB23D8
:1009A000103ACAF6AA23A2FB033109A35F2AC1F3B6
:1009B00002115B5C40F2FF312CEA0101C36588BF84
:1009C00004318165084670472CF0FF01F9E700BF4C
:1009D000000610160006101670B540F26F44D0F8ED
:1009E00000C0C4F20204D0F858E0A44519DC9F25E9
:1009F000C4F20205AC4531DC5725C4F20205AC4512
:100A000056DC1025C4F20205AC4500F09280282582
:100A1000C4F20205AC4500F08C804025C4F202050A
:100A200084E045F22F45C5F60205AC452BDC40F2CB
:100A3000B745C4F20205AC4548DC40F27045C4F24B
:100A40000205AC4575D040F28845C4F20205AC45BC
:100A50006FD040F2A045C4F2020567E040F227459E
:100A6000C4F20205AC4540DCA025C4F20205AC4549
:100A70005FD0B825C4F20205AC455AD040F210450B
:100A8000C4F2020552E045F26B45C5F60205AC45DD
:100A90003CDC45F23045C5F60205AC4549D045F28F
:100AA0004445C5F60205AC4543D045F258453BE008
:100AB0005825C4F20205AC453BD07025C4F20205AE
:100AC000AC4536D08825C4F202052FE040F2B84587
:100AD000C4F20205AC452CD045F20845C5F6020526
:100AE000AC4526D045F21C451EE040F22845C4F234
:100AF0000205AC451DD040F24045C4F20205AC45AC
:100B000017D040F25845C4F202050FE045F26C459B
:100B1000C5F60205AC450CD045F29445C5F6020574
:100B2000AC4506D045F28045C5F60205AC4540F01F
:100B3000CC80456EC66E002E866E6E601CBFD0E9FE
:100B40001C566E60A44515DC9F24C4F20204A44523
:100B50002BDC5724C4F20204A4454EDC1024C4F25A
:100B60000204A44576D02824C4F20204A44571D01E
:100B700040246BE045F22F44C5F60204A44527DC6F
:100B800040F2B744C4F20204A44542DC40F270448F
:100B9000C4F20204A4455DD040F28844C4F20204C9
:100BA000A44557D040F2A04450E040F22744C4F29C
:100BB0000204A4453CDCA024C4F20204A44549D0AC
:100BC000B824C4F20204A44544D040F210443DE0ED
:100BD00045F26B44C5F60204A44553DC45F23044AB
:100BE000C5F60204A4455FD045F24444C5F60204AC
:100BF000A44559D045F2584452E05824C4F20204A6
:100C0000A44527D07024C4F20204A44522D088242D
:100C10001CE040F2B844C4F20204A4451AD045F2E4
:100C20000844C5F60204A4453ED045F21C4437E012
:100C300040F22844C4F20204A4450BD040F24044E0
:100C4000C4F20204A44505D040F25844C4F20204A0
:100C5000A4453AD18468C06D00F01F003F2505FA15
:100C600000F0CEF80800DCF80000402C20F48020D2
:100C7000CCF80000CCF8043023D1CCF80820CCF814
:100C80000C1070BD45F26C44C5F60204A4450BD0AF
:100C900045F28044C5F60204A44505D045F29444CB
:100CA000C5F60204A44510D1C46D012504F01F044B
:100CB000806805FA04F4CEF804404028CCF80430EB
:100CC000DBD0CCF80810CCF80C2070BD0000000080
:100CD0007047000000000000EFF3108072B600BF04
:100CE000FEE70000000000002DE9F04742F2C027B7
:100CF000C2F200473B78002B40D0894642F24021A7
:100D00000646C2F20041C0F3C620085CC6F30221C9
:100D1000C840C00732D09046BC6904E0BFF32F8FB3
:100D200000220C466ABB00F06BFBA04218D2EFF326
:100D30001082EFF3108172B6B969A14204D05AB1A2
:100D4000A1420DD11DE000BF3B69B86101333B6199
:100D5000BFF35F8F002AF3D162B6A14211D000BF6A
:100D600057E8061FA142D9D1BFF35F8F47E80602BB
:100D7000002AD5D1BFF35F8F0122D2E70120BDE861
:100D8000F087B1B24FF0005606EA99064FF0804561
:100D90004FF0805305EA5805314403EAD003294453
:100DA00041F6406C01EB030E0723C2F2004CEFF357
:100DB0000582002A18BF0EF5002E00BF57E8011F5C
:100DC0004A1C47E80124002CF8D101F03F0201F44D
:100DD00070740CEB021A52464EEA843552F80C1F1E
:100DE00006E000BFBFF32F8F00210029214613D159
:100DF0004C0110D452E8004F01F000462E448C42C2
:100E000046F07066EED142E800610029ECD1BFF3F4
:100E10005F8F0121E9E70026710105D4013BCDD1A7
:100E200007F10C01002021E086F0004120F0004095
:100E300001F0004329F000461844CAF8000028F0E9
:100E400000401E44CAF804601844CAF8080021F0A3
:100E50008060BFF35F8F07F1080100BF52E8003FD9
:100E600042E80003002BF9D1012000BF51E8002F18
:100E7000013241E80023002BF8D1BDE8F0870000E3
:100E80002DE9F04F89B08846002901464FF0000057
:100E900000F0B382802A00F2B08242F2C026C2F291
:100EA0000046307800283FD0C1F3C620174642F2F2
:100EB0004022C2F20042105CC1F30222D040C007BF
:100EC00032D00C46B56904E0BFF32F8F00220D46E7
:100ED00072BB00F095FAA84218D2EFF31082EFF33C
:100EE000108172B6B169A94204D05AB1A9420DD19C
:100EF0001EE000BF3369B06101333361BFF35F8F20
:100F0000002AF3D162B6A94212D000BF56E8061FEC
:100F1000A942D9D1BFF35F8F46E80602002AD5D196
:100F2000BFF35F8F0122D2E7012009B0BDE8F08F47
:100F30002246C0F20804EFF30581002908BF94B2ED
:100F40004FF08051002F5AD0092F01EAD00B80F0CA
:100F5000988000210546CDE9061106A93A460846C3
:100F60004146FFF700FADDE906AE4FF000504FF0C2
:100F7000804100EA9A00AC4601EA5E0167F3124044
:100F8000072700EB010900BF56E8010F411C46E8A6
:100F90000112002AF8D100F03F0141F64062C2F28E
:100FA000004200F4707002EB0118414649EA8033B8
:100FB00051F80C2F06E000BFBFF32F8F0022002A4C
:100FC000024616D1500113D402F00040184440EA02
:100FD0000B0551E8000F2543904245F07065EBD1B9
:100FE00041E80052002AE9D1BFF35F8F0122E6E712
:100FF0000025680100F1B580013FC5D13DE001EA5F
:10100000D00C4FF0070E00BF56E8011F4A1C46E8FF
:101010000123002BF8D101F03F0241F64063C2F2F8
:10102000004303EB021801F4707341464CEA833528
:1010300051F80C2F06E000BFBFF32F8F0022002ACB
:101040003A4615D1530112D451E8007F02F0004313
:101050002B44974243EA040343F04063ECD141E858
:101060000032002AEAD1BFF35F8F0122E7E70023B5
:101070005A016CD4BEF1010EC6D106F10C0200205B
:10108000B4E1711C039700BFD1E84F2F531CC1E896
:10109000473F002FF8D14FF4E021D8F8007001EA63
:1010A0000249D8F804304FF000514FF0804201EA75
:1010B00097014FF0070A02EA5302CDF81480079314
:1010C00011440697CDE90173049100BF56E8011F52
:1010D0004A1C46E80123002BF8D101F03F0241F6FB
:1010E0004063C2F2004301F4707103EB021E049FDF
:1010F000724647EA813552F80C3F05E0BFF32F8F67
:101100000023002B0B4619D1590115D403F00041DF
:101110002944214341EA0B0752E8001F47EA090727
:10112000994247F05068E9D142E80083002BE7D1AB
:10113000BFF35F8F0123E4E74FF000085FEA481C2C
:101140001ED4BAF1010AC1D106F10C033AE083F0D2
:10115000004420F0004004F000421044C8E90002BE
:1011600033E185F000442CF0004204F000402AF006
:10117000004302440344C8E900232EF0004223E167
:1011800088F0004120F0004401F00043019D1C4420
:10119000CEF80040029C25F0004524F000441D4498
:1011A000CEF804502344CEF8083021F08061BFF31C
:1011B0005F8F06F1080300BF52E8007F42E8001786
:1011C000002FF9D1059900BF53E8002F571C43E8C1
:1011D0000072002AF8D1BCF1000F03D4002009B03E
:1011E000BDE8F08F4FF60172039D49EA020420F03A
:1011F00000400490083D0831092DC0F08380D1F8EB
:1012000000800591D1F804E04FF000504FF080418C
:1012100000EA980001EA5E01072200EB010903954C
:10122000CDF81CE0CDF8188056E8010F411C46E8C7
:101230000113002BF8D100F03F0141F64063C2F2E8
:10124000004300F4707003EB011A554649EA803000
:1012500055F80C1F06E000BFBFF32F8F00210029B7
:10126000394617D14B0114D455E8007F01F00043F3
:1012700003448F4243EA040343EA0B0343F0406311
:10128000EAD145E800310029E8D1BFF35F8F0121A1
:10129000E5E700235FEA431C04D4013AC4D106F118
:1012A0000C001DE083F00040049A00F0004128F09B
:1012B00000430A44CAF800202EF000420B44CAF84A
:1012C00004301144CAF8081020F08060BFF35F8F2B
:1012D00055E8001F45E800010029F9D106F1080092
:1012E000039D059950E8002F531C40E80032002A66
:1012F000F8D1BCF1000F04F101044FF000003FF5FC
:1013000079AF7AE000202A46CDE9060006A8FFF76B
:101310002AF8FF204FF00051C7F2FF104FF0804233
:1013200020400724DDE906EC40EA052001EA9E01A1
:1013300002EA5C02084340EA020500BF56E8010FDA
:10134000411C46E80112002AF8D100F03F0141F6A5
:101350004062C2F2004200F4707002EB0118414694
:1013600045EA803051F80C7F06E000BFBFF32F8FB5
:101370000027002F174615D17A0112D407F000423A
:10138000831851E8002F43EA0B03BA4243F060632D
:10139000ECD141E80037002FEAD1BFF35F8F01277E
:1013A000E7E70023580102D4013CC7D165E683F08A
:1013B00000442EF0004204F00040049B0344024429
:1013C000C8E900322CF000420244C8F8082024F09A
:1013D0008060BFF35F8F06F1080200BF51E8003F55
:1013E00041E80003002BF9D1012000BF52E8001FA3
:1013F000013142E80013002BF8D109B0BDE8F08FAD
:1014000041F20400CEF200000068704700000000C6
:1014100010B58AB00024022004900120CDE9050413
:1014200041F2A80002A9C2F200400794CDE90244AB
:1014300001F0A2FF08B1FFF74FFC41F2A800002124
:10144000C2F2004000220023009401F0D9FF08B14D
:10145000FFF742FC41F2A8000121C2F20040002245
:1014600001F04AFF08B1FFF737FC41F2A80412214E
:10147000C2F200440022204601F0DEFF204601F0C7
:10148000EFFF204602F008FE08B1FFF725FC0AB086
:1014900010BD00000000000041F2A800C2F20040B0
:1014A00002F0D2B80000000010B58AB0012003900D
:1014B000022002A9CDE9040041F248100024C2F242
:1014C00000400294CDE9064401F056FF08B1FFF751
:1014D00003FC41F248100121C2F200400122002326
:1014E000009401F08DFF08B1FFF7F6FB41F24810C0
:1014F0001021C2F20040002201F0FEFE08B1FFF709
:10150000EBFB41F248141221C2F2004400222046B3
:1015100001F092FF204601F0A3FF204602F0BCFD3F
:1015200008B1FFF7D9FB0AB010BD000000000000B1
:1015300041F24810C2F2004002F086B800000000FC
:1015400000284CD0B0B590F8351019B9044600F019
:101550004BF82046022180F83510D0F818C04FF221
:101560000705BCF1000FCFF6E0751CBF00214162FA
:1015700090E80A40C268102B0C6804EA05040C606D
:10158000D0E9045442EA0402046A42EA0502456AC8
:1015900042EA0E0242EA0402846A42EA0502C56A8D
:1015A00042EA0402046B42EA05020D6842EA0402C0
:1015B00042EA050242EA0C0242EA03020A6001D151
:1015C000C2698A61CA6842F01E02CA600021C16411
:1015D000012280F83520BDE8B04008467047012060
:1015E00070470000000000002DE9F04387B040F292
:1015F00000080068C4F60208002640450696CDE9BA
:1016000004660396029602D007B0BDE8F08344F268
:10161000E04040F20049C5F60200C5F6020902ADFD
:10162000022750F8041C0D2441F0010140F8041C6D
:1016300050F8041C01F0010101910199016841F089
:1016400010010160016801F0100101910199016828
:1016500041F001010160016801F00101019101996E
:10166000016841F004010160016801F00401019189
:101670000199016841F008010160016801F0080169
:1016800001910199016841F0020101600068294659
:1016900000F00200019001987020029009F540606E
:1016A000CDE903760596069402F03AFD50202946CE
:1016B000CDE9020708F180500694CDE9046602F0F6
:1016C0002FFD4FF470702946CDE9020709F58060BF
:1016D0000694CDE9046602F023FD08202946CDE9F1
:1016E000020709F500600694CDE9046602F018FDD2
:1016F00080202946CDE9020748460694CDE90466D4
:1017000002F00EFD07B0BDE8F0830000000000000D
:101710002DE9F041044602F0E7FD14B3054694F8C4
:101720003500022820D140F20F472668C4F2020794
:1017300040F26F48BE426FF00E00C4F2020817DCA0
:101740006F21C4F202018E4223DC3F21C4F2020168
:101750008E4239DC1021C4F202018E4258D0282179
:1017600051E00120BDE8F08180206065012037E272
:1017700046451ADC40F23F41C4F202018E422ADCA7
:1017800040F21041C4F202018E4241D040F22841A1
:1017900039E09F21C4F202018E4225DC7021C4F29F
:1017A00002018E4234D088212DE040F29F41C4F2E4
:1017B00002018E421FDC40F27041C4F202018E42EF
:1017C00026D040F288411EE04021C4F202018E4240
:1017D0001ED0582117E040F24041C4F202018E426F
:1017E00016D040F258410EE0A021C4F202018E4210
:1017F0000ED0B82107E040F2B841C4F202018E4297
:1018000006D040F2A041C4F202018E42314607D117
:101810003146306820F01E0041F8140B6FF0800054
:101820000A68464500EA0200086019DC9F20C4F2FD
:101830000200864231DC5720C4F20200864256DCA8
:101840001020C4F20200864200F091802820C4F2E9
:101850000200864200F08B804020C4F2020084E047
:1018600045F22F40C5F6020086422BDC40F2B7401D
:10187000C4F20200864248DC40F27040C4F202002A
:10188000864274D040F28840C4F2020086426ED094
:1018900040F2A040C4F2020067E040F22740C4F2E8
:1018A0000200864240DCA020C4F2020086425ED0E4
:1018B000B820C4F20200864259D040F21040C4F26F
:1018C000020052E045F26B40C5F6020086423CDC65
:1018D00045F23040C5F60200864248D045F2444009
:1018E000C5F60200864242D045F258403BE05820FF
:1018F000C4F2020086423AD07020C4F2020086424E
:1019000035D08820C4F202002FE040F2B840C4F283
:10191000020086422BD045F20840C5F602008642FE
:1019200025D045F21C401EE040F22840C4F20200DF
:1019300086421CD040F24040C4F20200864216D0DB
:1019400040F25840C4F202000FE045F26C40C5F688
:10195000020086420BD045F29440C5F60200864252
:1019600005D045F28040C5F60200864204D1206EC3
:10197000016821F480710160306820F0010030605E
:101980003068C0070BD002F0AFFC401B0628F7D32D
:1019900020206065032084F83500012020E12068C4
:1019A0000821B8424FF03F0210DC6F23C4F202035B
:1019B00098421CDC3F23C4F20203984232DC10231D
:1019C000C4F20203984251D028234AE040451ADC71
:1019D00040F23F43C4F2020398422ADC40F2104333
:1019E000C4F20203984241D040F2284339E09F23D9
:1019F000C4F20203984225DC7023C4F20203984229
:101A000034D088232DE040F29F43C4F20203984271
:101A10001FDC40F27043C4F20203984226D040F229
:101A200088431EE04023C4F2020398421ED058238C
:101A300017E040F24043C4F20203984216D040F24D
:101A400058430EE0A023C4F2020398420ED0B823FC
:101A500007E040F2A043C4F20203984206D040F2ED
:101A6000B843C4F20203984240F0BF80D4E916376D
:101A700007F01F07404502FA07F25A5019DC9F2170
:101A8000C4F20201884231DC5721C4F202018842CB
:101A900056DC1021C4F20201884200F09180282116
:101AA000C4F20201884200F08B804021C4F202019E
:101AB00084E045F22F41C5F6020188422BDC40F25A
:101AC000B741C4F20201884248DC40F27041C4F2DE
:101AD0000201884274D040F28841C4F20201884277
:101AE0006ED040F2A041C4F2020167E040F227410B
:101AF000C4F20201884240DCA021C4F20201884203
:101B00005ED0B821C4F20201884259D040F210419F
:101B1000C4F2020152E045F26B41C5F6020188426F
:101B20003CDC45F23041C5F60201884248D045F21E
:101B30004441C5F60201884242D045F258413BE09B
:101B40005821C4F2020188423AD07021C4F2020145
:101B5000884235D08821C4F202012FE040F2B8411A
:101B6000C4F2020188422BD045F20841C5F60201B9
:101B7000884225D045F21C411EE040F22841C4F2C3
:101B8000020188421CD040F24041C4F20201884266
:101B900016D040F25841C4F202010FE045F26C4108
:101BA000C5F6020188420BD045F29441C5F6020108
:101BB000884205D045F28041C5F6020188420BD12A
:101BC000616EA26EE06E4A6030B1016821F48071EE
:101BD0000160D4E91C014160012084F83500002037
:101BE000002184F83410BDE8F081042101223DE792
:101BF000F0B190F83510022918D180B540F20F42AB
:101C00000168C4F20202914214DC6F23C4F20203A1
:101C1000994224DC3F23C4F2020399423ADC1023A8
:101C2000C4F20203994258D0282352E08021416532
:101C30000120704740F26F43C4F2020399421ADC5C
:101C400040F23F43C4F2020399422ADC40F21043BF
:101C5000C4F20203994240D040F2284339E09F2366
:101C6000C4F20203994225DC7023C4F202039942B4
:101C700033D088232DE040F29F43C4F202039942FF
:101C80001FDC40F27043C4F20203994225D040F2B7
:101C900088431EE04023C4F2020399421DD058231A
:101CA00017E040F24043C4F20203994215D040F2DB
:101CB00058430EE0A023C4F2020399420DD0B8238A
:101CC00007E040F2B843C4F20203994205D040F263
:101CD000A043C4F2020399426ED191424FF0040234
:101CE00080F8352010DC6F20C4F20200814220DC35
:101CF0003F20C4F20200814236DC1020C4F2020010
:101D0000814253D028204EE040F26F40C4F20200DE
:101D100081421ADC40F23F40C4F2020081422ADCD8
:101D200040F21040C4F2020081423FD040F228400D
:101D300039E09F20C4F20200814225DC7020C4F209
:101D40000200814232D088202DE040F29F40C4F250
:101D5000020081421FDC40F27040C4F20200814266
:101D600024D040F288401EE04020C4F202008142AC
:101D70001CD0582017E040F24040C4F202008142DB
:101D800014D040F258400EE0A020C4F2020081427C
:101D90000CD0B82007E040F2B840C4F20200814203
:101DA00004D040F2A040C4F202008142086820F052
:101DB00001000860002080BD0A6822F00E020A605F
:101DC00045F25742C5F6020291420A6822F001022A
:101DD0000A600EDC45F22F42C5F60202914217DC82
:101DE00045F20842C5F60202914226D045F21C4255
:101DF0001FE045F27F42C5F60202914211DC45F236
:101E00005842C5F60202914217D045F26C4210E0EA
:101E100045F23042C5F6020291420ED045F24442EC
:101E200007E045F29442C5F60202914205D045F220
:101E30008042C5F6020291421AD1D0E9181CD0E9BD
:101E400016E30A6822F480720A6003F01F0101227F
:101E500002FA01F1CEF80410816ECCF80410C16EC4
:101E600031B10A6822F480720A60D0E91C124A601B
:101E7000012180F83510016D0022002980F83420FE
:101E800098D08847002080BD2DE9F04381B0002123
:101E9000009140F2040148F2B513C2F20041C1F6CC
:101EA0004E33856D40F26F490A680168C4F2020939
:101EB0002E68A2FB032849452B6815DC9F22C4F23B
:101EC000020291422BDC5722C4F2020291424FDC03
:101ED0001022C4F20202914278D02822C4F20202F7
:101EE000914273D040226CE045F22F42C5F60202C7
:101EF000914227DC40F2B742C4F20202914243DC35
:101F000040F27042C4F2020291425FD040F2884235
:101F1000C4F20202914259D040F2A04251E040F294
:101F20002742C4F2020291423DDCA022C4F2020226
:101F300091424BD0B822C4F20202914246D040F204
:101F400010423EE045F26B42C5F60202914275DC5A
:101F500045F23042C5F60202914200F0828045F21D
:101F60004442C5F6020291427BD045F2584273E0EA
:101F70005822C4F20202914228D07022C4F2020216
:101F8000914223D088221CE040F2B842C4F20202FF
:101F900091421BD045F20842C5F60202914260D040
:101FA00045F21C4258E040F22842C4F2020291423B
:101FB0000CD040F24042C4F20202914206D040F2FC
:101FC0005842C4F20202914240F02D84C26D0823AF
:101FD00002F01F029340334200F0168140F20F449A
:101FE000C4F20204A1424FF0040413DC6F27C4F2D0
:101FF0000207B94200F391803F27C4F20207B942B9
:1020000000F3D2801027C4F20207B94200F0F0803A
:102010002827E8E0494500F38C8040F23F47C4F2AE
:102020000207B94200F3C78040F21047C4F202072A
:10203000B94200F0DD8040F22847D4E045F26C421E
:10204000C5F6020291420CD045F28042C5F602026A
:10205000914206D045F29442C5F60202914240F008
:10206000E2830E68C26D02F01F02042707FA02F431
:102070001C4218BF16F004072CD1022707FA02F4FD
:102080001C4218BF16F0020762D1D3401B0740F173
:10209000CA8316F0080300F0C68340F20F43C4F26F
:1020A000020399426FF01C0300F318836F27C4F2F8
:1020B0000207B94200F354833F27C4F20207B94232
:1020C00000F3B4831027C4F20207B94200F0D383AF
:1020D0002827CAE332046C605ED4B20600F1A18303
:1020E00040F20F42C4F2020291426FF0080200F384
:1020F000E3826F23C4F20203994200F302833F2379
:10210000C4F20203994200F347831023C4F202038E
:10211000994200F0838328237AE39F27C4F20207C1
:10212000B94251DC7027C4F20207B94260D0882757
:1021300059E040F29F47C4F20207B9424BDC40F23B
:102140007047C4F20207B94252D040F288474AE0D1
:1021500032046C6000F19C82B20600F1CF8340F241
:102160000F42C4F2020291426FF0140200F3D682D1
:102170006F23C4F20203994200F315833F23C4F294
:102180000203994200F38C831023C4F202039942A4
:1021900000F0AB832823A2E3F10300F14283816CBA
:1021A000002940F079833EE34027C4F20207B94298
:1021B0001ED0582717E040F24047C4F20207B94248
:1021C00016D040F258470EE0A027C4F20207B942E9
:1021D0000ED0B82707E040F2A047C4F20207B94288
:1021E00006D040F2B847C4F20207B94218BF08242B
:1021F0000F68274208D00F6827F004070F60AB6014
:10220000436D43F0010343650123934033426FD094
:1022100040F20F47C4F20207B94210DC6F27C4F244
:102220000207B9421CDC3F27C4F20207B94232DC84
:102230001027C4F20207B94251D028274AE0494585
:102240001ADC40F23F47C4F20207B9422ADC40F2EE
:102250001047C4F20207B94241D040F2284739E0A2
:102260009F27C4F20207B94225DC7027C4F2020797
:10227000B94234D088272DE040F29F47C4F20207CC
:10228000B9421FDC40F27047C4F20207B94226D0BF
:1022900040F288471EE04027C4F20207B9421ED030
:1022A000582717E040F24047C4F20207B94216D05F
:1022B00040F258470EE0A027C4F20207B9420ED000
:1022C000B82707E040F2B847C4F20207B94206D087
:1022D00040F2A047C4F20207B94240F0E1814F69E1
:1022E00007F0800424B1AB60436D43F00203436503
:1022F0000423934033426FD040F20F47C4F20207E9
:10230000B94210DC6F27C4F20207B9421CDC3F2738
:10231000C4F20207B94232DC1027C4F20207B94204
:1023200051D028274AE049451ADC40F23F47C4F221
:102330000207B9422ADC40F21047C4F20207B94250
:1023400041D040F2284739E09F27C4F20207B94242
:1023500025DC7027C4F20207B94234D088272DE06B
:1023600040F29F47C4F20207B9421FDC40F27047B7
:10237000C4F20207B94226D040F288471EE0402747
:10238000C4F20207B9421ED0582717E040F2404776
:10239000C4F20207B94216D040F258470EE0A02717
:1023A000C4F20207B9420ED0B82707E040F2B8479E
:1023B000C4F20207B94206D040F2A047C4F20207B5
:1023C000B94240F073810F6807F0020424B1AB609A
:1023D000436D43F004034365102303FA02F23242D3
:1023E0007ED040F20F43C4F2020399424FF008033B
:1023F00010DC6F27C4F20207B9421CDC3F27C4F28D
:102400000207B94232DC1027C4F20207B94251D0A8
:1024100028274AE049451ADC40F23F47C4F2020748
:10242000B9422ADC40F21047C4F20207B94241D057
:1024300040F2284739E09F27C4F20207B94225DC61
:102440007027C4F20207B94234D088272DE040F249
:102450009F47C4F20207B9421FDC40F27047C4F242
:102460000207B94226D040F288471EE04027C4F256
:102470000207B9421ED0582717E040F24047C4F285
:102480000207B94216D040F258470EE0A027C4F226
:102490000207B9420ED0B82707E040F2A047C4F2C5
:1024A0000207B94206D040F2B847C4F20207B94267
:1024B00018BF04230F681F4212D0AA600A68520393
:1024C0000A6806D4D20506D40A6822F008020A6017
:1024D00001E0110352D4016C11B104468847204633
:1024E000C16D01F01F02202101FA02F3334200F016
:1024F000A68040F20F470168C4F202071026B942D5
:1025000010DC6F27C4F20207B9421CDC3F27C4F27B
:102510000207B94236DC1027C4F20207B94255D08F
:1025200028274EE049451ADC40F23F47C4F2020733
:10253000B9422EDC40F21047C4F20207B94245D03E
:1025400040F228473DE09F27C4F20207B94229DC48
:102550007027C4F20207B94238D0882731E040F230
:102560009F47C4F20207B94223DC40F27047C4F22D
:102570000207B9422AD040F2884722E0816C002944
:10258000ABD1ADE74027C4F20207B9421ED05827AD
:1025900017E040F24047C4F20207B94216D040F2B9
:1025A00058470EE0A027C4F20207B9420ED0B82760
:1025B00007E040F2A047C4F20207B94206D040F259
:1025C000B847C4F20207B94218BF02260F68374263
:1025D00035D0AB6090F83530042B0B6816D123F062
:1025E00016030B604B6923F080034B61036C0BB93E
:1025F000836C1BB10B6823F008030B603F219140F3
:10260000A960012180F83510016D3FE15A030A6885
:102610000CD4D2050ED40A6822F010020A600121FF
:1026200080F83510002180F8341003E0110301D444
:10263000416C00E0C16B11B1044688472046416DF2
:10264000002900F0F080416DC9071CD0042180F8FA
:10265000351001684FEA98220B6823F001030B60E4
:10266000009B01330093934202D80B68DB07F7D13C
:102670000968C9074FF0030108BF012180F8351030
:10268000002180F83410C16C002940F00581CAE0B7
:10269000F10300F13381416C002940F0FD80C2E07C
:1026A00000240F68002C7FF41EAE21E600240F6882
:1026B000002C7FF48CAE8FE6494542DC40F23F436C
:1026C000C4F2020399427CDC40F21043C4F20203DC
:1026D000994200F0A38040F2284399E049454CDC40
:1026E00040F23F47C4F20207B94200F3A68040F22D
:1026F0001047C4F20207B94200F0BD8040F22847FB
:10270000B3E09F23C4F20203994263DC7023C4F256
:102710000203994200F08280882379E0494560DC19
:1027200040F23F43C4F20203994200F3C08040F2FA
:102730001043C4F20203994200F0D78040F22843CC
:10274000CDE040F29F43C4F20203994258DC40F2CC
:102750007043C4F20203994260D040F2884357E0CC
:102760009F27C4F20207B94270DC7027C4F2020747
:10277000B94200F08080882777E040F29F47C4F29A
:102780000207B94269DC40F27047C4F20207B9425D
:1027900071D040F2884768E04023C4F202039942B6
:1027A0003CD0582334E09F23C4F20203994200F343
:1027B00087807023C4F20203994200F09680882338
:1027C0008DE040F24043C4F20203994226D040F229
:1027D00058431DE0A023C4F2020399421ED0B8233F
:1027E00016E040F29F43C4F2020399426FDC40F2CC
:1027F0007043C4F20203994277D040F288436EE0FE
:1028000040F2A043C4F20203994207D040F2B84319
:10281000C4F20203994218BF6FF004020B681A4019
:102820000A60016CC1BB01B0BDE8F0834027C4F26F
:102830000207B9421FD0582717E040F24047C4F2C0
:102840000207B94217D040F258470EE0A027C4F261
:102850000207B9420FD0B82707E040F2A047C4F200
:102860000207B94207D040F2B847C4F20207B942A2
:1028700018BF6FF00E030F683B400B60012101FA97
:1028800002F26A60416580F83510C16C00294FF092
:10289000000280F83420C6D001B0BDE8F0430847FC
:1028A0004023C4F2020399421FD0582317E040F29C
:1028B0004043C4F20203994217D040F258430EE05D
:1028C000A023C4F2020399420FD0B82307E040F2DC
:1028D000A043C4F20203994207D040F2B843C4F2C5
:1028E0000203994218BF6FF00A020B681A400A608F
:1028F000012180F83510002180F83410C16B0029C7
:10290000CAD190E7000000002DE9F041044601F033
:10291000EBFCECB140F26F4805462068C4F20208B7
:10292000404518DC9F21C4F2020188422EDC572169
:10293000C4F20201884254DC1021C4F20201884230
:102940007ED02821C4F20201884279D0402172E071
:102950000120BDE8F08145F22F41C5F60201884211
:1029600027DC40F2B741C4F20201884245DC40F264
:102970007041C4F20201884262D040F28841C4F240
:10298000020188425CD040F2A04154E040F227416D
:10299000C4F20201884240DCA021C4F20201884254
:1029A0004ED0B821C4F20201884249D040F2104111
:1029B00041E045F26B41C5F60201884200F3B88060
:1029C00045F23041C5F60201884200F0C38045F26D
:1029D0004441C5F60201884200F0BC8045F25841EE
:1029E000B4E05821C4F20201884229D07021C4F217
:1029F0000201884224D088211DE040F2B841C4F28F
:102A0000020188421CD045F20841C5F60201884205
:102A100000F0A08045F21C4198E040F22841C4F249
:102A2000020188420CD040F24041C4F202018842C7
:102A300006D040F25841C4F20201884240F0CE80F4
:102A4000022184F83510002184F83410016821F047
:102A50000101016020680168C9070CD001F044FC45
:102A6000401B0628F6D320206065032084F835003B
:102A70000120BDE8F08148F23F0204F10807016837
:102A8000CFF61062114066698CCF1143D4F818C09C
:102A90001943E3693943276A0E43616A33430429C2
:102AA00043EA070343EA0C0303D1D4E90B76374327
:102AB0003B436568A5F12906292E00F2A180012774
:102AC000DFE806F01515151515159E9E9E9E9E9E17
:102AD0009E9E9E9E9E9E9E9E9E9E151515159E9E3A
:102AE0009E9E15159E9E9E9E9E9E15151515002F49
:102AF00018BF43F4801304290360426922F00702DF
:102B000041EA020140F09080D4E90A53002B41EAE7
:102B1000050100F08980BCF5005F61D0BCF1000FB9
:102B20006AD1022D74D0012D60D0002D70D072E0DA
:102B300045F26C41C5F6020188420BD045F2804156
:102B4000C5F60201884205D045F29441C5F602015E
:102B5000884243D104F1080E022184F83510002187
:102B600084F834100168A3699EE80450A2F180053E
:102B7000E769B5FA85F566696D09402A4FEA85353A
:102B800043EA07026FF3101142EA060208BF10255C
:102B900041EADC0142EA0E022943236A41EAD201FA
:102BA0004AF6F832CAF2FD724CF6CD470244CCF632
:102BB000CC4741EA1311A2FB072301606FF0030029
:102BC00000EA9300E0652046FDF77AFEE16D012200
:102BD00001F01F0102FA01F1416030E0402043E7BB
:102BE000032D18D8DFE805F00A140A02A3F1C07219
:102BF000B2FA82F252090FE0032D08D201220BE053
:102C000025F00302743AB2FA82F257096FE702D153
:102C1000C3F3006200E0002232B140206065012071
:102C200084F83500BDE8F08141612046FDF748FE9B
:102C3000E16D3F2201F01F0102FA01F1816020687D
:102C4000404519DC9F21C4F20201884231DC572142
:102C5000C4F20201884256DC1021C4F2020188420B
:102C600000F092802821C4F20201884200F08C809A
:102C70004021C4F2020184E045F22F41C5F6020171
:102C800088422BDC40F2B741C4F20201884248DCA2
:102C900040F27041C4F20201884275D040F288418E
:102CA000C4F2020188426FD040F2A041C4F2020196
:102CB00067E040F22741C4F20201884240DCA021D3
:102CC000C4F2020188425FD0B821C4F202018842F6
:102CD0005AD040F21041C4F2020152E045F26B4179
:102CE000C5F6020188423CDC45F23041C5F60201DE
:102CF000884249D045F24441C5F60201884243D09A
:102D000045F258413BE05821C4F2020188423BD0D1
:102D10007021C4F20201884236D08821C4F2020137
:102D20002FE040F2B841C4F2020188422CD045F2B3
:102D30000841C5F60201884226D045F21C411EE03A
:102D400040F22841C4F2020188421DD040F24041C5
:102D5000C4F20201884217D040F25841C4F2020185
:102D60000FE045F26C41C5F6020188420CD045F2F5
:102D70009441C5F60201884206D045F28041C5F66D
:102D80000201884240F0D08045F2574C45F6FC0ED7
:102D9000C5F6020CC5F6020E60450EDC45F22F4367
:102DA000C5F60203984217DC45F20843C5F6020354
:102DB000984226D045F21C431FE045F27F43C5F6FA
:102DC0000203984211DC45F25843C5F602039842CB
:102DD00017D045F26C4310E045F23043C5F60203CC
:102DE00098420ED045F2444307E045F29443C5F6BD
:102DF0000203984205D045F28043C5F6020398428B
:102E000050D100F0FC034CF6CD47083BCCF6CC4744
:102E1000A3FB0737AEF1FC05AEF17C063B0905EBE1
:102E200083022266A26803F01F030127802A6666D8
:102E300007FA03F2A26601D1002262606368A56E00
:102E4000D4E91826DFB2591E07291760756015D816
:102E50007E1E072E62D860450EF1440213DC45F257
:102E60002F41C5F6020188423CDC45F20841C5F617
:102E7000020188424BD045F21C4144E000206067CB
:102E8000C4E91B0050E045F27F41C5F602018842CB
:102E900031DC45F25841C5F60201884237D045F28F
:102EA0006C4130E000F0F8034AF6AB27103BCAF65D
:102EB000AA27A3FB073740F20F43C4F202030825F9
:102EC0003E09984203F1AA02334688BF05EB171367
:102ED00040F600059042C4F2020528BF334605F1D2
:102EE00080069CE745F23041C5F6020188420ED0CB
:102EF00045F2444107E045F28041C5F602018842AF
:102F000005D045F29441C5F60201884213D10EEB7B
:102F10008300E06601202267B040606704F16C0224
:102F2000002307CA03604A6000206065012184F81D
:102F30003510BDE8F08140F60000C4F2020000F157
:102F4000FC0E00F5A072E2E730B110B590F8344005
:102F5000012C03D1022010BD01207047012480F80C
:102F6000344090F83540012C2BD1022480F83540B4
:102F700000244465D0F800C0DCF8004024F00104CF
:102F8000CCF800400446FDF727FD40F20F4C2068C6
:102F9000C4F2020C40F26F416045C4F2020118DC39
:102FA0006F23C4F20203984224DC3F23C4F20203DD
:102FB00098423ADC1023C4F20203984259D02823E5
:102FC00052E04FF400614165002180F83410012087
:102FD00010BD88421ADC40F23F43C4F2020398421B
:102FE0002ADC40F21043C4F20203984241D040F27E
:102FF000284339E09F23C4F20203984225DC702362
:10300000C4F20203984234D088232DE040F29F435B
:10301000C4F2020398421FDC40F27043C4F2020380
:10302000984226D040F288431EE04023C4F20203B7
:1030300098421ED0582317E040F24043C4F20203E6
:10304000984216D040F258430EE0A023C4F2020387
:1030500098420ED0B82307E040F2B843C4F202030E
:10306000984206D040F2A043C4F20203984240F0D6
:10307000238103680B2262F344030360226C1AB1BC
:10308000082302681A430260884219DC9F22C4F2B6
:103090000202904231DC5722C4F20202904256DC16
:1030A0001022C4F20202904200F091802822C4F261
:1030B0000202904200F08B804022C4F2020284E0BF
:1030C00045F22F42C5F6020290422BDC40F2B74295
:1030D000C4F20202904248DC40F27042C4F20202A2
:1030E000904274D040F28842C4F2020290426ED004
:1030F00040F2A042C4F2020267E040F22742C4F26A
:103100000202904240DCA022C4F2020290425ED051
:10311000B822C4F20202904259D040F21042C4F2E6
:10312000020252E045F26B42C5F6020290423CDCDC
:1031300045F23042C5F60202904248D045F2444280
:10314000C5F60202904242D045F258423BE0582276
:10315000C4F2020290423AD07022C4F202029042BB
:1031600035D08822C4F202022FE040F2B842C4F205
:10317000020290422BD045F20842C5F6020290426C
:1031800025D045F21C421EE040F22842C4F2020261
:1031900090421CD040F24042C4F20202904216D04B
:1031A00040F25842C4F202020FE045F26C42C5F60A
:1031B000020290420BD045F29442C5F602029042C0
:1031C00005D045F28042C5F6020290426ED1236ED0
:1031D0001A68D20303D51A6842F480721A60E36E4B
:1031E0001BB11A6842F480721A60604510DC6F21CE
:1031F000C4F2020188421CDC3F21C4F20201884271
:1032000032DC1021C4F2020188424FD028214AE06A
:1032100088421ADC40F23F41C4F2020188422ADCB3
:1032200040F21041C4F2020188423FD040F22841EE
:1032300039E09F21C4F20201884225DC7021C4F2EA
:103240000201884232D088212DE040F29F41C4F231
:10325000020188421FDC40F27041C4F20201884240
:1032600024D040F288411EE04021C4F2020188428D
:103270001CD0582117E040F24041C4F202018842BC
:1032800014D040F258410EE0A021C4F2020188425D
:103290000CD0B82107E040F2B841C4F202018842E4
:1032A00004D040F2A041C4F202018842016841F01A
:1032B00001010160002010BD0268052363F3430291
:1032C0000260226C002A3FF4DFAE0423D9E600003E
:1032D000B0B5044601F008F840F20C010546C2F210
:1032E0000041621C097818BF0C4400BF00F0FCFFCD
:1032F000401BA042FAD3B0BD90F89830013B012B9F
:103300000BD80068836D0B420CD0836D0B408B4251
:103310000CD1C36D43F0020309E000F19C010120D0
:10332000022221E0C36D43F0010300E00323C365E3
:103330008B0504D5D0F8E0301343C0F8E0304B05DE
:1033400004D5D0F8E4301A43C0F8E4204FF6FF72F9
:10335000436DC3F6CF720A401A4342658A0F4AF69C
:1033600014010020C4F200010B681A430A60704780
:10337000704700000000000090F89820013A012AF0
:103380000BD880B50A68002ACA680ED00B69072AD4
:1033900043EA427E16D18B6919E0D0F89C1041F0C7
:1033A0000201C0F89C1001207047072A18D10A6951
:1033B000D1E906C3120442EA032242EA0C0242F0B7
:1033C000605217E0D1F808C04B6943EA8C73006F74
:1033D000496800EBC10240F831E05360002080BD35
:1033E0008B68D1E904CE9B0743EAC26242EA0C42F1
:1033F00042EA0E024968C06E40F82120002080BDDC
:1034000090F898C0BCF1010F0DD19200006842EA1B
:103410000111DDF800C041EA430141EA0C01C0F8A6
:10342000801000207047D0F89C1041F00401C0F8D3
:103430009C1001207047000090F89830012B05D1B6
:10344000006842EA0121816400207047D0F89C1096
:1034500041F00401C0F89C100120704700000000FA
:1034600090F89810012906D100684FF4000200F18D
:103470000C01002003E000F19C01012004220B68F4
:103480001A430A6070470000704700000000000007
:103490007047000000000000B422402908BFA422A9
:1034A0000068805800F07F007047000000000000B6
:1034B00070B590F89850022D1CD140291FD1056895
:1034C000D5F8A04014F4FE0F00F08F80D5F8A4408A
:1034D000640600F09680D5F8A440E40148BFD5F812
:1034E000A040D5F8A45000F17404C5F3052E456C36
:1034F000F44629E0D0F89C1041F0080185E041290C
:1035000018D10568D5F8B04014F4FE0F6DD0D5F889
:10351000B440640675D0D5F8B440E40148BFD5F88E
:10352000B040D5F8B45000F17804C5F3052EC56C51
:10353000F44609E0056DA94257D200F17C04D0F8A9
:1035400054E04FF0000C0D4605FB0EF6246854F8CD
:10355000265015F08045556054F826E02EF0604561
:1035600008BFCEF38A4504EB860E156054F826504A
:1035700005F00055956054F8264004F000441461AD
:10358000BEF80440D461DEF8044004F47024D46032
:10359000DEF80450B4F5803F05F480155561DEF87F
:1035A000045005F4001595619EF8075005F07F055D
:1035B0001562DEF804504FEAD57454620ED30EF152
:1035C00008054BF2080E0024C0F6000E2E5D1E55B5
:1035D0000134D6891EF80660B442F7D3402909D1D8
:1035E0000068C0F8A8C0002070BDD0F89C1041F061
:1035F00020010AE041290CD10068C0F8B8C00020C1
:1036000070BDD0F89C1041F48071C0F89C1001206E
:1036100070BD1F2907D80068012202FA01F1C0F825
:103620009810002070BD006801F01F01012202FA0D
:1036300001F1C0F89C10002070BD000000000000E7
:1036400070470000000000002DE9F04F87B00446ED
:103650004AF61000C4F2000001684AF61400C4F2F1
:103660000000026820680A40D0F850B0D0F85490AA
:10367000056D466D036D0293436D0193036D0693D3
:10368000436D0593036D0493436D0393D0F854A0E9
:10369000D0F850805FEACA5310D518F480710DD06D
:1036A0004FF4807101654AF610010020C4F2000158
:1036B000174608602046FFF7C3FF3A460BEA090B9E
:1036C0004AF610095FEA4A50C4F200094FEA8277CD
:1036D0001AD518F4806017D020689146D0F8DC1015
:1036E000D0F8E42011404FF4806202654AF61002DF
:1036F000C4F2000200201060204600F001FD4A469E
:103700004AF61009C4F2000905EA06050BF47046F2
:1037100057B120680021016502F00300C9F80000DC
:1037200020463946FFF724FEDDE9011000EA0107D3
:1037300005F00F0546B12068314606650020C9F83E
:103740000000204600F0E4FC07F0F00645B12068D8
:10375000294605650020C9F80000204600F0E4FB7A
:1037600046B12068314606650020C9F800002046B1
:1037700000F03AFC5FEA0A500CD518F4006009D05A
:1037800020684FF4006101650020C9F80000204660
:1037900000F0C2FC5FEA8A5011D518F400700ED018
:1037A0002068D0F8D810D0F8E02011404FF4007213
:1037B00002650020C9F80000204600F0A5FC5FEA81
:1037C0000A300CD518F4002009D020684FF40021ED
:1037D00001650020C9F80000204600F0A1FB5FEA67
:1037E000CA300CD518F4803009D020684FF48031ED
:1037F00001650020C9F80000204600F07DFC5FEA6A
:103800004A30DDE9031000EA01050CD518F48020E8
:1038100009D020684FF4802101650020C9F800001C
:10382000204600F065FC5FEA8A30DDE9051000EA19
:10383000010005F060710FD518F400320CD0226839
:103840004FF4003313650022C9F80020D4F89C20FF
:1038500042F08002C4F89C2000F0715539B1206814
:1038600001650020C9F800002046FFF711FE4DB1A8
:10387000206805650020C9F80000D4F89C002843A2
:10388000C4F89C002068A9F50161884209D0D4F8E9
:103890009C00002868D0204607B0BDE8F04FFFF735
:1038A000F3BD606881688907F1D0016A426A036AE2
:1038B000476A114003EA070202F03005D0F8208081
:1038C000D0F82490D0F820B0466A026A069211F02F
:1038D0000F01426A0592D0F824A0026A049203D034
:1038E0000162204600F0F8FB08EA09072DB1606884
:1038F00029460562204600F0F7FB5FEA4A6006EAC7
:103900000B0607F4C0750ED5049810F040000AD0DD
:1039100060684023C16BC26B090C02F03F02036276
:10392000204600F0DDFBDDE9051000EA010706F4A2
:10393000FC462DB1606829460562204600F0C8FBB0
:1039400007F4F02036B161680E62D4F89C10314360
:10395000C4F89C1000289AD061680862D4F89C10C2
:103960000843C4F89C0092E707B0BDE8F08F000060
:1039700040B32DE9F04F83B04AF200080446C4F288
:1039800000080068404502D108F58070606094F836
:10399000980028B9002084F89900204600F0CCF95E
:1039A0002068816921F01001816100F09DFC0546CD
:1039B00020688169090707D500F096FC401B0B2899
:1039C000F6D312E001207047816941F00101816165
:1039D00000F08AFC054600BF20688169C90711D143
:1039E00000F082FC401B0B28F6D30120D4F89C1079
:1039F0000843C4F89C00032084F89800012003B019
:103A0000BDE8F08F816941F002018161217C82690A
:103A100022F04002012918BF40328261617C826934
:103A200022F48042012908BF02F580428261A17C14
:103A3000826922F48052012918BF02F58052826106
:103A4000816921F44073D4E902120B4383618369D5
:103A500023F0A4038361036923F0100303619AB187
:103A6000012A0DD0022A09D08369032A43F080037A
:103A70008361036943F01002026105D1202200E056
:103A8000042283691A438261D4E90572E369561EF0
:103A90006FF0FF02256A02EB0323B1F5407F43EA92
:103AA0004663A5F1010646EA030640F20003CFF69D
:103AB000FF7303EB074746EA0701C16110D1D4E960
:103AC0000B65D4E90917013F02EB06226FF00F06E0
:103AD0003A4306EB05173A4303EB01411143C1603A
:103AE000236E2BB1616ED0F8C0201143C0F8C01016
:103AF000E16DCDE90113D9424AF65871C0F60001D3
:103B000009D0D0F8C820A36E22F0070251F8233064
:103B10001A43C0F8C820D4F840C0BCF1000F09D047
:103B2000D0F8BC20636C22F0070251F823301A430E
:103B3000C0F8BC20D4F848B0BBF1000F0AD0D0F8D0
:103B4000BC20E36C22F0700251F8233042EA0312E9
:103B5000C0F8BC20D4F850A0BAF1000F0AD0D0F8B9
:103B6000BC20636D22F4E06251F8231042EA012187
:103B7000C0F8BC10404504D161688A6822F0030295
:103B80008A600021C4F89410C4F89C10012184F8C4
:103B9000981004F13409D0F884104FF6FC72914368
:103BA000656C99E80C02009541EA8201C0F8841026
:103BB000D0F8841021F47F0141EA0341C0F8841059
:103BC0009918D0F888306FF38F0343EA8103C0F867
:103BD0008830D0F8883023F4FE0343EA0943C0F864
:103BE000883001EB4903D0F8A0606FF38F0646EAF6
:103BF0008306C0F8A060D0F8A06026F4FE0646EA6E
:103C00000C46C0F8A06005FB0C36D0F8B0306FF35E
:103C10008F0343EA8603C0F8B030D0F8B03023F405
:103C2000FE0343EA0B43C0F8B030E36CD0F8AC506D
:103C30006FF38F0503FB0B6645EA8605C0F8AC50B1
:103C4000D4F8548008FB0A65D0F8F0606FF38F0653
:103C500046EA8506C0F8F060D0F8F0E0A66D2EF4D4
:103C60007C1747EA0647C0F8F070F70007EB8507B6
:103C7000D0F8C0506FF38F052F43C0F8C070D0F854
:103C8000C070009DDDF804E027F47C1705FB0CFCF8
:103C90004AF2000547EA0E47C0F8C070C4F20005BA
:103CA00003FB0BC305F54067D0F8C05007EB820259
:103CB00007EB810125F07C57029D47EA0567C0F8B4
:103CC000C07001EBC90008FB0A372167A16E00EB49
:103CD0008C0C606700EB8303E266C4E91EC30EFB35
:103CE00001F300EB87006943C4F8800000EBC600D5
:103CF000C4F8840000EB8300C4F8880000EB810066
:103D00004DF2FC31C4F20001C4F89000884201D9A0
:103D100020206BE6824208D2002000BF42F8040B4C
:103D2000D4F890108A42F9D369E6002003B0BDE8C8
:103D3000F08F000000000000B0B5B6B0044602A845
:103D4000B8210025CDE93455CDE932553195FCF740
:103D500023FB4DF200412068C4F20001884200F0CC
:103D60009C804AF20041C4F2000188424BD04AF2E2
:103D70000001C4F20001884240F0CD800020039091
:103D80004FF4004002904FF080501D9002A801F0C7
:103D900083FA08B1FCF7A0FF40F2400144F2E04092
:103DA000C2F20041C5F602000A68002A02F10102CF
:103DB0000A6008D1C16841F48071C160C16801F432
:103DC000807101910199016841F00801016000686A
:103DD00031A900F0080001900198032031900220E1
:103DE00032900020CDE933000920359040F60040A4
:103DF000C5F6020000F094F913200021002200F023
:103E0000FBFB132045E0002003904FF4004002909C
:103E10004FF080501D9002A801F03EFA08B1FCF767
:103E20005BFF40F2400144F2E040C2F20041C5F6BF
:103E300002000A68002A02F101020A6008D1C16882
:103E400041F48071C160C16801F4807101910199F0
:103E5000016841F002010160006840F6004100F095
:103E600002000190C5F60201019860203190022005
:103E700032900020CDE9330009203590A1F5006093
:103E800031A900F04DF914200021002200F0B4FB0C
:103E9000142000F09DFB36B0B0BD4FF400400290FE
:103EA0004FF080501D9002A8039501F0F5F908B17C
:103EB000FCF712FF40F2400144F2E040C2F2004140
:103EC000C5F602000A68002A02F101020A6008D160
:103ED000C16841F48071C160C16801F480710191D1
:103EE0000199016841F008010160006831A900F002
:103EF0000800019001984FF4405031900220329018
:103F00000020CDE933000520359040F60040C5F68D
:103F1000020000F005F936B0B0BD0000000000005E
:103F20007047000000000000C90708BF70472DE976
:103F3000F0474AF2000104460068C4F200018842DA
:103F400002D0BDE8F047704740F6E8654021C2F274
:103F500000452846FCF720FA41F2A8004021C2F2B1
:103F60000040FFF799FA0028EBD040F2440640F2F7
:103F7000940A41F2A8094BF26918C2F20046C2F253
:103F8000004AC2F20049C0F6000808E0404606F0C8
:103F900069FB40214846FFF77FFA0028D1D0402135
:103FA000204632462B46FFF783FA402120463768E9
:103FB000FFF772FA024601203946FCF795FE326897
:103FC0002878A2F11101002A08BF00F00F0107298B
:103FD000DCD8C1EBC100F26829460AEB401005F0BD
:103FE000EFFED6E700000000C90658BF70472DE974
:103FF000F04381B04AF2004104460068C4F2000177
:10400000884203D001B0BDE8F043704740F6287500
:104010004021C2F200452846FCF7BEF941F24810A3
:104020004121C2F20040FFF737FA0028EAD040F2FF
:104030006C0640F2987941F248174BF26918C2F2C7
:104040000046C2F20049C2F20047C0F6000808E08C
:10405000404606F007FB41213846FFF71DFA0028CD
:10406000D0D04121204632462B46FFF721FA326854
:104070002878A2F11101002A08BF00F00F010729DA
:10408000E6D8C1EBC100F268294609EB401005F003
:1040900097FEE0E70000000090F8981001290CD18D
:1040A000022180F8981001688A6922F001028A6171
:1040B0000021C0F89C1000207047D0F89C1041F0FF
:1040C0000401C0F89C1001207047000000000000AF
:1040D0007047000000000000704700000000000072
:1040E0007047000000000000704700000000000062
:1040F0007047000000000000704700000000000052
:104100007047000000000000704700000000000041
:104110007047000000000000704700000000000031
:104120002DE9F04F83B00E68002E00F0C78000F13B
:10413000264742F2004507F1FF77C5F602050A223D
:10414000A8424FEAB72500F1200308BF09220093D7
:10415000082D38BF4FEAB722002400274FF0000A8D
:1041600001920AE00AF1010A0E6836FA0AF207F132
:10417000020704F1040400F0A180012202FA0AFB04
:1041800016EA0B08EED0D1F80490032209F0030ED2
:10419000AEF10106012E02FA07F610D8D0F808C0D9
:1041A000CD682CEA0602BD402A438260C9F300159F
:1041B000426822EA0B0205FA0AF52A434260BEF180
:1041C000030F1FD0C2688D68B243BD40BEF1020F1D
:1041D00042EA0502C26015D16FF00302009D02EAB7
:1041E0005A0B04F01C030F2255F80BC002FA03FE11
:1041F000D1F810902CEA0E0C09FA03F343EA0C03F1
:1042000045F80B3002684B68B24303F00306BE402A
:1042100013F4403F42EA06020260A3D044F2F443A2
:1042200040F2084CC5F60203C5F6000C0F251A68CB
:1042300042F002021A601A6802F0020202922AF0A8
:104240000302029B04F00C0352F80C609D40AE4345
:10425000019D05FA03F3334342F80C304FF0B04CA4
:10426000DCF800204B6842EA0806DD0258BF22EA6B
:1042700008069D02CCF8006040F2040CC5F6000C64
:10428000DCF8002042EA080658BF22EA08069D032F
:10429000CCF80060DCF8802042EA080658BF22EA29
:1042A0000806DB03CCF88060DCF87C2042EA0806D4
:1042B00058BF22EA0806CCF87C6053E703B0BDE89B
:1042C000F08F0000000000000069084018BF0120C6
:1042D0007047000000000000002A08BF0904816147
:1042E000704700000000000042F2F020C2F20040DF
:1042F000006870470000000090F84120202A03D198
:1043000090F84020012A01D102207047242280F831
:1043100041200268136823F001031360136823F43B
:1043200080531360136819431160116841F0010153
:104330001160202180F84110002180F840100020F9
:10434000704700000000000090F84120202A03D1AF
:1043500090F84020012A01D102207047242280F8E1
:1043600041200268136823F001031360136823F4EB
:10437000706343EA01211160116841F0010111608D
:10438000202180F84110002180F840100020704763
:1043900000284DD010B590F8411031B9002180F8B7
:1043A0004010044600F048F82046242180F84110CF
:1043B00090E80610C46822F070620B68012C23F0AC
:1043C00001030B600A614FF404438A6808BF4FF48D
:1043D0000043022C22F400428A604CEA03028A6005
:1043E00002D14FF400624A604A6800F1100C42F0BA
:1043F000007242F400424A60CA6822F40042CA6075
:104400009CE81C101A4342EA0422CA60026A42EA8B
:104410000C020A600A6842F001020A60002141644D
:10442000202280F84120016380F84210002010BD56
:104430000120704700000000B0B5B6B0044602A8E5
:10444000B8210025CDE93455CDE932553195FBF73A
:10445000A3FF45F200412068C4F20001884201D068
:1044600036B0B0BD0820029002A80395229500F056
:1044700013FF08B1FCF730FC44F2E04431A9C5F663
:104480000204206840F002002060206800F0020072
:10449000019001984FF44070319012203290012029
:1044A0003390002034900420359040F20040C5F64F
:1044B0000200FFF735FEA06840F40010A060A0687D
:1044C00000F400100190019836B0B0BD000000006B
:1044D00040F20C0042F2F021C2F20040C2F2004170
:1044E00000780A681044086070470000000000006F
:1044F00080B5032000F0B0F801F032FD44F218411D
:104500004AF6C873C5F60201C0F600030A68C2F392
:1045100003229A5C096801F00F0102F01F02595C46
:10452000D04040F20802C2F2004201F01F0120FA1E
:1045300001F1116040F20401C2F200410860002064
:1045400000F00AF800281CBF012080BD00F030F800
:10455000002080BD0000000040F20C01C2F20041CA
:10456000097819B310B5044640F20400C2F20040C5
:104570004FF47A72B2FBF1F10068B0FBF1F002F097
:10458000AFFA0F2C01464FF001000ED8002918BFDA
:1045900010BD4FF0FF300022214600F02DF840F210
:1045A00010010020C2F200410C6010BD01207047D4
:1045B00081B044F2F440C5F60200016841F0020106
:1045C0000160006800F002000090009801B07047A0
:1045D000002848BF704700F01F01012202FA01F1D4
:1045E0004EF20012C0F34A10CEF2000242F8201040
:1045F000704700000000000070B54EF60C5C4FF0F4
:10460000FF36CEF2000C00F1604505F56445DCF89C
:104610000030C3F3022E8EF00703042B28BF0423BF
:10462000BEF1030406FA03F321EA030100F00F03CD
:1046300038BF0024043B0028634406FA04F048BF56
:1046400003F10C05A14022EA000008430001287094
:1046500070BD0000000000004EF60C514FF6FF0345
:10466000CEF200010A681A4060F30A2242F080602C
:1046700040F0FD70086070472DE9F0478CB04BF2B8
:10468000044A0123C5F2002AC0F20013D0F80080CA
:104690004FF0000CE946002503E000BF002D7546F1
:1046A00056D105EB450705F1010EBEF1020F4FF0A3
:1046B000000409EBC70049F837C0C0F804C0C0E9DE
:1046C00002CCC0F810C009D15AF8044CE4074FF4EA
:1046D000007404BF40F22224C0F20444002602E029
:1046E0000136012EDAD15AF82670FA0705D087EA8A
:1046F0000402920701D4721C0260FA0605D587EA0B
:104700000402920601D4721C4260FA0505D587EABC
:104710000402920501D4721C8260FA030AD587EA6A
:104720000402520306D4BA031A4658BF4FF00112CE
:104730003244C260FA01D3D587EA04025201CFD4D1
:10474000BA011A4658BF4FF0011232440261C7E75E
:1047500045F20003C5F200231868C00702D14FF0EC
:10476000000C05E018684FF0010C20F00100186003
:104770004AF2000EC5F2002EDEF80000C00707D096
:10478000DEF800000CF1020C20F00100CEF8000071
:1047900009F1200609F108053046984508BF28466A
:1047A00000680AEB800050F8042C22F4807240F874
:1047B000042C5AF8040CC0073CD14846984518BF51
:1047C00018300068002866D00AEB80001C2298454B
:1047D00008BF042250F8044C24F0010440F8044CB3
:1047E00059F8020038B10AEB800050F8042C22F08E
:1047F000100240F8042C2420984508BF0C2059F8DA
:10480000000040B1012222EA00005AF8202022F4E0
:1048100080324AF820202820984508BF102059F8F7
:104820000000C0B3012222EA00005AF8202022F042
:1048300080722EE05AF8040C984520F001004AF8E6
:10484000040C28D106980AEB8002079852F8044C11
:1048500044F0020442F8044C38B10AEB800050F8EE
:10486000042C42F0200240F8042C099840B10122A7
:1048700022EA00005AF8202042F480224AF8202040
:104880000A9840B1012222EA00005AF8202042F0A2
:1048900080624AF820204846984508BF18300C68C6
:1048A0000068844224D00422984508BF1C224F6827
:1048B00059F80220974219D02A46984508BF324637
:1048C0008F681268974211D00C22984508BF2422A5
:1048D000CF6859F80220974208D01022984508BFA7
:1048E00028220F6959F80220974267D1844221D1CA
:1048F0000422984508BF1C224C6859F802209442B3
:1049000018D10C22984508BF2422CC6859F80220FF
:1049100094420FD11022984508BF28220C6959F8FB
:104920000220944206D15AF8040C40F001004AF8E3
:10493000040C43E00AEB80000422984508BF1C22C7
:1049400050F8044C24F0010440F8044C59F80200DB
:1049500038B10AEB800050F8042C22F0100240F825
:10496000042C98454FF00C0208BF3546984528683E
:1049700008BF24220AEB800050F8044C24F4807411
:1049800040F8044C59F8020040B1012222EA00002C
:104990005AF8202022F480324AF82020102098452E
:1049A00008BF282059F8000040B1012222EA000087
:1049B0005AF8202022F080724AF8202088684FF4AC
:1049C000407298450AEB800050F8044C08BF4FF441
:1049D000807224F44074224440F8042C48695AF848
:1049E000042C441EC2F3074294420BD900245AF807
:1049F000042CCFF6FF7422F47F0204EB0040104336
:104A00004AF8040C5AF8042C08680138D2075AF8FE
:104A1000204024F0030427D10322984508BF012237
:104A200022434AF82020486860B10AEB8000302217
:104A3000984550F8044C08BF102224F0200422436B
:104A400040F8042CC868C20326D4A8B301229845B4
:104A500022EA00004FF0A0625AF8204024F0E064FF
:104A600008BF4FF0807224E044F001024AF8202091
:104A7000486840B10AEB8000012450F8042C64F32C
:104A8000051240F8042CC868C20328D4A0B34FF024
:104A900080746FF0E06526E00122984522EA00006C
:104AA0004FF4A0225AF8204008BF4FF4803224F47B
:104AB000E02422444AF820200869C10329D40028B0
:104AC00040D00121984521EA00004FF0E0615AF8FA
:104AD000202022F0E06208BF4FF0407126E04FF442
:104AE00080346FF4E025012222EA00005AF82020E9
:104AF0002A4022434AF820200869C10318D408B389
:104B00000121032221EA00005AF8201062F31A6101
:104B100016E00121984521EA00004FF4E0215AF8FF
:104B2000202008BF4FF4403122F4E022114407E076
:104B30000121032221EA00005AF8201062F31241F9
:104B40004AF820105FEACC7003D0186840F00100EA
:104B500018605FEA8C7005D5DEF8000040F00100B7
:104B6000CEF8000000200CB0BDE8F0870000000087
:104B700070B50446FFF7B8FB2CB105460020606510
:104B8000216D11B170BD012070BD204600F084F888
:104B900041F28830A065206804F10C034FF6F40C54
:104BA00040F2000E0ECB8668CFF6E00CCFF6FF7E0B
:104BB00006EA0C060EEB024231436FF0FF0C666B07
:104BC00011430CEB03223143E36911431943816024
:104BD000C168226A21F4E0211143C160216BA26BFC
:104BE00042EA01410161E16B41610168626821F4BF
:104BF000F8510CEB022211430160006A80060AD5CD
:104C000041F28936FFF770FB401BB04206D22068A4
:104C1000006A8006F6D40020012108E04FF40070FD
:104C20002065606D002140F00100606501200029D1
:104C300008BF70BD2168666AA268013EA369CD689D
:104C400025F0FF05022B46EA0506CE600E6826F029
:104C5000400642EA06020A60D1F8082122F0A0428A
:104C6000D4E90A6542EA060242EA0502C1F80821CF
:104C70000A6842F001020A6003D18A6842F0020227
:104C80008A60E1680222B1F1806F08BF01222265CB
:104C900070BD0000000000002DE9F04FB5B00446E3
:104CA00002A8B8210025CDE93355CDE9315530951D
:104CB000FBF772FB45F200012068C5F20021884233
:104CC00002D035B0BDE8F08F4FF00070029002A81E
:104CD0000395159500F0E0FA08B1FBF7FDFF44F2EB
:104CE000E04040F20008C5F60200C5F6020830AC0C
:104CF000022750F80C1C4FF0000941F4001140F855
:104D00000C1C50F80C1C4FF0030B01F40011019126
:104D1000019950F80C1C41F4804140F80C1C50F8EB
:104D20000C1C4FF0090A01F48041019101990168BE
:104D300041F001010160016801F001010191019957
:104D4000016841F002010160016801F00201019176
:104D50000199016841F010010160016801F0100142
:104D600001910199016841F0080101600068214644
:104D700000F00800019001984046CDE93077CDF869
:104D8000C890CDF8CCB0CDF8D0A0FFF7C9F930A9C4
:104D9000082081E8810A0620349040462146FFF72A
:104DA000BFF930A9012008F58066042581E8810A51
:104DB000304621463495FFF7B3F930A82146CDF8A7
:104DC000D0A080E8A00A3046FFF7AAF930A84FF437
:104DD0000065214680E8A00A0B20349008F5805039
:104DE000FFF79EF930A82146CDF8D0A080E8A00AB0
:104DF00008F54060FFF794F935B0BDE8F08F00008A
:104E000001680122C0F80025002280F8F424886996
:104E100040F000608861486D40F08052002042F010
:104E200003024A6570470000002800F08B802DE9DE
:104E3000F04F8BB00446056890F8BD0428B90020F7
:104E400084F8BC04204600F093F8032084F8BD04E5
:104E5000E86BC00501D40020E060206804F070FF1A
:104E600020680A9004F1040E04F11C0AD4E90C50E5
:104E70009EE80E589AE8C007CDE9085003A88DE8CF
:104E8000005880E8C0070A9804F0CAFD002852D1F3
:104E900020680021002504F05BFF616869B304F11C
:104EA0003C004FF0010C0022002300BF02EBC202C5
:104EB00000EB820700F82230DAB201337A83DAB2EB
:104EC00087F801C091423D71BD60FD603D61EDD844
:104ED00004F51F7000220025002300BF05EBC50765
:104EE00000F827300133DDB200EB8706A94272706B
:104EF0003271B260F2603261F0D804F1140E04F144
:104F0000240A2268A0680A90D4E903379EE8405832
:104F10009AE80007D4E90C50CDE9085002A8CDE981
:104F2000007680E8005805A880E8000710460A9A35
:104F300004F012FE40B1022084F8BD0401200BB041
:104F4000BDE8F08F01207047002084F83800012070
:104F500084F8BD04606A012802D12046FFF750FFA3
:104F6000206804F0E9FD00200BB0BDE8F08F0000E0
:104F700010B5B0B0044602A8B821FBF70DFA002125
:104F80002068C4F20401884201D030B010BD002076
:104F900003904FF4802002904FF44010239002A819
:104FA00000F07AF908B1FBF797FE00F035F844F20B
:104FB000D840C5F60200016841F000710160006848
:104FC00000F000700190019830B010BD00000000AA
:104FD000B0B544F60C05C5F60205296849072968ED
:104FE00005D401F00701081A18BF0120B0BD21F057
:104FF000070108432860FFF777F9044655F8080CC5
:10500000800407D4FFF770F9001BB0F57A7FF5D95B
:105010000120B0BD0020B0BD44F60C00C5F6020072
:10502000016841F0807101607047000000000000DD
:1050300080B500F00DFF44F220414AF6C872C5F673
:105040000201C0F600020968C1F30211515C01F0CF
:105050001F01C84080BD000080B544F2384EC5F63F
:10506000020E5EF8103C5EF8101C5EF80C2CC1F3CA
:10507000053CDEF80410BCF1000F18D0C9089FED04
:105080003A1AD20601EAE27103F003026FF35F31CC
:1050900000EE101AB8EE400ADFE802F0021F0E1F01
:1050A0005EF8381C89060AD49FED311A15E00021FC
:1050B0008160C0E9001180BD9FED2C1A0DE05EF803
:1050C000381C49F20002C0F2D032C1F3C10122FA09
:1050D00001F101EE101AB8EE411ADEF800109FED52
:1050E000253A6FF35F2102EE101ADEF80010C1F3CB
:1050F0004621B8EE422A013100EE032A00EE10CA22
:10510000B7EE003AB8EE400A81EE000A32EE031A1A
:1051100020EE010A01EE101AB8EE411A80EE011AD3
:10512000BCEEC11A80ED001ADEF80010C1F3064192
:10513000013101EE101AB8EE411A80EE011ABCEEF0
:10514000C11A80ED011ADEF80010C1F306610131C9
:1051500001EE101AB8EE411A80EE010ABCEEC00A48
:1051600010EE101A816080BD0024744A001BB74BFA
:105170000024744C0000003980B544F2404EC5F65E
:10518000020E5EF8183C5EF8181C5EF8142CC1F391
:10519000055CDEF80410BCF1000F18D0C9089FEDC3
:1051A0003A1AD20501EAE27103F003026FF35F31AC
:1051B00000EE101AB8EE400ADFE802F0021F0E1FE0
:1051C0005EF8401C89060AD49FED311A15E00021D3
:1051D0008160C0E9001180BD9FED2C1A0DE05EF8E2
:1051E000401C49F20002C0F2D032C1F3C10122FAE0
:1051F00001F101EE101AB8EE411ADEF800109FED31
:10520000253A6FF35F2102EE101ADEF80010C1F3A9
:105210004621B8EE422A013100EE032A00EE10CA00
:10522000B7EE003AB8EE400A81EE000A32EE031AF9
:1052300020EE010A01EE101AB8EE411A80EE011AB2
:10524000BCEEC11A80ED001ADEF80010C1F3064171
:10525000013101EE101AB8EE411A80EE011ABCEECF
:10526000C11A80ED011ADEF80010C1F306610131A8
:1052700001EE101AB8EE411A80EE010ABCEEC00A27
:1052800010EE101A816080BD0024744A001BB74BD9
:105290000024744C000000392DE9F04381B004462D
:1052A000C07844F22C490007C5F6020901D4002554
:1052B00020E0606E4FEA3050032835D80025DFE843
:1052C00000F0020A1C22D9F8000040F40030C9F8AE
:1052D0000000D5B906E004F10800022103F0D0FC7B
:1052E000054695B9D9F82400616E20F440100843B2
:1052F000C9F824004FF0000808E004F1280002215A
:1053000003F04EFD0546002DECD0A8466078C0079E
:105310001ED0A06D04283ED8DFE800F02B340A032D
:1053200003006DB1A84613E00125002DEDD1D9E7AA
:1053300004F12800002103F033FD0546002DF1D1D2
:10534000D9F82400A16D20F007000843C9F8240013
:105350006078400747D5D4F8A4004FEA705005287C
:105360002CD8DFE800F01C2F2503030395B3A846D3
:1053700039E0D9F8000040F40030C9F80000002DF1
:10538000D0D1DDE704F10800002103F079FC0546E7
:10539000002DC7D1D4E70125002DC3D1D0E7D9F81E
:1053A000000040F40030C9F80000002DDFD111E00A
:1053B00004F12800002103F0F3FC08E00125002D92
:1053C000D5D107E004F10800002103F059FC05469F
:1053D000002DCCD1D9F82C00D4F8A41020F4600012
:1053E0000843C9F82C006078000731D5D4F8A8002C
:1053F0004FEA3060052816D8DFE800F006190F03E1
:105400000303E5B1A84623E0D9F8000040F40030DA
:10541000C9F80000002DF5D111E004F128000021A9
:1054200003F0BEFC08E00125002DEBD107E004F1FC
:105430000800002103F024FC0546002DE2D1D9F834
:105440002C00D4F8A81020F0E0600843C9F82C0024
:10545000E07880071BD5E06C4FEA301003282FD886
:10546000DFE800F0020525024DB1A8460FE0D9F8AB
:10547000000040F40030C9F80000002DF5D1D9F843
:105480002000E16C20F030000843C9F8200060786B
:10549000C00629D5E06D4FEA3030042849D8DFE84E
:1054A00000F0363F13030300B5B1A8461CE004F139
:1054B0000800022103F0E4FB0546002DD5D1DEE70C
:1054C0000125002DD1D1DAE704F12800002103F0F5
:1054D00067FC0546002DE8D1D9F82400E16D20F4E1
:1054E000E0400843C9F824006078800639D5206E72
:1054F0004FEA3040052829D8DFE800F025031F25B2
:10550000252504F10800012103F0BAFB1AE0D9F8BF
:10551000000040F40030C9F80000002DC5D1DBE7E1
:1055200004F10800002103F0ABFB0546002DBCD1BF
:10553000D2E70125002DB8D1CEE704F128000121E2
:1055400003F02EFC054625B1A8460AE00125002DF2
:10555000FAD1D9F82400216E20F4E0200843C9F8DC
:1055600024006078400625D5D4F8AC004FEA3070AE
:10557000052813D8DFE800F00F03090F0F0F04F11F
:105580000800012103F07CFB04E004F12800012164
:1055900003F006FC054625B1A8460BE00125002DC9
:1055A000FAD1D9F82C00D4F8AC1020F0E040084330
:1055B000C9F82C006078000620D5E06ED8B1B0F1B3
:1055C000005F12D0B0F1805F26D1D9F8000040F41E
:1055D0000030C9F8000085B9D9F82400E16E20F048
:1055E00040500843C9F8240008E004F108000121F4
:1055F00003F046FB0546002DEED0A846E078C00734
:105600001ED0A06C032800F28080DFE800F00209C1
:1056100074026DB1A84613E00125002DEDD1DBE742
:10562000D9F8000040F40030C9F80000002DF1D195
:10563000D9F82000A16C20F003000843C9F820002D
:10564000A078400644D5D9F8D40340F48070C9F856
:10565000D403FEF749FE0646D9F8D403C00505D4A5
:10566000FEF742FE801B6528F6D303257DBBD9F8E3
:105670004410D4F8B000414011F4407F11D0D9F863
:105680004410D9F8442042F48032C9F84420D9F8B3
:10569000442021F4407122F48032C9F84420C9F832
:1056A0004410B0F5807F0FD1FEF71EFE064641F292
:1056B000893700BFD9F84400800705D4FEF714FEEF
:1056C000801BB842F6D30325002D00F07A82A8464D
:1056D0002078C00732D0A06F4FEAF000052822D80A
:1056E000DFE800F01E03181E1E1E04F10800012151
:1056F00003F0C6FA13E004F10800022103F0C0FA37
:105700000546002D7FF486AF92E70125002D7FF43A
:1057100081AF8DE704F12800012103F041FB05462C
:1057200025B1A8460AE00125002DFAD1D9F82800B4
:10573000A16F20F038000843C9F8280020788007BE
:1057400021D5606F052813D8DFE800F00F03090F9B
:105750000F0F04F10800012103F092FA04E004F1B4
:105760002800012103F01CFB054625B1A8460AE0EC
:105770000125002DFAD1D9F82800616F20F007002B
:105780000843C9F828002078400723D5D4F89000B2
:10579000052813D8DFE800F00F03090F0F0F04F1FD
:1057A0000800012103F06CFA04E004F12800012153
:1057B00003F0F6FA054625B1A8460BE00125002DB9
:1057C000FAD1D9F82C00D4F8901020F00700084343
:1057D000C9F82C002078800625D5D4F88C004FEA33
:1057E0003070052813D8DFE800F00F03090F0F0F02
:1057F00004F10800002103F043FA04E004F128005A
:10580000022103F0CDFA054625B1A8460BE001259B
:10581000002DFAD1D9F82800D4F88C1020F0E040FF
:105820000843C9F828002078400625D5D4F8980008
:105830004FEAB020052813D8DFE800F00F03090F66
:105840000F0F04F10800002103F01AFA04E004F13C
:105850002800022103F0A4FA054625B1A8460BE072
:105860000125002DFAD1D9F82C00D4F8981020F495
:10587000E0500843C9F82C002078000625D5D4F85C
:105880009C004FEA7030052813D8DFE800F00F03C2
:10589000090F0F0F04F10800002103F0F1F904E0F3
:1058A00004F12800022103F07BFA054625B1A84641
:1058B0000BE00125002DFAD1D9F82C00D4F89C106A
:1058C00020F460400843C9F82C002078000716D562
:1058D000D4F88000B0F5805F08D104F128000221DF
:1058E00003F05EFA002818BF4FF00108D9F828002D
:1058F000D4F8801020F440500843C9F828002078DC
:10590000C00616D5D4F89400B0F5807F08D104F114
:105910002800022103F044FA002818BF4FF00108C4
:10592000D9F82C00D4F8941020F440700843C9F83A
:105930002C00A078000724D5D4F8A000B0F5003FD3
:105940001CD0B0F5803F13D0002840F0E58004F172
:105950000800002103F094F905468DB9D9F82C0010
:10596000D4F8A01020F440300843C9F82C0008E017
:1059700004F12800022103F013FA0546002DEDD0B2
:10598000A846A078400725D5D4F88400B0F5401F7C
:105990001DD0B0F5001F14D0B0F5801F40F0C180BD
:1059A000D9F8000040F40030C9F800008DB9D9F8EA
:1059B0002800D4F8841020F440100843C9F82800C7
:1059C00008E004F12800012103F0EAF90546002D62
:1059D000EDD0A846A078C0071FD0206DB0F5803F5D
:1059E0000BD0002840F09380D9F8000040F400303C
:1059F000C9F800004DB1A8460FE004F108000221EB
:105A000003F03EF90546002DF5D1D9F82000216DAF
:105A100020F480300843C9F82000E078800608D5DB
:105A200004F12800022103F0BBF9002818BF4FF051
:105A30000108D4E900108A0340F18280E26F6FF020
:105A4000010303EB3223022B0AD34FEA32233BB18B
:105A5000012B6BD1D9F8003043F40033C9F8003082
:105A6000002D66D0CA026ED48A0277D44A0000F1B3
:105A70008080CA0F40F08D80090200F19580C00738
:105A800007D004F10800002103F0FAF8002818BF3D
:105A900005462079800707D504F10800012103F0AD
:105AA000EFF8002818BF05462079400707D504F114
:105AB0000800022103F0E4F8002818BF0546207909
:105AC000000707D504F12800002103F069F9002838
:105AD00018BF05462079C00607D504F1280001212A
