:020000040800F2
:10000000A0130024E1020008F15A0008495000083A
:10001000E95A0008F9030008096B00080000000015
:10002000000000000000000000000000415D00082A
:100030000104000800000000F95A0008495D0008AA
:10004000FB020008FB020008FB020008FB0200089C
:10005000FB020008FB020008FB020008FB0200088C
:10006000FB020008FB020008FB020008FB0200087C
:10007000FB020008FB020008FB020008FB0200086C
:10008000FB020008FB020008FB02000889040008CC
:1000900009050008FB020008FB020008FB0200083B
:1000A000FB020008FB020008FB020008FB0200083C
:1000B000C95E0008FB020008FB020008FB02000802
:1000C000FB020008FB020008FB020008FB0200081C
:1000D000FB020008FB020008FB020008FB0200080C
:1000E000FB020008FB02000800000000FB02000801
:1000F000FB020008FB020008FB020008FB020008EC
:10010000FB020008FB020008FB020008FB020008DB
:10011000FB020008FB020008FB020008FB020008CB
:10012000FB020008FB020008FB020008FB020008BB
:10013000FB020008FB020008FB020008FB020008AB
:1001400000000000000000000000000000000000AF
:10015000FB020008FB020008FB020008FB0200088B
:10016000FB020008FB020008FB020008FB0200087B
:10017000FB020008FB020008FB0200080000000070
:10018000FB020008FB020008FB020008FB0200085B
:10019000FB020008FB020008FB020008FB0200084B
:1001A000FB020008FB020008FB0200080000000040
:1001B000FB020008FB020008FB020008FB0200082B
:1001C000FB020008FB020008000000000000000025
:1001D0000000000000000000FB020008000000001A
:1001E000000000000000000000000000000000000F
:1001F0000000000000000000FB020008FB020008F5
:10020000FB020008FB02000800000000FB020008DF
:10021000FB020008FB020008FB020008FB020008CA
:10022000FB02000800000000FB02000800000000C4
:10023000FB020008FB02000800000000FB020008AF
:10024000FB020008FB020008FB020008FB0200089A
:10025000FB020008FB020008FB020008FB0200088A
:10026000FB020008FB020008FB020008FB0200087A
:10027000FB020008FB020008FB020008000000006F
:10028000FB020008FB020008FB020008FB0200085A
:1002900000000000FB020008FB0200080000000054
:1002A00000000000FB020008FB020008FB0200083F
:1002B000FB020008FB020008FB020008FB0200082A
:1002C000FB020008FB020008FB020008DFF80CD06C
:1002D00000F07AF800480047916C0008A013002451
:1002E0000648804706480047FEE7FEE7FEE7FEE7D0
:1002F000FEE7FEE7FEE7FEE7FEE7FEE7195E000821
:10030000CD0200082DE9F05F0546002092469B468D
:1003100088460646814640241BE02846414647461B
:10032000224600F041F853465A46C01A914110D374
:1003300011461846224600F028F82D1A67EB0108EE
:100340004F4622460120002100F01FF817EB00095C
:100350004E41201EA4F10104DFDC484631462A4606
:100360004346BDE8F09FD2B201E000F8012B491EE0
:10037000FBD270470022F6E710B513460A46044642
:100380001946FFF7F0FF204610BD202A04DB203A73
:1003900000FA02F1002070479140C2F1200320FAD8
:1003A00003F3194390407047202A04DB203A21FAD6
:1003B00002F00021704721FA02F3D040C2F120027E
:1003C00091400843194670471CB5094800900948F8
:1003D00001900546009C06E0E06840F0010394E8C7
:1003E000070098471034AC42F6D3FFF773FF0000C4
:1003F0005C6F00087C6F0008FEE700000000000052
:100400007047000000000000EFF3108072B600BFDC
:10041000FEE700000000000010B58AB000240220B2
:1004200004900120CDE9050440F2582002A9C2F24F
:1004300000400794CDE9024400F022FA08B1FFF72A
:10044000E3FF40F258200221C2F2004002220023C2
:10045000009400F059FA08B1FFF7D6FF40F2582097
:100460000121C2F20040002200F092F908B1FFF72A
:10047000CBFF40F25820C2F2004001F015F808B15D
:10048000FFF7C2FF0AB010BD40F25820C2F2004090
:1004900000F02ABB0000000010B58AB001200390D4
:1004A000022002A9CDE9040040F2F8200024C2F2A3
:1004B00000400294CDE9064400F0E2F908B1FFF7EC
:1004C000A3FF40F2F8200221C2F2004002220023E2
:1004D000009400F019FA08B1FFF796FF40F2F820F7
:1004E0001021C2F20040002200F052F908B1FFF7DB
:1004F0008BFF40F2F820C2F2004000F0D5FF08B1B7
:10050000FFF782FF0AB010BD40F2F820C2F20040AF
:1005100000F0EABA00000000F0B5D1E900C4D1F85B
:1005200008E00D692CB14EEA0C04254345F0804CDF
:1005300003E045EA8C4444EA0E0C856ED0F88470E2
:10054000D1E907466B438D6944EA0660D1F814E0AF
:100550000543CC6807EB830045EA0E0647F823C045
:1005600046EA04034360CB68B3F5803F38BFF0BD73
:1005700046F63C7C083001320023C0F6000C00BF78
:10058000D71857F8017CC750CF8904331CF807707F
:10059000BB42F5D3F0BD000000284CD0B0B590F8B8
:1005A000351019B9044600F04BF82046022180F8B6
:1005B0003510D0F818C04FF20705BCF1000FCFF688
:1005C000E0751CBF0021416290E80A40C268102B10
:1005D0000C6804EA05040C60D0E9045442EA040201
:1005E000046A42EA0502456A42EA0E0242EA04024D
:1005F000846A42EA0502C56A42EA0402046B42EADE
:1006000005020D6842EA040242EA050242EA0C02CF
:1006100042EA03020A6001D1C2698A61CA6842F0F3
:100620001E02CA600021C164012280F83520BDE8A5
:10063000B0400846704701207047000000000000ED
:100640002DE9F04387B040F200080068C4F60208C4
:10065000002640450696CDE904660396029602D030
:1006600007B0BDE8F08344F2E04040F20049C5F62F
:100670000200C5F6020902AD022750F8041C0D2441
:1006800041F0010140F8041C50F8041C01F0010184
:1006900001910199016841F010010160016801F0C8
:1006A000100101910199016841F0010101600168A7
:1006B00001F0010101910199016841F0040101601B
:1006C000016801F0040101910199016841F00801FC
:1006D0000160016801F0080101910199016841F090
:1006E000020101600068294600F0020001900198B3
:1006F0007020029009F54060CDE9037605960694D6
:1007000000F016FF50202946CDE9020708F180507D
:100710000694CDE9046600F00BFF4FF47070294693
:10072000CDE9020709F580600694CDE9046600F082
:10073000FFFE08202946CDE9020709F5006006946E
:10074000CDE9046600F0F4FE80202946CDE90207D9
:1007500048460694CDE9046600F0EAFE07B0BDE81D
:10076000F083000000000000B0B5044600F0BCFFBC
:1007700040F20C010546C2F20041621C097818BF24
:100780000C4400BF00F0B0FF401BA042FAD3B0BD44
:1007900090F89830013B012B0BD80068836D0B4219
:1007A0000CD0836D0B408B420CD1C36D43F0020320
:1007B00009E000F19C010120022221E0C36D43F019
:1007C000010300E00323C3658B0504D5D0F8E030B6
:1007D0001343C0F8E0304B0504D5D0F8E4301A4399
:1007E000C0F8E4204FF6FF72436DC3F6CF720A40A3
:1007F0001A4342658A0F4AF614010020C4F2000130
:100800000B681A430A60704790F89830022B1BD18E
:10081000B0B50368D3F8C05015F07C5F1CD0D3F896
:10082000C450AD021DD4D3F8C4300546C3F304440C
:100830002346FFF771FE28680121A140C0F8D010BF
:100840000020C5F89410B0BDD0F89C1041F008010C
:10085000C0F89C1001207047D0F89C1041F0200196
:1008600003E0D0F89C1041F40071C0F89C10012006
:10087000B0BD000000000000704700000000000054
:1008800090F89820013A012A0BD880B50A68002A0E
:10089000CA680ED00B69072A43EA427E16D18B69DB
:1008A00019E0D0F89C1041F00201C0F89C10012022
:1008B0007047072A18D10A69D1E906C3120442EA2F
:1008C000032242EA0C0242F0605217E0D1F808C05D
:1008D0004B6943EA8C73006F496800EBC10240F832
:1008E00031E05360002080BD8B68D1E904CE9B07C6
:1008F00043EAC26242EA0C4242EA0E024968C06E12
:1009000040F82120002080BD90F898C0BCF1010F74
:100910000DD19200006842EA0111DDF800C041EA01
:10092000430141EA0C01C0F8801000207047D0F864
:100930009C1041F00401C0F89C1001207047000099
:100940007047000000000000704700000000000039
:1009500070B590F89850022D1CD140291FD1056820
:10096000D5F8A04014F4FE0F00F08F80D5F8A44015
:10097000640600F09680D5F8A440E40148BFD5F89D
:10098000A040D5F8A45000F17404C5F3052E456CC1
:10099000F44629E0D0F89C1041F0080185E0412997
:1009A00018D10568D5F8B04014F4FE0F6DD0D5F815
:1009B000B440640675D0D5F8B440E40148BFD5F81A
:1009C000B040D5F8B45000F17804C5F3052EC56CDD
:1009D000F44609E0056DA94257D200F17C04D0F835
:1009E00054E04FF0000C0D4605FB0EF6246854F859
:1009F000265015F08045556054F826E02EF06045ED
:100A000008BFCEF38A4504EB860E156054F82650D5
:100A100005F00055956054F8264004F00044146138
:100A2000BEF80440D461DEF8044004F47024D460BD
:100A3000DEF80450B4F5803F05F480155561DEF80A
:100A4000045005F4001595619EF8075005F07F05E8
:100A50001562DEF804504FEAD57454620ED30EF1DD
:100A6000080546F63C7E0024C0F6000E2E5D1E559D
:100A70000134D6891EF80660B442F7D3402909D163
:100A80000068C0F8A8C0002070BDD0F89C1041F0EC
:100A900020010AE041290CD10068C0F8B8C000204C
:100AA00070BDD0F89C1041F48071C0F89C100120FA
:100AB00070BD1F2907D80068012202FA01F1C0F8B1
:100AC0009810002070BD006801F01F01012202FA99
:100AD00001F1C0F89C10002070BD00000000000073
:100AE00070470000000000002DE9F04F87B0044679
:100AF0004AF61000C4F2000001684AF61400C4F27D
:100B00000000026820680A40D0F850B0D0F8549035
:100B1000056D466D036D0293436D0193036D06935E
:100B2000436D0593036D0493436D0393D0F854A074
:100B3000D0F850805FEACA5310D518F480710DD0F8
:100B40004FF4807101654AF610010020C4F20001E3
:100B5000174608602046FFF7C3FF3A460BEA090B29
:100B60004AF610095FEA4A50C4F200094FEA827758
:100B70001AD518F4806017D020689146D0F8DC10A0
:100B8000D0F8E42011404FF4806202654AF610026A
:100B9000C4F2000200201060204600F0B9FC4A4672
:100BA0004AF61009C4F2000905EA06050BF470467E
:100BB00057B120680021016502F00300C9F8000068
:100BC00020463946FFF758FEDDE9011000EA01072B
:100BD00005F00F0546B12068314606650020C9F8CA
:100BE0000000204600F09CFC07F0F00645B12068AC
:100BF000294605650020C9F80000204600F0E4FB06
:100C000046B12068314606650020C9F8000020463C
:100C100000F00EFC5FEA0A500CD518F4006009D011
:100C200020684FF4006101650020C9F800002046EB
:100C300000F07AFC5FEA8A5011D518F400700ED0EB
:100C40002068D0F8D810D0F8E02011404FF400729E
:100C500002650020C9F80000204600F05DFC5FEA54
:100C60000A300CD518F4002009D020684FF4002178
:100C700001650020C9F80000204600F0A1FB5FEAF2
:100C8000CA300CD518F4803009D020684FF4803178
:100C900001650020C9F80000204600F035FC5FEA3D
:100CA0004A30DDE9031000EA01050CD518F4802074
:100CB00009D020684FF4802101650020C9F80000A8
:100CC000204600F01DFC5FEA8A30DDE9051000EAED
:100CD000010005F060710FD518F400320CD02268C5
:100CE0004FF4003313650022C9F80020D4F89C208B
:100CF00042F08002C4F89C2000F0715539B12068A0
:100D000001650020C9F800002046FFF71DFE4DB127
:100D1000206805650020C9F80000D4F89C0028432D
:100D2000C4F89C002068A9F50161884209D0D4F874
:100D30009C00002868D0204607B0BDE8F04FFFF7C0
:100D4000FFBD606881688907F1D0016A426A036A61
:100D5000476A114003EA070202F03005D0F820800C
:100D6000D0F82490D0F820B0466A026A069211F0BA
:100D70000F01426A0592D0F824A0026A049203D0BF
:100D80000162204600F0B0FB08EA09072DB1606857
:100D900029460562204600F0AFFB5FEA4A6006EA9A
:100DA0000B0607F4C0750ED5049810F040000AD069
:100DB00060684023C16BC26B090C02F03F02036202
:100DC000204600F095FBDDE9051000EA010706F476
:100DD000FC462DB1606829460562204600F080FB84
:100DE00007F4F02036B161680E62D4F89C103143EC
:100DF000C4F89C1000289AD061680862D4F89C104E
:100E00000843C4F89C0092E707B0BDE8F08F0000EB
:100E100040B32DE9F04F83B04AF200080446C4F213
:100E200000080068404502D108F58070606094F8C1
:100E3000980028B9002084F89900204600F0CCF9E9
:100E40002068816921F01001816100F04DFC0546A8
:100E500020688169090707D500F046FC401B0B2874
:100E6000F6D312E001207047816941F001018161F0
:100E700000F03AFC054600BF20688169C90711D11E
:100E800000F032FC401B0B28F6D30120D4F89C1054
:100E90000843C4F89C00032084F89800012003B0A4
:100EA000BDE8F08F816941F002018161217C826996
:100EB00022F04002012918BF40328261617C8269C0
:100EC00022F48042012908BF02F580428261A17CA0
:100ED000826922F48052012918BF02F58052826192
:100EE000816921F44073D4E902120B438361836961
:100EF00023F0A4038361036923F0100303619AB113
:100F0000012A0DD0022A09D08369032A43F0800305
:100F10008361036943F01002026105D1202200E0E1
:100F2000042283691A438261D4E90572E369561E7B
:100F30006FF0FF02256A02EB0323B1F5407F43EA1D
:100F40004663A5F1010646EA030640F20003CFF628
:100F5000FF7303EB074746EA0701C16110D1D4E9EB
:100F60000B65D4E90917013F02EB06226FF00F066B
:100F70003A4306EB05173A4303EB01411143C160C5
:100F8000236E2BB1616ED0F8C0201143C0F8C010A1
:100F9000E16DCDE90113D94246F6BC61C0F600010E
:100FA00009D0D0F8C820A36E22F0070251F82330F0
:100FB0001A43C0F8C820D4F840C0BCF1000F09D0D3
:100FC000D0F8BC20636C22F0070251F823301A439A
:100FD000C0F8BC20D4F848B0BBF1000F0AD0D0F85C
:100FE000BC20E36C22F0700251F8233042EA031275
:100FF000C0F8BC20D4F850A0BAF1000F0AD0D0F845
:10100000BC20636D22F4E06251F8231042EA012112
:10101000C0F8BC10404504D161688A6822F0030220
:101020008A600021C4F89410C4F89C10012184F84F
:10103000981004F13409D0F884104FF6FC729143F3
:10104000656C99E80C02009541EA8201C0F88410B1
:10105000D0F8841021F47F0141EA0341C0F88410E4
:101060009918D0F888306FF38F0343EA8103C0F8F2
:101070008830D0F8883023F4FE0343EA0943C0F8EF
:10108000883001EB4903D0F8A0606FF38F0646EA81
:101090008306C0F8A060D0F8A06026F4FE0646EAF9
:1010A0000C46C0F8A06005FB0C36D0F8B0306FF3EA
:1010B0008F0343EA8603C0F8B030D0F8B03023F491
:1010C000FE0343EA0B43C0F8B030E36CD0F8AC50F9
:1010D0006FF38F0503FB0B6645EA8605C0F8AC503D
:1010E000D4F8548008FB0A65D0F8F0606FF38F06DF
:1010F00046EA8506C0F8F060D0F8F0E0A66D2EF460
:101100007C1747EA0647C0F8F070F70007EB850741
:10111000D0F8C0506FF38F052F43C0F8C070D0F8DF
:10112000C070009DDDF804E027F47C1705FB0CFC83
:101130004AF2000547EA0E47C0F8C070C4F2000545
:1011400003FB0BC305F54067D0F8C05007EB8202E4
:1011500007EB810125F07C57029D47EA0567C0F83F
:10116000C07001EBC90008FB0A372167A16E00EBD4
:101170008C0C606700EB8303E266C4E91EC30EFBC0
:1011800001F300EB87006943C4F8800000EBC60060
:10119000C4F8840000EB8300C4F8880000EB8100F1
:1011A0004DF2FC31C4F20001C4F89000884201D92C
:1011B00020206BE6824208D2002000BF42F8040BD8
:1011C000D4F890108A42F9D369E6002003B0BDE854
:1011D000F08F000000000000B0B5B6B0044602A8D1
:1011E000B8210025CDE93455CDE932553195FFF7C9
:1011F000C1F84DF200412068C4F20001884200F0BD
:101200009C804AF20041C4F2000188424BD04AF26D
:101210000001C4F20001884240F0CD80002003901C
:101220004FF4004002904FF080501D9002A801F052
:1012300033FA08B1FFF7E8F840F2180144F2E04051
:10124000C2F20041C5F602000A68002A02F101025A
:101250000A6008D1C16841F48071C160C16801F4BD
:10126000807101910199016841F0080101600068F5
:1012700031A900F00800019001980320319002206C
:1012800032900020CDE933000920359040F600402F
:10129000C5F6020000F04CF913200021002200F0F6
:1012A000ABFB132045E0002003904FF40040029078
:1012B0004FF080501D9002A801F0EEF908B1FFF741
:1012C000A3F840F2180144F2E040C2F20041C5F632
:1012D00002000A68002A02F101020A6008D1C1680E
:1012E00041F48071C160C16801F48071019101997C
:1012F000016841F002010160006840F6004100F021
:1013000002000190C5F60201019860203190022090
:1013100032900020CDE9330009203590A1F500601E
:1013200031A900F005F914200021002200F064FB2F
:10133000142000F04DFB36B0B0BD4FF400400290D9
:101340004FF080501D9002A8039501F0A5F908B157
:10135000FFF75AF840F2180144F2E040C2F20041AF
:10136000C5F602000A68002A02F101020A6008D1EB
:10137000C16841F48071C160C16801F4807101915C
:101380000199016841F008010160006831A900F08D
:101390000800019001984FF44050319002203290A3
:1013A0000020CDE933000520359040F60040C5F619
:1013B000020000F0BDF836B0B0BD00000000000033
:1013C000704700000000000070B5C9071CD04AF249
:1013D00000020168C4F20002914218BF70BD40F2E1
:1013E00088144021C2F2004406462046FEF7C2FFA0
:1013F00040F21C054021C2F2004530462A462346F1
:10140000FFF7A6FA286800B170BD207840F26C01A1
:10141000C2F20041EA6800F00F0000EB800001EB2F
:10142000C0002146BDE8704005F0BEBB00000000D2
:1014300070B5C9061CD54AF200420168C4F2000228
:10144000914218BF70BD40F2C8154021C2F200455C
:1014500006462846FEF78EFF40F244044121C2F2C0
:101460000044304622462B46FFF772FA206800B14E
:1014700070BD40F2881040F26C01C2F20040C2F22E
:101480000041E268007800F00F0000EB800001EB03
:10149000C00040F2C811C2F20041BDE8704005F042
:1014A00083BB00000000000090F8981001290CD1C7
:1014B000022180F8981001688A6922F001028A618D
:1014C0000021C0F89C1000207047D0F89C1041F01B
:1014D0000401C0F89C1001207047000000000000CB
:1014E000704700000000000070470000000000008E
:1014F000704700000000000070470000000000007E
:10150000704700000000000070470000000000006D
:10151000704700000000000070470000000000005D
:10152000704700000000000070470000000000004D
:101530002DE9F04F83B00E68002E00F0C78000F157
:10154000264742F2004507F1FF77C5F602050A2259
:10155000A8424FEAB72500F1200308BF09220093F3
:10156000082D38BF4FEAB722002400274FF0000AA9
:1015700001920AE00AF1010A0E6836FA0AF207F14E
:10158000020704F1040400F0A180012202FA0AFB20
:1015900016EA0B08EED0D1F80490032209F0030EEE
:1015A000AEF10106012E02FA07F610D8D0F808C0F5
:1015B000CD682CEA0602BD402A438260C9F30015BB
:1015C000426822EA0B0205FA0AF52A434260BEF19C
:1015D000030F1FD0C2688D68B243BD40BEF1020F39
:1015E00042EA0502C26015D16FF00302009D02EAD3
:1015F0005A0B04F01C030F2255F80BC002FA03FE2D
:10160000D1F810902CEA0E0C09FA03F343EA0C030C
:1016100045F80B3002684B68B24303F00306BE4046
:1016200013F4403F42EA06020260A3D044F2F443BE
:1016300040F2084CC5F60203C5F6000C0F251A68E7
:1016400042F002021A601A6802F0020202922AF0C4
:101650000302029B04F00C0352F80C609D40AE4361
:10166000019D05FA03F3334342F80C304FF0B04CC0
:10167000DCF800204B6842EA0806DD0258BF22EA87
:1016800008069D02CCF8006040F2040CC5F6000C80
:10169000DCF8002042EA080658BF22EA08069D034B
:1016A000CCF80060DCF8802042EA080658BF22EA45
:1016B0000806DB03CCF88060DCF87C2042EA0806F0
:1016C00058BF22EA0806CCF87C6053E703B0BDE8B7
:1016D000F08F000000000000002A08BF09048161AB
:1016E000704700000000000040F69C70C2F200400D
:1016F000006870470000000090F84120202A03D1C4
:1017000090F84020012A01D102207047242280F85D
:1017100041200268136823F001031360136823F467
:1017200080531360136819431160116841F001017F
:101730001160202180F84110002180F84010002025
:10174000704700000000000090F84120202A03D1DB
:1017500090F84020012A01D102207047242280F80D
:1017600041200268136823F001031360136823F417
:10177000706343EA01211160116841F001011160B9
:10178000202180F84110002180F84010002070478F
:1017900000284DD010B590F8411031B9002180F8E3
:1017A0004010044600F048F82046242180F84110FB
:1017B00090E80610C46822F070620B68012C23F0D8
:1017C00001030B600A614FF404438A6808BF4FF4B9
:1017D0000043022C22F400428A604CEA03028A6031
:1017E00002D14FF400624A604A6800F1100C42F0E6
:1017F000007242F400424A60CA6822F40042CA60A1
:101800009CE81C101A4342EA0422CA60026A42EAB7
:101810000C020A600A6842F001020A600021416479
:10182000202280F84120016380F84210002010BD82
:101830000120704700000000B0B5B6B0044602A811
:10184000B8210025CDE93455CDE932553195FEF763
:1018500091FD45F200412068C4F20001884201D0A8
:1018600036B0B0BD0820029002A80395229500F082
:1018700013FF08B1FEF7C8FD44F2E04431A9C5F6F4
:101880000204206840F002002060206800F002009E
:10189000019001984FF44070319012203290012055
:1018A0003390002034900420359040F20040C5F67B
:1018B0000200FFF73DFEA06840F40010A060A068A1
:1018C00000F400100190019836B0B0BD0000000097
:1018D00040F20C0040F69C71C2F20040C2F200419E
:1018E00000780A681044086070470000000000009B
:1018F00080B5032000F0B0F801F032FD44F2184149
:1019000046F61473C5F60201C0F600030A68C2F376
:1019100003229A5C096801F00F0102F01F02595C72
:10192000D04040F20802C2F2004201F01F0120FA4A
:1019300001F1116040F20401C2F200410860002090
:1019400000F00AF800281CBF012080BD00F030F82C
:10195000002080BD0000000040F20C01C2F20041F6
:10196000097819B310B5044640F20400C2F20040F1
:101970004FF47A72B2FBF1F10068B0FBF1F002F0C3
:10198000AFFA0F2C01464FF001000ED8002918BF06
:1019900010BD4FF0FF300022214600F02DF840F23C
:1019A00010010020C2F200410C6010BD0120704700
:1019B00081B044F2F440C5F60200016841F0020132
:1019C0000160006800F002000090009801B07047CC
:1019D000002848BF704700F01F01012202FA01F100
:1019E0004EF20012C0F34A10CEF2000242F820106C
:1019F000704700000000000070B54EF60C5C4FF020
:101A0000FF36CEF2000C00F1604505F56445DCF8C8
:101A10000030C3F3022E8EF00703042B28BF0423EB
:101A2000BEF1030406FA03F321EA030100F00F03F9
:101A300038BF0024043B0028634406FA04F048BF82
:101A400003F10C05A14022EA0000084300012870C0
:101A500070BD0000000000004EF60C514FF6FF0371
:101A6000CEF200010A681A4060F30A2242F0806058
:101A700040F0FD70086070472DE9F0478CB04BF2E4
:101A8000044A0123C5F2002AC0F20013D0F80080F6
:101A90004FF0000CE946002503E000BF002D75461D
:101AA00056D105EB450705F1010EBEF1020F4FF0CF
:101AB000000409EBC70049F837C0C0F804C0C0E90A
:101AC00002CCC0F810C009D15AF8044CE4074FF416
:101AD000007404BF40F22224C0F20444002602E055
:101AE0000136012EDAD15AF82670FA0705D087EAB6
:101AF0000402920701D4721C0260FA0605D587EA37
:101B00000402920601D4721C4260FA0505D587EAE8
:101B10000402920501D4721C8260FA030AD587EA96
:101B20000402520306D4BA031A4658BF4FF00112FA
:101B30003244C260FA01D3D587EA04025201CFD4FD
:101B4000BA011A4658BF4FF0011232440261C7E78A
:101B500045F20003C5F200231868C00702D14FF018
:101B6000000C05E018684FF0010C20F0010018602F
:101B70004AF2000EC5F2002EDEF80000C00707D0C2
:101B8000DEF800000CF1020C20F00100CEF800009D
:101B900009F1200609F108053046984508BF284696
:101BA00000680AEB800050F8042C22F4807240F8A0
:101BB000042C5AF8040CC0073CD14846984518BF7D
:101BC00018300068002866D00AEB80001C22984577
:101BD00008BF042250F8044C24F0010440F8044CDF
:101BE00059F8020038B10AEB800050F8042C22F0BA
:101BF000100240F8042C2420984508BF0C2059F806
:101C0000000040B1012222EA00005AF8202022F40C
:101C100080324AF820202820984508BF102059F823
:101C20000000C0B3012222EA00005AF8202022F06E
:101C300080722EE05AF8040C984520F001004AF812
:101C4000040C28D106980AEB8002079852F8044C3D
:101C500044F0020442F8044C38B10AEB800050F81A
:101C6000042C42F0200240F8042C099840B10122D3
:101C700022EA00005AF8202042F480224AF820206C
:101C80000A9840B1012222EA00005AF8202042F0CE
:101C900080624AF820204846984508BF18300C68F2
:101CA0000068844224D00422984508BF1C224F6853
:101CB00059F80220974219D02A46984508BF324663
:101CC0008F681268974211D00C22984508BF2422D1
:101CD000CF6859F80220974208D01022984508BFD3
:101CE00028220F6959F80220974267D1844221D1F6
:101CF0000422984508BF1C224C6859F802209442DF
:101D000018D10C22984508BF2422CC6859F802202B
:101D100094420FD11022984508BF28220C6959F827
:101D20000220944206D15AF8040C40F001004AF80F
:101D3000040C43E00AEB80000422984508BF1C22F3
:101D400050F8044C24F0010440F8044C59F8020007
:101D500038B10AEB800050F8042C22F0100240F851
:101D6000042C98454FF00C0208BF3546984528686A
:101D700008BF24220AEB800050F8044C24F480743D
:101D800040F8044C59F8020040B1012222EA000058
:101D90005AF8202022F480324AF82020102098455A
:101DA00008BF282059F8000040B1012222EA0000B3
:101DB0005AF8202022F080724AF8202088684FF4D8
:101DC000407298450AEB800050F8044C08BF4FF46D
:101DD000807224F44074224440F8042C48695AF874
:101DE000042C441EC2F3074294420BD900245AF833
:101DF000042CCFF6FF7422F47F0204EB0040104362
:101E00004AF8040C5AF8042C08680138D2075AF82A
:101E1000204024F0030427D10322984508BF012263
:101E200022434AF82020486860B10AEB8000302243
:101E3000984550F8044C08BF102224F02004224397
:101E400040F8042CC868C20326D4A8B301229845E0
:101E500022EA00004FF0A0625AF8204024F0E0642B
:101E600008BF4FF0807224E044F001024AF82020BD
:101E7000486840B10AEB8000012450F8042C64F358
:101E8000051240F8042CC868C20328D4A0B34FF050
:101E900080746FF0E06526E00122984522EA000098
:101EA0004FF4A0225AF8204008BF4FF4803224F4A7
:101EB000E02422444AF820200869C10329D40028DC
:101EC00040D00121984521EA00004FF0E0615AF826
:101ED000202022F0E06208BF4FF0407126E04FF46E
:101EE00080346FF4E025012222EA00005AF8202015
:101EF0002A4022434AF820200869C10318D408B3B5
:101F00000121032221EA00005AF8201062F31A612D
:101F100016E00121984521EA00004FF4E0215AF82B
:101F2000202008BF4FF4403122F4E022114407E0A2
:101F30000121032221EA00005AF8201062F3124125
:101F40004AF820105FEACC7003D0186840F0010016
:101F500018605FEA8C7005D5DEF8000040F00100E3
:101F6000CEF8000000200CB0BDE8F08700000000B3
:101F700070B50446FFF7B8FB2CB10546002060653C
:101F8000216D11B170BD012070BD204600F084F8B4
:101F900041F28830A065206804F10C034FF6F40C80
:101FA00040F2000E0ECB8668CFF6E00CCFF6FF7E37
:101FB00006EA0C060EEB024231436FF0FF0C666B33
:101FC00011430CEB03223143E36911431943816050
:101FD000C168226A21F4E0211143C160216BA26B28
:101FE00042EA01410161E16B41610168626821F4EB
:101FF000F8510CEB022211430160006A80060AD5F9
:1020000041F28936FFF770FB401BB04206D22068D0
:10201000006A8006F6D40020012108E04FF4007029
:102020002065606D002140F00100606501200029FD
:1020300008BF70BD2168666AA268013EA369CD68C9
:1020400025F0FF05022B46EA0506CE600E6826F055
:10205000400642EA06020A60D1F8082122F0A042B6
:10206000D4E90A6542EA060242EA0502C1F80821FB
:102070000A6842F001020A6003D18A6842F0020253
:102080008A60E1680222B1F1806F08BF01222265F7
:1020900070BD0000000000002DE9F04FB5B004460F
:1020A00002A8B8210025CDE93355CDE93155309549
:1020B000FEF760F945F200012068C5F20021884270
:1020C00002D035B0BDE8F08F4FF00070029002A84A
:1020D0000395159500F0E0FA08B1FEF795F944F282
:1020E000E04040F20008C5F60200C5F6020830AC38
:1020F000022750F80C1C4FF0000941F4001140F881
:102100000C1C50F80C1C4FF0030B01F40011019152
:10211000019950F80C1C41F4804140F80C1C50F817
:102120000C1C4FF0090A01F48041019101990168EA
:1021300041F001010160016801F001010191019983
:10214000016841F002010160016801F002010191A2
:102150000199016841F010010160016801F010016E
:1021600001910199016841F0080101600068214670
:1021700000F00800019001984046CDE93077CDF895
:10218000C890CDF8CCB0CDF8D0A0FFF7D1F930A9E8
:10219000082081E8810A0620349040462146FFF756
:1021A000C7F930A9012008F58066042581E8810A75
:1021B000304621463495FFF7BBF930A82146CDF8CB
:1021C000D0A080E8A00A3046FFF7B2F930A84FF45B
:1021D0000065214680E8A00A0B20349008F5805065
:1021E000FFF7A6F930A82146CDF8D0A080E8A00AD4
:1021F00008F54060FFF79CF935B0BDE8F08F0000AE
:1022000001680122C0F80025002280F8F4248869C2
:1022100040F000608861486D40F08052002042F03C
:1022200003024A6570470000002800F08B802DE90A
:10223000F04F8BB00446056890F8BD0428B9002023
:1022400084F8BC04204600F093F8032084F8BD0411
:10225000E86BC00501D40020E060206804F018FCA1
:1022600020680A9004F1040E04F11C0AD4E90C5011
:102270009EE80E589AE8C007CDE9085003A88DE8FB
:10228000005880E8C0070A9804F072FA002852D17A
:1022900020680021002504F003FC616869B304F1A3
:1022A0003C004FF0010C0022002300BF02EBC202F1
:1022B00000EB820700F82230DAB201337A83DAB217
:1022C00087F801C091423D71BD60FD603D61EDD870
:1022D00004F51F7000220025002300BF05EBC50791
:1022E00000F827300133DDB200EB8706A942727097
:1022F0003271B260F2603261F0D804F1140E04F170
:10230000240A2268A0680A90D4E903379EE840585E
:102310009AE80007D4E90C50CDE9085002A8CDE9AD
:10232000007680E8005805A880E8000710460A9A61
:1023300004F0BAFA40B1022084F8BD0401200BB0C9
:10234000BDE8F08F01207047002084F8380001209C
:1023500084F8BD04606A012802D12046FFF750FFCF
:10236000206804F091FA00200BB0BDE8F08F000067
:1023700010B5B0B0044602A8B821FDF7FBFF00215C
:102380002068C4F20401884201D030B010BD0020A2
:1023900003904FF4802002904FF44010239002A845
:1023A00000F07AF908B1FEF72FF800F035F844F2A2
:1023B000D840C5F60200016841F000710160006874
:1023C00000F000700190019830B010BD00000000D6
:1023D000B0B544F60C05C5F6020529684907296819
:1023E00005D401F00701081A18BF0120B0BD21F083
:1023F000070108432860FFF777F9044655F8080CF1
:10240000800407D4FFF770F9001BB0F57A7FF5D987
:102410000120B0BD0020B0BD44F60C00C5F602009E
:10242000016841F080710160704700000000000009
:1024300080B500F00DFF44F2204146F61472C5F657
:102440000201C0F600020968C1F30211515C01F0FB
:102450001F01C84080BD000080B544F2384EC5F66B
:10246000020E5EF8103C5EF8101C5EF80C2CC1F3F6
:10247000053CDEF80410BCF1000F18D0C9089FED30
:102480003A1AD20601EAE27103F003026FF35F31F8
:1024900000EE101AB8EE400ADFE802F0021F0E1F2D
:1024A0005EF8381C89060AD49FED311A15E0002128
:1024B0008160C0E9001180BD9FED2C1A0DE05EF82F
:1024C000381C49F20002C0F2D032C1F3C10122FA35
:1024D00001F101EE101AB8EE411ADEF800109FED7E
:1024E000253A6FF35F2102EE101ADEF80010C1F3F7
:1024F0004621B8EE422A013100EE032A00EE10CA4E
:10250000B7EE003AB8EE400A81EE000A32EE031A46
:1025100020EE010A01EE101AB8EE411A80EE011AFF
:10252000BCEEC11A80ED001ADEF80010C1F30641BE
:10253000013101EE101AB8EE411A80EE011ABCEE1C
:10254000C11A80ED011ADEF80010C1F306610131F5
:1025500001EE101AB8EE411A80EE010ABCEEC00A74
:1025600010EE101A816080BD0024744A001BB74B26
:102570000024744C0000003980B544F2404EC5F68A
:10258000020E5EF8183C5EF8181C5EF8142CC1F3BD
:10259000055CDEF80410BCF1000F18D0C9089FEDEF
:1025A0003A1AD20501EAE27103F003026FF35F31D8
:1025B00000EE101AB8EE400ADFE802F0021F0E1F0C
:1025C0005EF8401C89060AD49FED311A15E00021FF
:1025D0008160C0E9001180BD9FED2C1A0DE05EF80E
:1025E000401C49F20002C0F2D032C1F3C10122FA0C
:1025F00001F101EE101AB8EE411ADEF800109FED5D
:10260000253A6FF35F2102EE101ADEF80010C1F3D5
:102610004621B8EE422A013100EE032A00EE10CA2C
:10262000B7EE003AB8EE400A81EE000A32EE031A25
:1026300020EE010A01EE101AB8EE411A80EE011ADE
:10264000BCEEC11A80ED001ADEF80010C1F306419D
:10265000013101EE101AB8EE411A80EE011ABCEEFB
:10266000C11A80ED011ADEF80010C1F306610131D4
:1026700001EE101AB8EE411A80EE010ABCEEC00A53
:1026800010EE101A816080BD0024744A001BB74B05
:102690000024744C000000392DE9F04381B0044659
:1026A000C07844F22C490007C5F6020901D4002580
:1026B00020E0606E4FEA3050032835D80025DFE86F
:1026C00000F0020A1C22D9F8000040F40030C9F8DA
:1026D0000000D5B906E004F10800022103F010FA69
:1026E000054695B9D9F82400616E20F440100843DE
:1026F000C9F824004FF0000808E004F12800022186
:1027000003F08EFA0546002DECD0A8466078C0078D
:102710001ED0A06D04283ED8DFE800F02B340A0359
:1027200003006DB1A84613E00125002DEDD1D9E7D6
:1027300004F12800002103F073FA0546002DF1D1C1
:10274000D9F82400A16D20F007000843C9F824003F
:102750006078400747D5D4F8A4004FEA70500528A8
:102760002CD8DFE800F01C2F2503030395B3A846FF
:1027700039E0D9F8000040F40030C9F80000002D1D
:10278000D0D1DDE704F10800002103F0B9F90546D6
:10279000002DC7D1D4E70125002DC3D1D0E7D9F84A
:1027A000000040F40030C9F80000002DDFD111E036
:1027B00004F12800002103F033FA08E00125002D80
:1027C000D5D107E004F10800002103F099F905468E
:1027D000002DCCD1D9F82C00D4F8A41020F460003E
:1027E0000843C9F82C006078000731D5D4F8A80058
:1027F0004FEA3060052816D8DFE800F006190F030D
:102800000303E5B1A84623E0D9F8000040F4003006
:10281000C9F80000002DF5D111E004F128000021D5
:1028200003F0FEF908E00125002DEBD107E004F1EB
:102830000800002103F064F90546002DE2D1D9F823
:102840002C00D4F8A81020F0E0600843C9F82C0050
:10285000E07880071BD5E06C4FEA301003282FD8B2
:10286000DFE800F0020525024DB1A8460FE0D9F8D7
:10287000000040F40030C9F80000002DF5D1D9F86F
:102880002000E16C20F030000843C9F82000607897
:10289000C00629D5E06D4FEA3030042849D8DFE87A
:1028A00000F0363F13030300B5B1A8461CE004F165
:1028B0000800022103F024F90546002DD5D1DEE7FA
:1028C0000125002DD1D1DAE704F12800002103F021
:1028D000A7F90546002DE8D1D9F82400E16D20F4D0
:1028E000E0400843C9F824006078800639D5206E9E
:1028F0004FEA3040052829D8DFE800F025031F25DE
:10290000252504F10800012103F0FAF81AE0D9F8AE
:10291000000040F40030C9F80000002DC5D1DBE70D
:1029200004F10800002103F0EBF80546002DBCD1AE
:10293000D2E70125002DB8D1CEE704F1280001210E
:1029400003F06EF9054625B1A8460AE00125002DE1
:10295000FAD1D9F82400216E20F4E0200843C9F808
:1029600024006078400625D5D4F8AC004FEA3070DA
:10297000052813D8DFE800F00F03090F0F0F04F14B
:102980000800012103F0BCF804E004F12800012153
:1029900003F046F9054625B1A8460BE00125002DB8
:1029A000FAD1D9F82C00D4F8AC1020F0E04008435C
:1029B000C9F82C006078000620D5E06ED8B1B0F1DF
:1029C000005F12D0B0F1805F26D1D9F8000040F44A
:1029D0000030C9F8000085B9D9F82400E16E20F074
:1029E00040500843C9F8240008E004F10800012120
:1029F00003F086F80546002DEED0A846E078C00723
:102A00001ED0A06C032800F28080DFE800F00209ED
:102A100074026DB1A84613E00125002DEDD1DBE76E
:102A2000D9F8000040F40030C9F80000002DF1D1C1
:102A3000D9F82000A16C20F003000843C9F8200059
:102A4000A078400644D5D9F8D40340F48070C9F882
:102A5000D403FEF749FE0646D9F8D403C00505D4D1
:102A6000FEF742FE801B6528F6D303257DBBD9F80F
:102A70004410D4F8B000414011F4407F11D0D9F88F
:102A80004410D9F8442042F48032C9F84420D9F8DF
:102A9000442021F4407122F48032C9F84420C9F85E
:102AA0004410B0F5807F0FD1FEF71EFE064641F2BE
:102AB000893700BFD9F84400800705D4FEF714FE1B
:102AC000801BB842F6D30325002D00F07A82A84679
:102AD0002078C00732D0A06F4FEAF000052822D836
:102AE000DFE800F01E03181E1E1E04F1080001217D
:102AF00003F006F813E004F10800022103F000F8E7
:102B00000546002D7FF486AF92E70125002D7FF466
:102B100081AF8DE704F12800012103F081F805461B
:102B200025B1A8460AE00125002DFAD1D9F82800E0
:102B3000A16F20F038000843C9F8280020788007EA
:102B400021D5606F052813D8DFE800F00F03090FC7
:102B50000F0F04F10800012102F0D2FF04E004F19C
:102B60002800012103F05CF8054625B1A8460AE0DB
:102B70000125002DFAD1D9F82800616F20F0070057
:102B80000843C9F828002078400723D5D4F89000DE
:102B9000052813D8DFE800F00F03090F0F0F04F129
:102BA0000800012102F0ACFF04E004F1280001213B
:102BB00003F036F8054625B1A8460BE00125002DA7
:102BC000FAD1D9F82C00D4F8901020F0070008436F
:102BD000C9F82C002078800625D5D4F88C004FEA5F
:102BE0003070052813D8DFE800F00F03090F0F0F2E
:102BF00004F10800002102F083FF04E004F1280042
:102C0000022103F00DF8054625B1A8460BE0012589
:102C1000002DFAD1D9F82800D4F88C1020F0E0402B
:102C20000843C9F828002078400625D5D4F8980034
:102C30004FEAB020052813D8DFE800F00F03090F92
:102C40000F0F04F10800002102F05AFF04E004F124
:102C50002800022102F0E4FF054625B1A8460BE05A
:102C60000125002DFAD1D9F82C00D4F8981020F4C1
:102C7000E0500843C9F82C002078000625D5D4F888
:102C80009C004FEA7030052813D8DFE800F00F03EE
:102C9000090F0F0F04F10800002102F031FF04E0DA
:102CA00004F12800022102F0BBFF054625B1A84629
:102CB0000BE00125002DFAD1D9F82C00D4F89C1096
:102CC00020F460400843C9F82C002078000716D58E
:102CD000D4F88000B0F5805F08D104F1280002210B
:102CE00002F09EFF002818BF4FF00108D9F8280015
:102CF000D4F8801020F440500843C9F82800207808
:102D0000C00616D5D4F89400B0F5807F08D104F140
:102D10002800022102F084FF002818BF4FF00108AC
:102D2000D9F82C00D4F8941020F440700843C9F866
:102D30002C00A078000724D5D4F8A000B0F5003FFF
:102D40001CD0B0F5803F13D0002840F0E58004F19E
:102D50000800002102F0D4FE05468DB9D9F82C00F8
:102D6000D4F8A01020F440300843C9F82C0008E043
:102D700004F12800022102F053FF0546002DEDD09A
:102D8000A846A078400725D5D4F88400B0F5401FA8
:102D90001DD0B0F5001F14D0B0F5801F40F0C180E9
:102DA000D9F8000040F40030C9F800008DB9D9F816
:102DB0002800D4F8841020F440100843C9F82800F3
:102DC00008E004F12800012102F02AFF0546002D49
:102DD000EDD0A846A078C0071FD0206DB0F5803F89
:102DE0000BD0002840F09380D9F8000040F4003068
:102DF000C9F800004DB1A8460FE004F10800022117
:102E000002F07EFE0546002DF5D1D9F82000216D97
:102E100020F480300843C9F82000E078800608D507
:102E200004F12800022102F0FBFE002818BF4FF039
:102E30000108D4E900108A0340F18280E26F6FF04C
:102E4000010303EB3223022B0AD34FEA32233BB1B7
:102E5000012B6BD1D9F8003043F40033C9F80030AE
:102E6000002D66D0CA026ED48A0277D44A0000F1DF
:102E70008080CA0F40F08D80090200F19580C00764
:102E800007D004F10800002102F03AFE002818BF24
:102E900005462079800707D504F10800012102F0DA
:102EA0002FFE002818BF05462079400707D504F1FA
:102EB0000800022102F024FE002818BF05462079F0
:102EC000000707D504F12800002102F0A9FE002820
:102ED00018BF05462079C00607D504F12800012156
:102EE00002F09EFE002818BF05462079800607D50F
:102EF00004F12800022102F093FE002818BF0125EA
:102F0000002D18BF0125284601B0BDE8F08301253A
:102F1000002D7FF470AF78E70125002D7FF430AFEE
:102F20001CE70125002D7FF454AF40E70125002D5B
:102F300098D1D9F8283023F440731A43C9F82820CF
:102F40004546CA0290D5D9F82420236F22F00042CA
:102F50001A43C9F824208A027FF588AFD9F82420C3
:102F6000A36E22F080721A43C9F824204A007FF52C
:102F700080AF59F81C2C22F4004249F81C2CD4F8DC
:102F8000B42059F81C3C1A4349F81C2CCA0F3FF4D2
:102F900073AFD9F82020636D22F040521A43C9F86C
:102FA000202009027FF56BAFD9F82810D4F88820CB
:102FB00021F440011143C9F82810C0077FF461AF24
:102FC00067E74FF6CF73D4F8B00059F81C2CC0F265
:102FD000FF0300F4407122F47C5203EA1013B1F5B0
:102FE000407F08BF1A436FF31F3049F81C2CD9F8F3
:102FF00044100843C9F844006AE5000000000000DE
:103000002DE9F04381B0002800F0F88042F200087A
:103010000446C5F200288946D8F8000000F00F00E9
:1030200081420ED9D8F8000020F00F0040EA0900D4
:10303000C8F80000D8F8000000F00F00484540F044
:10304000DD80206844F218474107C5F602070AD51B
:1030500021693A6802F07002914204D93A6822F07C
:1030600070021143396001070AD561697A6802F07C
:103070007002914204D97A6822F07002114379609B
:10308000C1060AD5A1697A6802F4E062914204D9C6
:103090007A6822F4E0621143796081060AD5E16919
:1030A000BA6802F07002914204D9BA6822F0700244
:1030B0001143B96081070AD5E1683A6802F00F024E
:1030C000914204D93A6822F00F0211433960C007D7
:1030D00040F08080206881070AD5E1683A6802F0F4
:1030E0000F02914204D23A6822F00F021143396074
:1030F000D8F8001001F00F0189450DD2D8F8001062
:1031000021F00F0141EA0901C8F80010D8F80010B9
:1031100001F00F01494571D141070AD521693A688B
:1031200002F07002914204D23A6822F07002114318
:10313000396001070AD561697A6802F0700291422C
:1031400004D27A6822F0700211437960C1060AD570
:10315000A1697A6802F4E062914204D27A6822F4AA
:10316000E0621143796080060AD5E069B96801F030
:103170007001884204D2B96821F070010843B86038
:1031800000F0EEF8396846F61472C0F60002C1F39A
:103190000321515C3B6803F00F0301F01F01D25C77
:1031A00020FA01F102F01F0040F20802C2F20042D0
:1031B00021FA00F0106040F2100040F20402C2F266
:1031C0000040C2F200420068116001B0BDE8F04367
:1031D000FEF7C2BB386820F47061D4E901021143E4
:1031E0003960012857F8181C0CD0032804D0022895
:1031F00028D1890302D507E0890105D4012001B057
:10320000BDE8F083C905F9D557F8081C21F007017E
:10321000084347F8080CFEF767FA064641F288357E
:1032200057F8080C616800F03800B0EBC10F3FF4AC
:1032300051AFFEF759FA801BA842F1D9032001B023
:10324000BDE8F0834907D9D5DEE7000000000000A3
:1032500080B500F085F844F2184146F61473C5F6BF
:103260000201C0F600030A68C2F303229A5C0968EF
:1032700001F00F0102F01F02595C20FA02F201F086
:103280001F0040F20801C2F2004122FA00F008607B
:1032900040F20401C2F200410A6080BD000000005B
:1032A00080B500F05DF844F2184C46F61473C5F68C
:1032B000020CC0F60003DCF80020C2F303229A5C83
:1032C000DCF8001001F00F0102F01F02595CD04041
:1032D00040F20802C2F2004201F01F0120FA01F19F
:1032E000116040F20402C2F200421060DCF80400F7
:1032F000C0F30210185C00F01F0021FA00F080BD3E
:1033000080B500F02DF844F2184C46F61473C5F65B
:10331000020CC0F60003DCF80020C2F303229A5C22
:10332000DCF8001001F00F0102F01F02595CD040E0
:1033300040F20802C2F2004201F01F0120FA01F13E
:10334000116040F20402C2F200421060DCF8040096
:10335000C0F30220185C00F01F0021FA00F080BDCD
:1033600044F20041C5F602010869C0F3C200032817
:1033700014D002280DD088BB0868800649F20000EE
:10338000C0F2D03058BF70470968C1F3C101C840CE
:10339000704743F20060C0F26E1070478B6A886A13
:1033A000D1F82CC04A6BC0F30510E0B1C2F3CC02D7
:1033B00003F0030300EE102A9FED291AB8EE400A2D
:1033C00020EE010A9FED271ADFE803F0021F0F1F0E
:1033D0000A6892060CD49FED251A16E040F60010FC
:1033E000C0F23D007047002070479FED1F1A0CE0AF
:1033F0000A6849F20003C0F2D033C2F3C10223FAD3
:1034000002F201EE102AB8EE411A0A6B9FED183A4B
:103410006FF35F2202EE102A5FEACC7203FE000A0D
:1034200003EE100A086BB8EE422AC0F34620B8EE4D
:10343000433A013030EE020AB7EE002A81EE031A59
:1034400030EE020A21EE000A01EE100AB8EE411A2F
:1034500080EE010ABCEEC00A10EE100A704700BFF1
:10346000000000390024744A001BB74B0024744C40
:10347000000000000000000070B586B0002844F293
:10348000E04640F2000014460D46C5F60206C5F6B9
:1034900002001FD0316800F5006041F00401316086
:1034A000316801F00401019101994FF4007101911B
:1034B000022102910321049100210391059101A9A8
:1034C000FEF736F856F8D00C20F07E4040EAC410E3
:1034D00028431BE0316841F001013160316801F09F
:1034E0000101019101994FF4807101910221029132
:1034F0000321049100210391059101A9FEF718F819
:1035000056F8D00C20F0FE702843204346F8D00C2B
:1035100006B070BD000000002DE9F04381B0002826
:1035200000F097818046007844F20049C007C5F654
:10353000020954D0D9F8100000F03801D9F8280059
:10354000102905D018290CD100F00300022808D159
:10355000D9F8000080033ED5D8F80400D8BB012775
:103560002CE0D8F80450D9F800002DB1B5F5A02F03
:103570000BD0B5F5803F0ED020F48030C9F80000A4
:10358000D9F8000020F4802007E040F48020C9F83A
:103590000000D9F8000040F48030C9F80000FEF7C0
:1035A000A3F8002D054612D0D9F80000800312D4EC
:1035B000FEF79AF8401B6428F6D90327002070B95B
:1035C0008CE100BFFEF790F8401B6428F5D8D9F8CD
:1035D00000008003F6D40120002800F07F8198F8D5
:1035E000000080076AD5D9F8100010F03801D9F82A
:1035F00028001DD0182908BF5FEA807018D0D8F8BD
:103600000C00D9F80010002840D021F0190108431F
:10361000C9F80000FEF768F8054600BFD9F80000B9
:10362000400727D4FEF760F8401B0228F6D91EE0B9
:10363000D9F80000400704D5D8F80C00002800F0A5
:10364000AC81D9F80000D8F80C1020F0190008431C
:10365000C9F80000FEF748F8054600BFD9F8000099
:10366000400707D4FEF740F8401B0228F6D903278D
:10367000002420E0D9F80400D8F8101020F0FE4013
:10368000012440EA0160C9F8040014E021F00100BF
:10369000C9F80000FEF728F805460126D9F8000011
:1036A00010F0040086EA900405D0FEF71DF8401BD8
:1036B0000228F3D90327002C00F0108198F80000AD
:1036C000C00656D5D9F8100000F03801D9F8280006
:1036D000082905D0182917D100F00300012813D1BB
:1036E000D9F80000C00503D5D8F81C0080283BD1CC
:1036F000D9F80C00D8F8201020F07C50012440EAC2
:103700000160C9F80C0031E0D8F81C000028D9F895
:10371000000012D040F08000C9F80000FDF7E4FF7F
:10372000054600BFD9F80000C005E1D4FDF7DCFF75
:10373000401B0228F6D9032717E020F08000C9F8C3
:103740000000FDF7D1FF0546012600BFD9F80000B3
:1037500010F4807086EA102408D0FDF7C5FF401BE6
:103760000228F3D9032701E001270024002C00F0F0
:10377000B58098F8000000076DD498F80000800626
:1037800000F1818098F80000400700F19480D8F89B
:103790002440002C5BD0D9F8100000F03800182825
:1037A00040F0D980012CD9F82810D9F8300050D039
:1037B00001F00302D8F828309A424AD1C1F305112A
:1037C000D8F82C20914244D10146D8F830206FF32C
:1037D0005F21013A91423CD1C0F34622D8F834101F
:1037E00001398A4235D1C0F30642D8F83810013980
:1037F0008A422ED1C0F30660D8F83C1001398842C5
:1038000027D1D9F83400D8F84810C0F3CC00814251
:103810001DD0D9F82C0020F00100C9F82C00FDF7CC
:1038200063FF0546FDF760FFA842FBD0D9F83400DE
:103830004FF6F871D8F84820884340EAC200C9F82A
:103840003400D9F82C0040F00100C9F82C00002702
:1038500044E0012742E0D8F814000028D9F87400A9
:1038600040D040F00100C9F87400FDF73DFF054667
:10387000D9F8740080073FF580AFFDF735FF401B96
:103880000228F5D929E0D8F818000028D9F8000056
:103890004DD040F48050C9F80000FDF725FF0546E3
:1038A000D9F8000080043FF56DAFFDF71DFF401B08
:1038B0000228F5D911E0D9F8000440F48070C9F865
:1038C0000004FDF711FF0546D9F80004C0051CD41B
:1038D000FDF70AFF401B6428F6D90327F8B201B0B0
:1038E000BDE8F08320F00100C9F87400FDF7FCFE8C
:1038F00005460327D9F8740080077FF53EAFFDF732
:10390000F3FE401B0228F5D9E8E7D8F80850D9F8AB
:1039100070001DB1052D42D0012D46D020F00100D0
:10392000C9F87000D9F8700020F004003FE020F4DE
:103930008050C9F80000FDF7D7FE0546032700BFF9
:10394000D9F8000080047FF51DAFFDF7CDFE401BC8
:103950000228F5D9C2E7D9F8000020F08070C9F834
:103960000000FDF7C1FE022C05464FF0030709D108
:10397000D9F8000080013CD5FDF7B6FE401B0228B7
:10398000F6D9ABE7D9F8000080017FF560AFFDF70D
:10399000ABFE401B0228F5D9A0E7012768E640F0FE
:1039A0000400C9F87000D9F8700040F00100C9F8AF
:1039B0007000FDF799FE002D054641F288344FF066
:1039C000030711D0D9F8700080073FF5E0AEFDF78E
:1039D0008BFE401BA042F5D980E700BFFDF784FEB7
:1039E000401BA0423FF67AAFD9F870008007F5D4AB
:1039F000CDE608F12807D9F8280040F2F3318843D2
:103A00008ECF0843591E40EA02104FF47E426FF3F6
:103A10005F21C9F8280002EB47204FF4FE0280B274
:103A2000D8F83C300844D8F8381002EB01414FF088
:103A3000FE4201F4FE0102EB0362084402F0FE4183
:103A40000844C9F83000D9F82C004FF6F87120F07E
:103A50000100C9F82C00D9F83400D8F84820884370
:103A600040EAC200C9F83400D9F82C00D8F8401058
:103A700020F00C000843C9F82C00D9F82C00D8F825
:103A8000441020F002000843C9F82C00D9F82C009B
:103A900040F48030C9F82C00D9F82C0040F40030F4
:103AA000C9F82C00D9F82C0040F48020C9F82C006B
:103AB000D9F82C0040F00100C9F82C00D9F800001A
:103AC00040F08070C9F80000FDF70EFE04460327A1
:103AD000D9F8000080013FF5BAAEFDF705FE001BE6
:103AE0000228F5D9FAE60000F0B581B0C8B1044665
:103AF000D0F888001E4615460F4628B9002084F8E5
:103B00008400204601F028F92420C4F888002068A9
:103B1000016821F001010160204602F059FB0128F3
:103B200002D1012001B0F0BDA06A10B1204602F020
:103B30007FFA2068816841F480418160816821F4C6
:103B40000041394381603104026841EA45516FF315
:103B5000194211430160016841F0010101602046F2
:103B600001B0BDE8F04002F0D3BA00000000000050
:103B7000002863D02DE9F04743F600040168C4F241
:103B8000000443F2000E43F6004CA142C4F2010EC1
:103B9000C4F2000C4FF00002826204D0614518BFED
:103BA000714540F0B480C26B0125C368A14203F1A6
:103BB000080305EB52124FEAD30303FB02F218BFCE
:103BC000714540F09280102A00F2A58090F8811093
:103BD00031B9002180F88010044600F0A1F8204699
:103BE000022180F881100168D0F818E00A68BEF15F
:103BF000806F22F001020A608B680FD144682CB1FB
:103C0000B4F5800F0AD1826B22B13CB9826BB2F15C
:103C1000805F03D10A6842F480520A60D0F80490B1
:103C200003F4F8135FEA492C0AD5C268072A07D3C0
:103C30000A68056D22F480722A4304E0012070476F
:103C40000A6822F480720A60B9F1000FC269856ABD
:103C500042EA0302C36B42EA050242EA0302D0E9E8
:103C60000285D0E9046A42EA05028A60426B876BEA
:103C7000456A42EA0502056A42EA070242EA06028A
:103C800042EA0A02D0E9124342EA050242EA03028A
:103C9000836D42EA080242EA040242EA030242EA6F
:103CA0000E0242EA0902CA6009D18A68012363F35D
:103CB000CC228A608A68022363F34A228A600A6DF2
:103CC000BCF1000F22F001020A6505D5CA68436DF8
:103CD00022F000421A43CA600021C0F8841001217A
:103CE00080F881100020BDE8F087614518BF082AE0
:103CF00011D8A14218BF71453FF465AF61457FF40B
:103D000065AF102A84BF0120BDE8F0875EE7C26876
:103D10000F2A7FF648AF0120BDE8F08700000000C1
:103D2000F0B5B5B0044602A8B8210025CDE9335559
:103D3000CDE931553095FCF71DFB43F600012068B5
:103D4000C4F20001884200F0828043F60041C4F2D0
:103D50000001884249D043F20001C4F201018842C7
:103D600040F0BB804FF48050029002A800250395DC
:103D70001995FEF791FC08B1FCF746FB44F2E040D0
:103D800040F20044C5F60200C5F6020402260527EB
:103D9000016941F480510161016901F4805101918F
:103DA0000199016841F008010160016801F0080112
:103DB00001910199016841F002010160006830A998
:103DC00000F00200019001988020309004F500601E
:103DD000CDE9316533953497FDF7AAFB1820349768
:103DE000CDE93006CDE9325573E04FF480500290B2
:103DF00002A8002403941994FEF74EFC08B1FCF7C6
:103E000003FB44F2E040C5F60200816841F4004142
:103E10008160816801F4004101910199016841F0DC
:103E200004010160006840F2004100F004000190CC
:103E3000C5F6020101984FF4E0503090022033940F
:103E4000CDE9310401F580640620349041E04FF45F
:103E50008050029002A803951995FEF71DFC08B149
:103E6000FCF7D2FA44F2E04040F20044C5F602000A
:103E7000C5F60204022500268168052741F4804129
:103E80008160816801F4804101910199016841F0EC
:103E900004010160016801F00401019101990168C8
:103EA00041F002010160006830A900F002000190B9
:103EB00001980620309004F580603195CDE9326696
:103EC0003497FDF735FB30A94FF40050CDE9336747
:103ED00061C130A92046FDF72BFB35B0F0BD0000D5
:103EE000411E0020B0EB116F01D0012070474EF24F
:103EF0001002F023CEF2000251604EF62351CEF2B2
:103F000000010B70072190601160704700000000F5
:103F10007047000000000000704700000000000033
:103F2000704700000000000090F83C20012A01D1F9
:103F300002207047F0B5CB6848F2FF7ED1E901C29C
:103F400023F47C5322F47052CFF6F07E42EA03044D
:103F50000CEA0E030A68234322F477220C691A4301
:103F600024F476238C691A434B691A430B6B22F4B1
:103F7000742223F470231A43D0F800E040F2004C7E
:103F80004EF48063C4F2010C012580F83C5042EAF3
:103F90000442634502BF22F08052CC69224363454C
:103FA00014D100268D6ACFF6F04622F07C720C6A9E
:103FB00006EA05552A4324F000744F6A22433A4327
:103FC000634502BF22F00052C96A0A43CEF844207A
:103FD000002180F83C100020F0BD0000000000002F
:103FE00090F83C20012A4FF0020269D0B0B50123BD
:103FF00080F83C3080F83D2040F2004C0268C4F26A
:10400000010C42F4806363455368D2F808E002BFB4
:1040100023F470034C6823434DF6FF740D68C4F21B
:10402000000423F07003A24243EA0503536014DC4A
:1040300040F2FF73C4F200039A4222DD40F600030F
:10404000C4F200039A422ED040F60043C4F20003AB
:104050009A4228D041F6000321E04FF6FF73C4F2E4
:1040600000039A4213DD0023C4F201039A421AD0DE
:1040700044F20003C4F201039A4214D0624512D004
:1040800016E0B2F1804F0ED040F2004307E04EF24E
:104090000003C4F200039A4205D04EF20043C4F27A
:1040A00000039A4204D12EF080038968194391607D
:1040B0000022012180F83D1080F83C20BDE8B0408E
:1040C000104670470000000060B310B5044690F839
:1040D0003D0028B9002084F83C00204600F024F878
:1040E000022084F83D002068211D01F0F5FE01202A
:1040F00084F8480084F83E0084F83F0084F84000CB
:1041000084F8410084F8420084F8430084F84400B5
:1041100084F8450084F8460084F8470084F83D00A0
:10412000002010BD0120704780B586B000680021D6
:10413000B0F1804F0591CDE903110291019101D0B9
:1041400006B080BD44F2E040C5F60200826842F04D
:1041500001028260826802F001020092009A026805
:1041600042F001020260006800F001000090009837
:10417000052001900220CDE90201012005900020D8
:104180000491C5F6020001A9FDF7D2F91C20002117
:104190000022FDF731FC1C20FDF71AFC06B080BDA3
:1041A00090F83D10012922D1022180F83D100168CC
:1041B0004DF6FF70C4F200008142C86840F0010073
:1041C000C86016DC40F2FF70C4F20000814228DDB6
:1041D00040F60000C4F20000814234D040F60040B6
:1041E000C4F2000081422ED041F6000027E00120F9
:1041F00070474FF6FF70C4F20000814217DD0020C7
:10420000C4F2010081421ED044F20000C4F2010059
:10421000814218D040F20040C4F20100814212D025
:104220001DE0B1F1804F0ED040F2004007E04EF2A9
:104230000000C4F20000814205D04EF20040C4F2FA
:10424000000081420BD107228868C0F201020240BF
:104250000020062A18BFB2F5803F00D170470868D9
:1042600040F00100086000207047000000000000DE
:1042700090F83C20012A4FF0020200F0A78080B5A0
:10428000012380F83C3080F83D208822D0F800C01F
:10429000CFF6CE72DCF808301A40CCF808200B6854
:1042A0006F2B0CDDB3F1101F34DAB3F5005F69DA60
:1042B000702B00F0AF80B3F5805F7ED0D0E02F2B65
:1042C00032DD4F2B37DC302B6BD0402B40F0C880D9
:1042D000D1F804E0C968DCF82030DCF8202022F0B6
:1042E0000102CCF82020DCF8182022F0F00242EA8B
:1042F000011123F00A02CCF8181042EA0E01CCF8A2
:1043000020104FF68872DCF80810CFF6CF721140FB
:10431000473150E02F21C0F210018B4237DCB3F15E
:10432000101F3ED0202138E0002B18BF102B38D0B2
:10433000202B36D094E0502B4AD0602B40F0908058
:10434000D1F804E0C968DCF8203023F01003CCF881
:104350002030DCF81830DCF8202023F4704322F001
:10436000A00243EA0131CCF8181042EA0E11CCF851
:1043700020104FF68872DCF80810CFF6CF7211408B
:10438000673118E059D0B3F5801F0AD068E03021BA
:10439000C0F210018B4204D04021C0F210018B42C8
:1043A0005ED14FF68872DCF80810CFF6CF7211405C
:1043B000194341F00701CCF808100022012180F8D0
:1043C0003D10002180F83C10BDE880401046704749
:1043D000D1F804E0C968DCF82030DCF8202022F0B5
:1043E0000102CCF82020DCF8182022F0F00242EA8A
:1043F000011123F00A02CCF8181042EA0E01CCF8A1
:1044000020104FF68872DCF80810CFF6CF721140FA
:104410005731D0E701F1040E9EE80C40DCF808109B
:104420001A4321F47F4142EA0E221143CCF80810CE
:10443000DCF8081041F07701BDE701F1040E9EE8B9
:104440000C40DCF808101A4321F47F4142EA0E22A6
:104450001143CCF80810DCF8081041F48041AAE7B9
:104460000122ABE7000000007047000000000000E0
:1044700010B5044600680169890744BFC1685FEA56
:10448000817147D420680169490744BFC1685FEA68
:1044900041714BD420680169090744BFC1685FEAD4
:1044A000017150D420680169C90644BFC1685FEA40
:1044B000C16154D420680169C9071CBFC1685FEAA3
:1044C000C17159D120680169090644BFC1685FEA1A
:1044D000016158D420680169C90544BFC1685FEA19
:1044E000016157D420680169490644BFC1685FEA89
:1044F000416156D420680169890646BFC1685FEAF8
:10450000816110BD6FF0200101612046BDE81040BF
:10451000FFF706BD6FF0020101610121217780697B
:10452000800745D02046FFF79FFF47E06FF004016A
:10453000016102212177806910F4407F41D020463B
:10454000FFF792FF43E06FF008010161042121773A
:10455000C06980073ED02046FFF786FF40E06FF03D
:104560001001016108212177C06910F4407F3AD021
:104570002046FFF779FF3CE06FF001010161204622
:1045800000F0FAFA9EE76FF0800101612046FFF724
:10459000C3FC9FE76FF4807101612046FFF7B8FC10
:1045A000A0E76FF040010161204600F0E9FAA1E7C1
:1045B000204600F021F8204600F0DAFA00202077AB
:1045C00060E7204600F018F8204600F0D1FA0020FD
:1045D00020775FE7204600F00FF8204600F0C8FA89
:1045E000002020775EE7204600F006F8204600F025
:1045F000BFFA002020775DE7704700000000000050
:1046000090F83C30012B01D1022070474FEAB203F1
:104610000122052B80F83C2000F23C822DE9F0417C
:10462000DFE803F003B753912DF5036843F6FF76F7
:10463000C4F201061A6AB34222F001021A621A4653
:104640001C6AD3F804C024F0020452F818EF8D68F5
:1046500044EA0504D1F8008040F3798144F2000770
:10466000C4F20107BB4200F07D8144F60007C4F2AA
:104670000107BB4200F0768144F200476EE1036817
:1046800043F6FF77C4F201071A6ABB4222F4803274
:104690001A621A46D3F820C05C6852F8546F0D684D
:1046A000D1F808E040F3D98044F20007C4F20107D2
:1046B000BB4200F0DD8044F60007C4F20107BB42B4
:1046C00000F0D68044F20047CEE0036840F2004E8E
:1046D00043F48067C4F2010E1A6A774522F48072AF
:1046E0001A621A461C6A5D6824F4007452F81CCFE2
:1046F0008E6844EA062407D1CE6840F2FF473602AE
:1047000024F44064BE43344343F6FF76D1F800807E
:10471000C4F20106B34240F3CB8044F20007C4F276
:104720000107BB4200F0CB8044F60007C4F201074A
:10473000BB4200F0C48044F20047C4F20107BB4210
:1047400000F0BD80C2E0036843F6FF77C4F20107C2
:104750001A6ABB4222F480521A621A46D3F820C069
:104760005C6852F81C6F0D68D1F808E040F3C58012
:1047700044F20007C4F20107BB4200F0C98044F6CE
:104780000007C4F20107BB4200F0C28044F20047B8
:10479000BAE0036840F2004E43F48067C4F2010EB1
:1047A0001A6A774522F010021A621A461C6A5D687E
:1047B00024F0200452F818CF8E6844EA061407D17A
:1047C000CE686FF0400724F0C00407EA06163443B1
:1047D00043F6FF76D1F80080C4F20106B34240F3FD
:1047E000D88044F20007C4F20107BB4200F0D88031
:1047F00044F60007C4F20107BB4200F0D18044F246
:104800000047C4F20107BB4200F0CA80CFE0036852
:1048100043F6FF77C4F201071A6ABB4222F4801202
:104820001A621A46D3F820C05C6852F8546F0D68BB
:10483000D1F808E040F3FC8044F20007C4F201071D
:10484000BB4200F0008144F60007C4F20107BB42FE
:1048500000F0F98044F20047F1E00027C4F20107BC
:10486000BB4205D040F20047C4F20107BB4204D16D
:104870004F6924F4803444EA07244FF68C775C6057
:10488000CFF6FE7703373E402CF4003746EA0504A6
:104890005C654E6809699E6547EA0E471F625F6D59
:1048A00047F008075F655F6D27F004075F65EBE081
:1048B0000027C4F20107BB4201D0734506D1D1E9FC
:1048C0000576374325F4405646EA07154FF68C77B0
:1048D0005D60CFF6FE7707EA0C0747EA0807DF615D
:1048E0004F680969DF631C62DF6947F00807DF6111
:1048F000DF6927F00407DF61C6E00027C4F2010783
:10490000BB4205D040F20047C4F20107BB4204D1CC
:104910004F6924F4804444EA871448F6FF475C60FA
:10492000CFF6FF673E402CF4005746EA0524DC61D1
:104930004E6809691E6447EA0E371F62DF6947F453
:104940000067DF61DF6927F48067DF619BE0002794
:10495000C4F20107BB4205D040F20047C4F2010790
:10496000BB4205D1CF6824F00C0427F004073C4378
:10497000B34233DD44F20006C4F20106B34238D03C
:1049800044F60006C4F20106B34232D044F20046B7
:104990002BE00027C4F20107BB4201D0734506D1CA
:1049A000D1E90576374325F4406646EA870548F69F
:1049B000FF475D60CFF6FF6707EA0C0747EA082765
:1049C0009F614F6809699F631C629F6947F4006794
:1049D0009F619F6927F480679F6154E00026C4F2BD
:1049E0000106B34205D040F20046C4F20106B342CC
:1049F00006D12CF44077D1E90565374347EA050C29
:104A00004FF68C75C3F804C0CFF6FE750EEA0507A5
:104A100047EA08079F614F6809695F631C629F69E5
:104A200047F008079F619F6927F004079F612BE00B
:104A30000027C4F20107BB4205D040F20047C4F290
:104A40000107BB4204D14F6924F4802444EA87243F
:104A500048F6FF475C60CFF6FF6707F540773E40BA
:104A60002CF4001746EA05245C654E680969DE658A
:104A700047EA0E571F625F6D47F400675F655F6D21
:104A800027F480675F6509021368194311600022EB
:104A9000BDE8F041002180F83C101046704700004E
:104AA00060B310B5044690F83D0028B9002084F8A2
:104AB0003C00204600F024F8022084F83D002068E5
:104AC000211D01F009FA012084F8480084F83E0015
:104AD00084F83F0084F8400084F8410084F84200E4
:104AE00084F8430084F8440084F8450084F84600C4
:104AF00084F8470084F83D00002010BD0120704775
:104B000080B586B000220068C4F201020021904204
:104B10000591CDE903110291019101D006B080BD4C
:104B200044F2E040C5F60200026942F0010202616F
:104B3000026902F001020092009A026842F010023B
:104B40000260006800F01000009000984FF40050E0
:104B500001900220CDE902010120059041F2000000
:104B60000491C5F6020001A9FCF7E2FC06B080BD85
:104B700070470000000000007047000000000000C7
:104B8000704700000000000090F88410012901D156
:104B9000022070472421C0F8881001680A680B6859
:104BA00022F0005223F001030B60002343660A60E9
:104BB0002021C0F8881080F8843000207047000061
:104BC00090F88420012A01D102207047B0B501235A
:104BD00080F884302422C0F888200268D0F864E08D
:104BE000BEF1000FD2F800C0146824F00104146074
:104BF000946824F0606441EA040191601BD09168DC
:104C000046F64C7E9368C0F6000E5B0F46F6547570
:104C1000C1F34261C0F600051EF80340EB5C2401BD
:104C2000B4FBF3F3A0F86A301EF80130695C1B0195
:104C3000B3FBF1F301E0A0F86A30A0F8683020215E
:104C4000C2F800C0C0F88810002180F8841000204D
:104C5000B0BD00000000000090F88420012A01D1BE
:104C600002207047B0B5012380F884302422C0F8B8
:104C700088200268D0F864E0BEF1000FD2F800C0CE
:104C8000146824F001041460946824F0604441EA3C
:104C9000040191601BD0916846F64C7E9368C0F683
:104CA000000E5B0F46F65475C1F34261C0F6000575
:104CB0001EF80340EB5C2401B4FBF3F3A0F86A3068
:104CC0001EF80130695C1B01B3FBF1F301E0A0F8B1
:104CD0006A30A0F868302021C2F800C0C0F88810FF
:104CE000002180F884100020B0BD0000000000000A
:104CF00010B5A8B10446D0F8880028B9002084F87F
:104D00008400204600F028F82420C4F88800206899
:104D1000016821F001010160204601F059FA08B153
:104D2000012010BDA06A10B1204601F081F9206871
:104D3000416821F490414160816821F02A0181603D
:104D4000016841F0010101602046BDE8104001F01A
:104D5000DFB9000000000000F0B5B5B00021044646
:104D6000CDE93311CDE93111309102A8B821FBF71B
:104D700001FB40F6FF712068C4F20101884244DC67
:104D800044F20041C4F20001884200F08D8044F6F4
:104D90000001C4F20001884200F0DF8047F6000104
:104DA000C4F20001884240F04D8102A8002403941F
:104DB000022502951F94FDF76FFC08B1FBF724FB59
:104DC00044F2E040C5F60200816841F08041816014
:104DD000816801F0804101910199016841F0100161
:104DE0000160006840F6004100F010000190C5F637
:104DF000020101984FF4C070CDE93005CDE932448D
:104E00000720349001F5806019E141F20001C4F2FD
:104E10000101884270D041F60001C4F201018842CC
:104E200000F0DF8041F60041C4F20101884240F009
:104E300009810120029002A8002503952095FDF725
:104E40002BFC08B1FBF7E0FA44F2E0400226C5F67D
:104E50000200016941F080010161016901F08001F6
:104E600001910199016841F010010160006830A9C9
:104E700000F010000190019804203090349040F62A
:104E80000040C5F60200339500F580642046CDE968
:104E90003165FCF74DFB20460821CDE93016CDE900
:104EA00032550B213491CAE002A800240394022554
:104EB00002951F94FDF7F0FB08B1FBF7A5FA44F249
:104EC000E040C5F60200816841F4003181608168EC
:104ED00001F4003101910199016841F0080101607C
:104EE000006800F00800019001987020CDE93005BD
:104EF0000720CDE932449DE00120029002A8002461
:104F000003942094FDF7C8FB08B1FBF77DFA44F247
:104F1000E040C5F60200016941F01001016101693C
:104F200001F0100101910199016841F00101016056
:104F3000006840F6004100F001000190C5F6020152
:104F400001984FF4C060309002203394CDE93104D1
:104F500007203490A1F5406071E002A8002403947A
:104F6000022502951F94FDF797FB08B1FBF74CFA59
:104F700044F2E04040F60047C5F60200C5F60207DD
:104F80000726816841F480218160816801F48021D5
:104F900001910199016841F002010160016801F08D
:104FA000020101910199016841F008010160006866
:104FB00030A900F00800019001984FF48040CDE93D
:104FC0003005A7F500603496CDE93244FCF7B0FA1D
:104FD00038464FF44071CDE93015CDE9324434966E
:104FE0002DE00120029002A8002403942094FDF7F4
:104FF00053FB08B1FBF708FA44F2E040C5F60200A3
:10500000016941F040010161016901F04001019134
:105010000199016841F008010160006800F0080092
:10502000019001984FF4404030900220CDE93104C6
:1050300033940B20349040F60040C5F6020030A9AE
:10504000FCF776FA35B0F0BDFEE700000000000086
:1050500080B540F208200021C2F20040C4F60201EF
:1050600001600021C0E90111C0E90311C0E9051187
:10507000C0E90811C0E90A110163FBF78DFA0028A5
:1050800008BF80BDBDE88040FBF7BEB9000000004E
:1050900080B540F258204AF20001C2F20040C4F24A
:1050A000000101224FF0040E01600021C0E902114D
:1050B00001824FF0130C82740523C0E905E2C0F8A9
:1050C0001CC0C0E9083EC0E90A2CC0E90C31C0E9A7
:1050D0000E33C0F840E00822C0E91121C0E91321D5
:1050E000C0E915E1C0E91712C0E91912FBF790FEFB
:1050F000002808BF80BDBDE88040FBF785B90000EF
:1051000080B540F2F8204AF20041C2F20040C4F2F9
:1051100000010122052301600021C0E90211018282
:105120004FF00E0C8274C0E90532C0E907C3C0E934
:105130000932C0E90BC340F256324166C0E90D2383
:10514000C0E90F3104220823C0E91122C0E913315C
:10515000C0E91521C0E9171206218166FBF758FE48
:10516000002808BF80BDBDE88040FBF74DB90000B6
:1051700080B540F298304DF20041C2F20040C4F2D6
:1051800000011022022301600021C0E90211C0F8D1
:105190000F10426101228261C0E90733C0E9092290
:1051A000C0E90B22C0E90D11C0E90F110422C0E9CA
:1051B0001121C0E91321C0E91521C0E91711C0E987
:1051C0001912FBF725FE002808BF80BDBDE880400E
:1051D000FBF71AB9000000002DE9F04F89B044F246
:1051E000E0400027C5F602000897CDE90677CDE933
:1051F0000477016840F2004A41F010010160016843
:10520000C5F6020A01F0100103910399016841F00B
:105210000401016001680AF5806401F00401039152
:105220000399016841F0800101600168002201F0EA
:10523000800103910399016841F001010160016857
:105240004EF2290601F0010103910399016841F032
:1052500002010160016801F00201039103990168F4
:1052600041F00801016000684EF2290100F00800D9
:10527000039003982046FCF72FFA0AF540654FF497
:10528000004100222846FCF727FA4FF48051002203
:105290005046FCF721FA0AF500604FF480610022C5
:1052A0000290FCF719FA049604AE01203146CDE9CC
:1052B000050720460797FCF73BF9AAF580692020EF
:1052C00004900320CDE9050748463146FCF730F944
:1052D0008020049008200890484631464FF0020B89
:1052E0000797CDE905B7FCF723F9102004900320B8
:1052F0003146CDE905072046FCF71AF950463146FC
:10530000CDE904BBCDE90677CDF820B0FCF710F964
:105310004FF4A05004904FF488103146CDE90507B2
:105320002846FCF705F94FF480403146CDE9040BDF
:105330000520089028460195CDE90677FCF7F8F896
:10534000284631464FF4004404944FF00108079773
:10535000CDE90587FCF7ECF84FF44060049012208B
:105360003146CDE905070420089050460797FCF721
:10537000DFF84FF480503146CDE9040850464FF035
:105380000108CDE90677FCF7D3F85046314604947E
:105390004FF40044CDE905B7CDE9077BFCF7C8F829
:1053A000029D4FF48060CDE9040828463146CDE9DE
:1053B0000677FCF7BDF84FF480703146CDE9040B59
:1053C00048460897CDE90677FCF7B2F84FF4881005
:1053D0003146CDE9050748460494FCF7A9F80420B6
:1053E0003146CDE9040B28460824CDE90677089418
:1053F000FCF79EF803203146CDE9040B0198089490
:10540000CDE90677FCF794F809B0BDE8F08F00000D
:1054100080B540F2384045F20041C2F200404AF205
:10542000F632C4F20001C2F2A002C0E9001200216B
:1054300081600122C0E90321C0E90511C0E907111B
:10544000FCF7A6F908B1FAF7DFFF40F23840002177
:10545000C2F20040FCF750F908B1FAF7D5FF40F26C
:1054600038400021C2F20040FCF76EF9002808BF66
:1054700080BDBDE88040FAF7C7BF00000000000013
:1054800010B586B040F28C4045F20002C2F20040F6
:105490000021CDE90411CDE90211CDE90011C5F2D9
:1054A000002202600124C160C0E9014120220163A1
:1054B000C0E90424C0E90611C0E90814C0E90A11D2
:1054C0000822C163C0E90D21FCF752FD08B1FAF7CB
:1054D0009BFF4FF00110039040F28C406946C2F2EE
:1054E000004041F2883200940294FCF7C5FA08B1FA
:1054F000FAF78AFF06B010BD10B540F6F41443F277
:105500000000C2F20044C4F20100032120604FF405
:10551000800060600020A060C4E9031060614FF06B
:105520008061C4E90610C4E90800C4E90A004FF02C
:105530008040606304F138002421FAF71BFF204605
:10554000FEF716FB002808BF10BDBDE81040FAF7B3
:105550005BBF00000000000010B540F67C2443F65D
:105560000000C2F20044C4F20000032120604FF4A6
:10557000800060600020A060C4E9031060614FF00B
:105580008061C4E90610C4E90800C4E90A004FF0CC
:105590008040606304F138002421FAF7EBFE2046D6
:1055A000FEF7E6FA002808BF10BDBDE81040FAF784
:1055B0002BBF00000000000010B540F6043443F695
:1055C0000040C2F20044C4F20000032120604FF406
:1055D000800060600020A060C4E9031060614FF0AB
:1055E0008061C4E90610C4E90800C4E90A004FF06C
:1055F0008040606304F138002421FAF7BBFE2046A6
:10560000FEF7B6FA002808BF10BDBDE81040FAF753
:10561000FBBE000000000000B0B59EB0002501A850
:10562000342100241794C4F20105CDE91544CDE9D5
:105630001344CDE91144CDE90F440E94FAF79AFED4
:1056400040F68C304FF6FF71C2F20040C0E90054C2
:105650008460C0E90314C0E90544FFF721FA08B1EA
:10566000FAF7D2FE40F68C3015A9C2F2004017942A
:10567000CDE91544FEF7B4FC08B1FAF7C5FE602089
:105680000E9040F68C300EA9C2F200400022002499
:10569000CDE90F44CDE91144CDE91344FEF7B0FF45
:1056A00008B1FAF7B1FE05944FF40050CDE9034478
:1056B000CDE90144CDE9060409944FF00070CDE92D
:1056C0000A040D9440F68C34C2F2004401A920462D
:1056D000FEF72AFC08B1FAF797FE21680020A942DC
:1056E0001D90CDE91B001A90199001D01EB0B0BDDD
:1056F00044F2E041C5F602010A6842F010020A6075
:10570000096801F01001189118994FF4007119916E
:105710000221CDE91A101C9001201D9041F20000D9
:10572000C5F6020019A9FBF703FF1EB0B0BD0000CB
:1057300080B588B040F6D8300021C2F20040079111
:10574000CDE90511CDE90311CDE901114FF08042FA
:105750000260F9228161C0E9012140F2E732C0E92B
:105760000321FEF7B1FC08B1FAF74EFE4FF480506A
:10577000049040F6D83004A9C2F20040FEF778FD4C
:1057800008B1FAF741FE00200190039040F6D830AE
:10579000C2F2004001A9FEF723FC08B1FAF734FE7B
:1057A00008B080BD0000000080B540F6746047F688
:1057B0000001C2F20040C4F200010C2201604FF46B
:1057C000E13141600021C0E902110161C0E9052118
:1057D000C0E90711C0E90911FFF78AFA08B1FAF721
:1057E00013FE40F674600021C2F20040FFF734FA65
:1057F00008B1FAF709FE40F674600021C2F20040D9
:10580000FFF7DEF908B1FAF7FFFD40F67460C2F267
:105810000040FFF7B9F9002808BF80BDBDE880400F
:10582000FAF7F2BD0000000080B540F6087041F6BE
:105830000001C2F20040C4F201010C2201604FF4E9
:10584000E13141600021C0E902110161C0E9052197
:10585000C0E90711C0E90911FFF74AFA08B1FAF7E0
:10586000D3FD40F608700021C2F20040FFF7F4F9C2
:1058700008B1FAF7C9FD40F608700021C2F20040F5
:10588000FFF79EF908B1FAF7BFFD40F60870C2F2C3
:105890000040FFF779F9002808BF80BDBDE88040CF
:1058A000FAF7B2BD0000000080B540F6B84041F6FE
:1058B0000041C2F20040C4F201010C2201604FF429
:1058C000E13141600021C0E902110161C0E9052117
:1058D000C0E90711C0E90911FFF70AFA08B1FAF7A0
:1058E00093FD40F6B8400021C2F20040FFF7B4F942
:1058F00008B1FAF789FD40F6B8400021C2F2004035
:10590000FFF75EF908B1FAF77FFD40F6B840C2F242
:105910000040FFF739F9002808BF80BDBDE880408E
:10592000FAF772BD0000000080B540F6244041F255
:105930000001C2F20040C4F201010C2201604FF4E8
:10594000E13141600021C0E902110161C0E9052196
:10595000C0E90711C0E90911FFF7CAF908B1FAF760
:1059600053FD40F624400021C2F20040FFF774F9D5
:1059700008B1FAF749FD40F624400021C2F2004088
:10598000FFF71EF908B1FAF73FFD40F62440C2F2D6
:105990000040FFF7F9F8002808BF80BDBDE880404F
:1059A000FAF732BD0000000080B540F64C5044F2DA
:1059B0000041C2F20040C4F200010C220023016049
:1059C0004FF4E13141600021C0E90521002201616D
:1059D000C0E90211C0E90711C0E90911FEF784F816
:1059E00008B1FAF711FD40F64C500021C2F2004018
:1059F000FFF732F908B1FAF707FD40F64C500021E5
:105A0000C2F20040FFF7DCF808B1FAF7FDFC40F6FF
:105A10004C50C2F20040FFF7B7F8002808BF80BD25
:105A2000BDE88040FAF7F0BC80B540F6E05044F69F
:105A30000001C2F20040C4F200010C220023016008
:105A40004FF4E13141600021C0E9052100220161EC
:105A5000C0E90211C0E90711C0E90911FEF744F8D5
:105A600008B1FAF7D1FC40F6E0500021C2F2004044
:105A7000FFF7F2F808B1FAF7C7FC40F6E050002152
:105A8000C2F20040FFF79CF808B1FAF7BDFC40F6FF
:105A9000E050C2F20040FFF777F8002808BF80BD51
:105AA000BDE88040FAF7B0BC80B540F2E840002184
:105AB000C2F20040C4F204010922C0E9001202212E
:105AC0000022C0E90321C0E90612C0E90822C0E9AA
:105AD0000B224263FCF7A8FB002808BF80BDBDE88D
